:020000040800F2
:1000000000000220ED070008D1060008D306000812
:10001000D5060008D7060008D90600080000000031
:10002000000000000000000000000000DB060008E7
:10003000DD06000800000000DF060008E1060008F9
:100040003D0800083D0800083D0800083D0800087C
:100050003D0800083D0800083D0800083D0800086C
:100060003D0800083D0800083D0800083D0800085C
:100070003D0800083D0800083D0800083D0800084C
:100080003D0800083D0800083D0800083D0800083C
:100090003D0800083D0800083D0800083D0800082C
:1000A0003D0800083D0800083D0800083D0800081C
:1000B0003D0800083D0800083D0800083D0800080C
:1000C0003D0800083D0800083D0800083D080008FC
:1000D0003D0800083D0800083D0800083D080008EC
:1000E0003D0800083D0800083D0800083D080008DC
:1000F0003D0800083D0800083D0800083D080008CC
:100100003D0800083D0800083D0800083D080008BB
:100110003D0800083D0800083D0800083D080008AB
:100120003D0800083D0800083D0800083D0800089B
:100130003D0800083D0800083D0800083D0800088B
:100140003D0800083D0800083D080008E9060008D1
:100150003D0800083D0800083D0800083D0800086B
:100160003D0800083D0800083D0800083D0800085B
:100170003D0800083D0800083D0800080000000098
:080180003D0800083D080008DD
:1001880010B5054C237833B9044B13B10448AFF3C9
:1001980000800123237010BD2C09002000000000FE
:1001A8005854000808B5034B1BB103490348AFF383
:1001B800008008BD000000003009002058540008E5
:1001C80053B94AB9002908BF00281CBF4FF0FF31B6
:1001D8004FF0FF3000F074B9ADF1080C6DE904CEB2
:1001E80000F006F8DDF804E0DDE9022304B070470A
:1001F8002DE9F047089E0D4604468846002B4DD150
:100208008A42944668D9B2FA82F252B101FA02F3EC
:10021800C2F1200120FA01F10CFA02FC41EA0308BC
:1002280094404FEA1C45210CB8FBF5FE1FFA8CF7E9
:1002380005FB1E8341EA03430EFB07F199420BD9E4
:100248001CEB03030EF1FF3080F01E81994240F24F
:100258001B81AEF1020E63445B1AA4B2B3FBF5F046
:1002680005FB103344EA034400FB07F7A7420AD909
:100278001CEB040400F1FF3380F00881A74240F230
:10028800058164440238E41B40EA0E4000211EB197
:10029800D4400023C6E90043BDE8F0878B4208D963
:1002A800002E00F0EE800021C6E900050846BDE8F2
:1002B800F087B3FA83F100294AD1AB4202D38242D4
:1002C80000F2F980841A65EB030301209846002E9A
:1002D800E2D0C6E90048DFE702B9FFDEB2FA82F2EF
:1002E800002A40F09180A1EB0C054FEA1C471FFA49
:1002F8008CFE0121B5FBF7F307FB1350250C45EAEB
:1003080000450EFB03F0A84208D91CEB050503F1D4
:10031800FF3802D2A84200F2CB8043462D1AA4B27D
:10032800B5FBF7F007FB105544EA05440EFB00FE49
:10033800A64508D91CEB040400F1FF3502D2A645F6
:1003480000F2BB802846A4EB0E0440EA03409EE777
:10035800C1F120078B4022FA07FC4CEA030C20FA73
:1003680007F405FA01F31C43FD404FEA1C4900FA63
:1003780001F3B5FBF9F8200C1FFA8CFE09FB1855A0
:1003880040EA054508FB0EF0A84202FA01F20BD933
:100398001CEB050508F1FF3A80F08880A84240F27E
:1003A8008580A8F1020865442D1AA4B2B5FBF9F0BE
:1003B80009FB105544EA054500FB0EFEAE4508D979
:1003C8001CEB050500F1FF346CD2AE456AD9023842
:1003D800654440EA0840A0FB0294A5EB0E05A5423F
:1003E800C846A64656D353D05EB1B3EB080265EBB8
:1003F8000E0505FA07F722FA01F3CD401F43C6E9B7
:1004080000750021BDE8F087C2F1200320FA03F14E
:100418000CFA02FC25FA03F395400D434FEA1C47FA
:100428001FFA8CFEB3FBF7F107FB11302B0C43EAE4
:10043800004301FB0EF0984204FA02F408D91CEBC1
:10044800030301F1FF382FD298422DD902396344B2
:100458001B1AADB2B3FBF7F007FB103345EA0345AF
:1004680000FB0EF3AB4208D91CEB050500F1FF3881
:1004780016D2AB4214D902386544ED1A40EA01415C
:1004880038E73146304607E78646E5E61846FAE695
:100498004B45A9D2B9EB020864EB0C0E0138A3E76F
:1004A8004046EAE7204694E74146D1E7D0467BE755
:1004B800023B654432E7084609E76444023842E7EC
:1004C800704700BF82B0002100910B4B1A6B42F0BD
:1004D80080021A631A6B02F080020092009A01915E
:1004E8001A6B42F001021A631B6B03F001030193BC
:1004F800019B02B0704700BF0038024072B6FEE7A9
:1005080000B595B03022002108A803F017FF00239A
:100518000393049305930693079301931F4A116C61
:1005280041F080511164126C02F080520192019ADC
:1005380002931B4B1A6842F480421A601B6803F44A
:1005480080430293029B012308934FF4803309935D
:1005580002230E934FF480020F9204221092482235
:10056800119212930323139308A801F089F980B913
:100578000F23039302210491002305934FF4805223
:100588000692079303A801F0E1FB20B915B05DF8C6
:1005980004FBFFF7B3FFFFF7B1FF00BF00380240CD
:1005A8000070004008B5074800F00EF800F06AF93E
:1005B800FFF7A6FFFFF786FF03F070FC00F0BEF818
:1005C800FEE700BF5009002008B5054B1860054B31
:1005D8001868002302221946806803F001FF08BD4D
:1005E80048090020EC00002010B5013801280AD87D
:1005F80014464FF0FF3392B20748006801F077FDC8
:1006080040B9204610BD03F06FFE092303604FF088
:10061800FF30F7E70520F5E748090020022801D850
:100628000020704708B503F05FFE092303604FF010
:10063800FF3008BD08B503F057FE092303604FF0EB
:10064800FF3008BD08B548B94FF0FF33012208480C
:10065800006801F0B8FD40B9012008BD03F044FE70
:10066800092303604FF0FF30F7E70520F5E700BFE7
:100678004809002008B5022804D84FF400534B60FD
:10068800002008BD03F030FE09230360F8E70000EE
:1006980082B0002100910B4B5A6C42F480425A649C
:1006A8005A6C02F480420092009A01911A6C42F04E
:1006B80080521A641B6C03F080530193019B02B0B3
:1006C800704700BF00380240FEE7FEE7FEE7FEE79E
:1006D800FEE770477047704708B500F0EDF808BDB1
:1006E80008B5024800F0BFFD08BD00BF780E002025
:1006F80010B503460C4A0D490D48006840B10C4836
:1007080000680344521A934206D8094A136010BD80
:100718000748084C0460F2E703F0E6FD0C23036089
:100728004FF0FF30F3E700BF000002200010000088
:100738004C090020E81300207047000008B50A485B
:100748000A4B03604FF4E133436000238360C360C6
:1007580003610C2242618361C36101F099FC00B915
:1007680008BDFFF7CBFEFBE7500900200010014051
:1007780000B589B000230393049305930693079368
:10078800026803F1804303F588339A4202D009B026
:100798005DF804FB0021019103F594335A6C42F093
:1007A80010025A645A6C02F010020192019A0291E6
:1007B8001A6B42F001021A631B6B03F001030293E8
:1007C800029B4FF4C063039302230493032306930D
:1007D8000723079303A9024800F000F9D7E700BFF1
:1007E80000000240DFF834D00D480E490E4A0023BD
:1007F80002E0D458C4500433C4188C42F9D30B4ACD
:100808000B4C002301E013600432A242FBD3FFF734
:1008180093FF03F06FFDFFF7C5FE7047000002204D
:10082800000000202C090020005500082C09002099
:10083800E8130020FEE7000010B504460E4B1878B8
:100848004FF47A73B3FBF0F30C4A1068B0FBF3F083
:1008580000F0B0F868B90F2C01D901200AE0002295
:1008680021464FF0FF3000F05FF8054B1C60002078
:1008780000E0012010BD00BF04000020000000209F
:100888000800002008B50B4B1A6842F400721A6081
:100898001A6842F480621A601A6842F480721A6018
:1008A800032000F02FF80F20FFF7C6FFFFF7F0FE38
:1008B800002008BD003C0240034A1168034B1B7826
:1008C8000B441360704700BF940900200400002007
:1008D800014B1868704700BF9409002038B50446DA
:1008E800FFF7F6FF0546B4F1FF3F02D0044B1B7833
:1008F8001C44FFF7EDFF401BA042FAD338BD00BFF0
:1009080004000020074AD36823F4E0631B041B0C8F
:10091800000200F4E060034343F0BF6343F4003394
:10092800D360704700ED00E000B5194BDB68C3F3F6
:100938000223C3F1070CBCF1040F28BF4FF0040CCD
:1009480003F1040EBEF1060F18D9033B4FF0FF3E2A
:100958000EFA0CFC21EA0C0199400EFA03F322EA84
:100968000303194300280BDB0901C9B200F16040F9
:1009780000F5614080F800135DF804FB0023E5E70B
:1009880000F00F000901C9B2024B1954F4E700BF87
:1009980000ED00E014ED00E0002807DB00F01F0286
:1009A800400901239340024A42F82030704700BFB3
:1009B80000E100E00138B0F1807F0BD24FF0E02376
:1009C8005861054AF02182F8231000209861072217
:1009D8001A6170470120704700ED00E000230F2BDB
:1009E80000F2E48070B582B060E085685E000324A0
:1009F800B44025EA0405CC68B4402C4384604568BB
:100A080025EA02054C68C4F300129A402A43426062
:100A18005AE0DC08083450F8246003F00702950017
:100A28000F22AA4026EA020E0A69AA4042EA0E02EA
:100A380040F824205CE0072200E0002202FA0EF2CF
:100A48002A4302345A4D45F824205A4A94686FEADA
:100A58000C0224EA0C054E6816F4801F01D04CEAFB
:100A68000405544CA560E46802EA04054E6816F4CF
:100A7800001F01D04CEA04054E4CE560646802EAA8
:100A880004054E6816F4003F01D04CEA0405494CB1
:100A98006560246822404D6815F4803F01D04CEA17
:100AA8000402444C226001330F2B7DD801229A4066
:100AB8000C6804EA020C32EA0404F4D14C6804F02D
:100AC8000304013C012C90D94A6802F00302032A6E
:100AD80009D0C4685D000322AA4024EA02048A6897
:100AE800AA402243C2604A6802F00302022A90D058
:100AF80004684FEA430E032202FA0EF224EA0204C3
:100B08004A6802F0030202FA0EF2224302604A68BF
:100B180012F4403FC7D000220192274A546C44F493
:100B280080445464526C02F480420192019A9C08F9
:100B3800A51C1F4A52F8255003F003024FEA820E03
:100B48000F2202FA0EF225EA02051C4A90423FF4EF
:100B580074AF02F5806290421AD002F5806290422A
:100B680018D002F58062904216D002F58062904259
:100B780014D002F58062904212D002F58062904251
:100B880010D002F5806290423FF455AF082255E735
:100B9800012253E7022251E703224FE704224DE7DF
:100BA80005224BE7062249E702B070BD704700BF37
:100BB80000380140003C014000380240000002407B
:100BC8002DE9F04383B0D0F8008001EBC10300EBBE
:100BD8008303DA6D5B6D9A4254D807460C469B1A1C
:100BE80001EBC10200EB8202926C9A4200D31A46D2
:100BF80002F103094FEA990915E006F103094FEAE2
:100C0800990904EBC40507EB8505E96C3B7C009367
:100C1800B3B2E2B2404601F015FFEB6C3344EB642B
:100C2800EB6D3344EB6508EB441303F510639B69E4
:100C38009BB24B4512D304EBC40207EB8202D16D81
:100C4800536D99420AD24BB15B1A04EBC40207EB0D
:100C58008202966C9E42D0D31E46CEE704EBC400B7
:100C680007EB80077A6DFB6D9A420FD804F00F04EA
:100C78000123A340D8F8344824EA0304C8F83448C8
:100C8800002000E0012003B0BDE8F0830020FAE76F
:100C980070B58AB0002800F090800546046890F886
:100CA800BD343BB3032385F8BD34E36B13F4807F75
:100CB80001D100232B61286801F0DEFB2C4654F893
:100CC800106BEC460FCCACE80F000FCCACE80F0073
:100CD80094E803008CE803002B1D0ECB304601F08E
:100CE8000DFB044658B1022385F8BD340124204683
:100CF8000AB070BD80F8BC3403F0A4F9D2E7002133
:100D0800286802F0B6F8234616E003EBC30205EBA9
:100D18008202012182F83D1082F83C30A2F844306A
:100D2800002182F840109164D16403EBC30205EB03
:100D3800820251650133DBB269688B42E5D316E064
:100D480004EBC40305EB8303002283F87D2283F8B8
:100D58007C4283F88022C3F88822C3F88C2204EBF3
:100D6800C40305EB8303C3F894220134E4B2A1421F
:100D7800E6D82C4654F8106BEC460FCCACE80F00C4
:100D88000FCCACE80F0094E803008CE803002B1D9F
:100D98000ECB304601F0CCFB044620B1022385F887
:100DA800BD340124A3E7002385F83830012385F8F2
:100DB800BD34286802F01BF899E7012497E7026818
:100DC80090F8BC34012B19D010B50446012380F8E3
:100DD800BC34836A012B09D0206801F047FB2068E6
:100DE80001F0F7FF002084F8BC0410BD8369012BD3
:100DF800F2D0936B43F480339363EDE7022070479E
:100E080070B504460D460068066C00EB411303F507
:100E180030639A682169012911D038498E4256D029
:100E28003DB905EBC50304EB8303D3F89432002BDB
:100E38005ED0E9B2204603F04FF9002070BD12F0F1
:100E4800080F09D02E498E42F7D912F4004FF4D07A
:100E58004FF400429A60F0E712F0200F02D02022EF
:100E68009A60EAE712F0280FE7D125498E4206D9A1
:100E780012F4004F03D04FF400429A60DDE705EB0F
:100E8800C50204EB8202D2F898121B69C3F312035D
:100E9800CB1AC2F89C327DB905EBC50204EB82027D
:100EA800D2F894226AB105EBC50204EB8202D2F8AB
:100EB8008C120B44C2F88C32E9B2204603F00CF9CC
:100EC800BBE704F2C442012102F014F8F4E712F47B
:100ED800004F03D04FF400429A60AEE712F0200FA3
:100EE80001D020229A60E9B2204603F0F5F8A4E781
:100EF80004F2C442002101F0FDFF9AE70A31544F81
:100F08000A30544F38B5044603681D6C03EB41138F
:100F1800D3F8081B0E4A954207D903F5306311F43C
:100F2800004F02D04FF400429A60204603F0CCF8FC
:100F3800074B9D4202D92369012B01D0002038BDFF
:100F480004F2C4420121206801F0D4FFF6E700BF93
:100F58000A30544F90F8BC34012B0DD010B504461C
:100F6800012380F8BC3480F83810006801F021FFB4
:100F7800002084F8BC0410BD0220704738B505462F
:100F88008C4611F0800F29D101F00F0E0EEBCE0424
:100F9800A40004F51E740444211D0EEBCE0E00EBD4
:100FA8008E0E00208EF87D020CF00F0C81F800C028
:100FB800CA600B714A780AB1A1F808C0022B1DD08B
:100FC80095F8BC34012B1CD0012385F8BC34286863
:100FD80001F087FB002085F8BC0438BD01F00F0044
:100FE80000EBC001890038312944043100EBC0000E
:100FF80005EB8000012480F83D40D5E700234B71C4
:10100800DEE70220E9E710B504460A4611F0800F32
:1010180020D101F00F0000EBC0039B0003F51E7305
:101028002344191D00EBC00004EB8000002380F866
:101038007D3202F00F020A7094F8BC34012B19D0EB
:10104800012384F8BC34206801F09AFB002084F85E
:10105800BC0410BD01F00F0000EBC0039B00383347
:101068002344191D00EBC00004EB8000012380F825
:101078003D30DEE70220ECE710B501F00F0404EB89
:10108800C401890001F51E710144043104EBC40C4C
:1010980000EB8C0CCCF88C22CCF894320023CCF8E2
:1010A8009C328CF87D328CF87C420369012B06D087
:1010B80064B9DAB2006801F0D3FB002010BD04EB7C
:1010C800C40C00EB8C0CCCF89022F1E7DAB2006883
:1010D80001F0D0FCF1E710B501F00F0404EBC401F6
:1010E800890038310144043104EBC40C00EB8C0C4A
:1010F800CCF84C20CCF854300023CCF85C300123D9
:101108008CF83D308CF83C400369012B06D064B95B
:10111800DAB2006801F0A4FB002010BD04EBC40C97
:1011280000EB8C0CCCF85020F1E7DAB2006801F043
:10113800A1FCF1E738B501F00F054268954239D8AE
:1011480004460B4611F0800F1FD101EBC101890045
:1011580001F51E710144043103EBC30300EB830363
:10116800002283F87D2201238B700D7094F8BC3423
:10117800012B21D0012384F8BC34206801F0BEFD86
:101188008DB1002084F8BC0438BD05EBC501890089
:1011980038310144043105EBC50300EB8303012218
:1011A80083F83D20DFE704F2C442217C206801F087
:1011B800A1FEE6E70120E7E70220E5E701F00F03DB
:1011C8004268934231D810B5044611F0800F1ED101
:1011D80003EBC301890001F51E710144043103EBDF
:1011E800C30200EB8202002082F87D0200228A708E
:1011F8000B7094F8BC34012B19D0012384F8BC344B
:10120800206801F0A8FD002084F8BC0410BD03EBA1
:10121800C301890038310144043103EBC30200EBF8
:101228008202012082F83D00E0E701207047022099
:10123800ECE708B511F0800F0CD101F00F0101EBBC
:10124800C101890001F51E7101440431006801F0F3
:101258009BFB08BD01F00F0101EBC101890038318A
:1012680001440431F2E72DE9F04F83B004460568E4
:10127800284601F0FAFD10B103B0BDE8F08F06462C
:10128800206801F0C2FD0028F6D005F50067BB68AC
:10129800C3F30D23C4F8FC34206801F0B6FD10F048
:1012A800020F04D02268536903F0020353612068D7
:1012B80001F0ABFD10F0100F13D02268936923F0F2
:1012C80010039361D5F8208008F00F09C8F3434351
:1012D800022B4BD0062B6FD02268936943F0100382
:1012E8009361206801F091FD10F4002F76D12068F9
:1012F80001F08BFD10F4802F40F0E080206801F0B1
:1013080084FD0028C0F26381206801F07EFD10F49E
:10131800006F09D0BB6813F0010F40F0708122689C
:10132800536903F400635361206801F06EFD10F403
:10133800805F40F06881206801F067FD10F4005F6D
:1013480040F0B581206801F060FD10F0080F40F012
:10135800C681206801F059FD10F0800F00F0D98196
:10136800AB6923F08003AB610126C2E147F6F07355
:1013780018EA030FB0D04FEA181B4FEAC9030193CC
:1013880009EBC90A04EB8A0AC8F30A12DAF88C12C4
:10139800284601F089FCCBF30A0BDAF88C325B445F
:1013A800CAF88C32019B4B4404EB8303D3F89C327C
:1013B8005B44CAF89C328FE7082204F2C4412846ED
:1013C80001F072FCC8F30A1809EBC90204EB8202A7
:1013D800D2F89C324344C2F89C327DE7206801F081
:1013E80018FD8046B14635E005EB49130122C3F8E4
:1013F800082B49462046FFF703FD3CE005EB49135F
:101408000822C3F8082B49462046FFF77BFD35E044
:1014180009EBC90304EB830393F87F32012B41D016
:1014280005EB49130222C3F8082B1AF0200F04D049
:1014380005EB49132022C3F8082B1AF4005F05D0E6
:1014480005EB49134FF40052C3F8082B09F10109C1
:101458004FEA5808B8F1000F3FF449AF18F0010FF0
:10146800F4D05FFA89FB5946206801F0E2FC824615
:1014780010F0010FB8D11AF0080FBFD11AF0100FF1
:1014880004D005EB49131022C3F8082B1AF0020FF9
:10149800CBD06B6913F0800FBAD07B6843F48063BC
:1014A8007B60B5E709EBC90304EB8303002283F8EB
:1014B8007F225946204602F061FEB1E7206801F01C
:1014C800B0FC8046B14625E05946204602F010FEA1
:1014D8001AF0080F04D005EB49130822C3F80829AD
:1014E8001AF0100F04D005EB49131022C3F808298D
:1014F8001AF0400F04D005EB49134022C3F808291D
:101508001AF0020F40D11AF0800F5BD109F10109DE
:101518004FEA5808B8F1000F3FF4F0AE18F0010F89
:10152800F4D05FFA89FB5946206801F08BFC8246AB
:1015380010F0010FCCD009F00F03012101FA03F2DA
:101548007B6B23EA02037B6305EB4913C3F8081995
:1015580023698B42B8D109EBC90304EB8303996C67
:10156800DA6C0A44DA64B9F1000FADD109EBC903AA
:1015780004EB83035B6D002BA6D104F2C442012166
:10158800206801F0B7FC9FE74946284600F07AFF3B
:1015980009EBC90304EB830393F83F30012B05D013
:1015A80005EB49130222C3F80829ACE709EBC90384
:1015B80004EB8303002283F83F205946204602F0BB
:1015C800E3FDEDE749462046FFF7FAFA9EE77B6818
:1015D80023F001037B6094F8F434012B08D02046F3
:1015E80002F0C6FD2268536903F0004353618BE69D
:1015F800002184F8F414204600F040F9F2E7204670
:1016080002F09EFD8BE67B6823F001037B601021CE
:10161800206800F037FF1AE005EB46134FF67F31DC
:10162800C3F80819D3F8002922F40012C3F80029D6
:10163800C3F8081BD3F8002B22F40012C3F8002BC0
:10164800D3F8002B42F00062C3F8002B0136636820
:10165800B342E1D8FB6943F00113FB61236BDBB1B3
:10166800D7F8843043F00B03C7F884307B6C43F021
:101678000B037B64D5F8003823F4FE63C5F8003803
:1016880004F2C442217C206801F034FC22685369CA
:1016980003F4805353614EE67B6943F4005343F0EF
:1016A8002B037B613B6943F00B033B61E2E7206856
:1016B80001F010FC206801F003F8E060266800F0F3
:1016C800F5FB0146227B304600F05EFE204602F024
:1016D80020FD2268536903F40053536132E6204623
:1016E80002F011FD2268536903F00803536130E6E4
:1016F80001366368B3420CD906EBC60304EB8303D7
:1017080093F87F32012BF3D1F1B22046FFF791FD18
:10171800EEE7206801F079FB10F4801F27D12068DC
:1017280001F073FB10F4001F5BD0012328E00136A1
:101738006368B3421DD905EB4613D3F8002906EBBD
:10174800C60304EB830393F84030012BEFD1002A42
:10175800EDDA06EBC60304EB8303012283F83F208E
:1017680066F07F01C9B22046FFF763FDDFE7012677
:10177800DEE72268536903F480135361CFE701332E
:1017880062689A4228D905EB4312D2F8001B03EB92
:10179800C30204EB820292F88022012AEFD10029C9
:1017A800EDDA01F48031D4F8FC2402F00102914210
:1017B800E5D103EBC30204EB8202012182F87F1218
:1017C800AA6942F08002AA616A6912F0800FD6D134
:1017D8007B6843F400737B602268536903F4001349
:1017E8005361206801F011FB10F0804F10D1206880
:1017F80001F00BFB10F0040F3FF43EAD23685D6869
:1018080015F0040F0DD1226853682B43536033E55C
:10181800204602F0BFFC2268536903F080435361FD
:10182800E5E7204602F0BCFCEDE710B40468606A06
:1018380029B940EA0240A062002010BC70478C46DB
:10184800A36A00EB1340002308E003F1400104EB16
:101858008101496800EB11400133DBB20CF1FF3123
:101868008B42F2D340EA02400CF13F0104EB8101C4
:101878004860E1E70368596200207047704700003C
:10188800002800F0E08170B582B00446036813F0C8
:10189800010F3BD09F4B9B6803F00C03042B2CD00B
:1018A8009C4B9B6803F00C03082B21D06368B3F5AD
:1018B800803F4FD0B3F5A02F52D0964B1A6822F430
:1018C80080321A601A6822F480221A606368002B3A
:1018D80050D0FEF7FDFF05468E4B1B6813F4003F02
:1018E80014D1FEF7F5FF401B6428F5D90320B1E1B8
:1018F800884B5B6813F4800FD8D0864B1B6813F4B1
:10190800003F03D06368002B00F09F81236813F029
:10191800020F54D07F4B9B6813F00C0F3ED07D4BC9
:101928009B6803F00C03082B33D0E368002B68D0C6
:10193800794B01221A60FEF7CBFF0546754B1B68F1
:1019480013F0020F54D1FEF7C3FF401B0228F5D94C
:1019580003207FE16F4A136843F480331360B5E7CF
:101968006C4B1A6842F480221A601A6842F480327A
:101978001A60ABE7FEF7ACFF0546664B1B6813F42D
:10198800003FC3D0FEF7A4FF401B6428F5D903200D
:1019980060E1604B5B6813F4800FC6D15D4B1B6838
:1019A80013F0020F03D0E368012B40F05081594A2D
:1019B800136823F0F803216943EAC103136023681D
:1019C80013F0080F42D063696BB3534B0122C3F87D
:1019D800802EFEF77DFF05464E4B5B6F13F0020F1E
:1019E80034D1FEF775FF401B0228F5D9032031E1F9
:1019F800484A136823F0F803216943EAC1031360D6
:101A0800DDE7454B00221A60FEF762FF0546414BB1
:101A18001B6813F0020FD2D0FEF75AFF401B0228B2
:101A2800F5D9032016E13C4B0022C3F8802EFEF7BF
:101A38004FFF0546374B5B6F13F0020F06D0FEF7DA
:101A480047FF401B0228F5D9032003E1236813F060
:101A5800040F77D02F4B1B6C13F0805F33D100231A
:101A680001932C4B1A6C42F080521A641B6C03F0E1
:101A780080530193019B0125284B1B6813F4807F39
:101A880023D0A368012B34D0052B38D0214B1A6FF3
:101A980022F001021A671A6F22F004021A67A3687B
:101AA800002B3DD0FEF714FF06461A4B1B6F13F0B0
:101AB800020F46D1FEF70CFF801B41F28833984293
:101AC800F3D90320C6E00025D6E7144A136843F487
:101AD80080731360FEF7FCFE0646104B1B6813F478
:101AE800807FCED1FEF7F4FE801B0228F5D90320B3
:101AF800B0E0084A136F43F001031367CFE7054BC3
:101B08001A6F42F004021A671A6F42F001021A674C
:101B1800C5E700BF0038024000004742007000409F
:101B2800FEF7D6FE0646524B1B6F13F0020F08D085
:101B3800FEF7CEFE801B41F288339842F3D903208A
:101B480088E0EDB9A369002B00F08380484A9268C9
:101B580002F00C02082A51D0022B17D0454B002264
:101B68001A66FEF7B5FE0446414B1B6813F0007F6A
:101B780042D0FEF7ADFE001B0228F5D9032069E02C
:101B88003B4A136C23F080531364DBE7394B002284
:101B98001A66FEF79DFE0546354B1B6813F0007F5D
:101BA80006D0FEF795FE401B0228F5D9032051E028
:101BB800E369226A1343626A43EA8213A26A5208FB
:101BC800013A43EA0243E26A43EA0263284A53605D
:101BD800284B01221A66FEF77BFE0446244B1B683D
:101BE80013F0007F06D1FEF773FE001B0228F5D91B
:101BF80003202FE000202DE000202BE0012B2BD02C
:101C08001B4B5B6803F48001E269914226D103F023
:101C18003F02216A8A4223D1616A47F6C0721A409C
:101C2800B2EB811F1ED103F44031A26A5208013A77
:101C3800B1EB024F18D103F07063E26AB3EB026FA5
:101C480014D1002006E001207047012002E00120A5
:101C580000E0002002B070BD0120FBE70120F9E799
:101C68000120F7E70120F5E70120F3E70120F1E77C
:101C7800003802400000474208B5314B9B6803F02A
:101C88000C03042B57D0082B57D12D4B5A6802F060
:101C98003F025B6813F4800F2AD0294B5968C1F3BF
:101CA800881C4FEA4C11B1EB0C006EEB0E0E4FEA9C
:101CB8008E1343EA90638101091A63EB0E03DB007C
:101CC80043EA5173C90011EB0C0C43F100035902AC
:101CD80000234FEA4C2041EADC51FEF771FA184B19
:101CE8005B68C3F3014301335B00B0FBF3F025E00D
:101CF800134B5968C1F3881C4FEA4C11B1EB0C0027
:101D08006EEB0E0E4FEA8E1343EA90638101091AB7
:101D180063EB0E03DB0043EA5173C90011EB0C0CB3
:101D280043F10003990200234FEA8C2041EA9C51B9
:101D3800FEF746FAD3E7034800E0034808BD00BFB2
:101D48000038024000127A000024F400002800F055
:101D58009B8070B50D4604464F4B1B6803F0070384
:101D68008B4208D2CBB24C4A1370136803F00703B6
:101D78008B4240F08B80236813F0020F17D013F0CA
:101D8800040F04D0454A936843F4E05393602368F2
:101D980013F0080F04D0414A936843F460439360FA
:101DA8003E4A936823F0F003A1680B4393602368CD
:101DB80013F0010F32D06368012B21D09A1E012A3B
:101DC80025D9364A126812F0020F61D033498A6861
:101DD80022F0030213438B60FEF77AFD06462F4B71
:101DE8009B6803F00C036268B3EB820F16D0FEF712
:101DF8006FFD801B41F288339842F0D9032042E0FE
:101E0800264A126812F4003FE0D101203BE0234A41
:101E1800126812F0007FD9D1012034E01E4B1B68F4
:101E280003F00703AB4207D9EAB21B4B1A701B68D1
:101E380003F00703AB422DD1236813F0040F06D03B
:101E4800164A936823F4E053E1680B4393602368D0
:101E580013F0080F07D0114A936823F460432169EF
:101E680043EAC1039360FFF707FF0C4B9B68C3F37A
:101E780003130B4AD35CD8400A4B18600A4B186806
:101E8800FEF7DAFC002070BD012070470120FAE758
:101E98000120F8E70120F6E7003C02400038024044
:101EA800705400080000002008000020014B18684A
:101EB800704700BF0000002008B5FFF7F7FF044B8C
:101EC8009B68C3F38223034AD35CD84008BD00BF94
:101ED800003802408054000808B5FFF7E7FF044BBC
:101EE8009B68C3F34233034AD35CD84008BD00BFA4
:101EF800003802408054000838B504460268136967
:101F080023F44053C1680B43136183680269134388
:101F180042691343C2691A430168CB6823F4164324
:101F280023F00C031343CB600268536923F4407316
:101F380081690B4353610368314A934206D002F525
:101F48008062934202D0FFF7B7FF01E0FFF7C4FFBA
:101F5800E369B3F5004F29D00021031849411B1844
:101F680041F10001C90041EA5371DB0018186368A8
:101F78004FEA83024FEA937341F10001FEF720F91B
:101F8800204DA5FB00325109642303FB11031B01FB
:101F98003233A5FB03235B0903F0F00202EB0112C5
:101FA80003F00F03216813448B6038BD0023021827
:101FB80043EB0301121841F10001C90041EA5271D3
:101FC800D200101841F10001626892185B41FEF7D7
:101FD800F7F80C4DA5FB00325109642303FB1103EC
:101FE800DB003233A5FB03235B095A0002F4F872C5
:101FF80002EB011203F00703216813448B60D4E756
:10200800001001401F85EB512DE9F84305460F46A6
:1020180016469946DDF820802C68246837EA0403C0
:102028000CBF4FF0010C4FF0000CB4452DD1B8F1A6
:10203800FF3FF1D0B8F1000F05D0FEF749FCA0EB47
:1020480009004045E8D92A6802F10C0353E8003F2B
:1020580023F4D0730C3242E800310029F3D12A6806
:1020680002F1140353E8003F23F00103143242E85D
:1020780000310029F3D1202385F83D3085F83E3022
:10208800002385F83C30032000E00020BDE8F883F9
:1020980058B310B5044690F83D300BB3242384F8A8
:1020A8003D302268D36823F40053D3602046FFF7FD
:1020B80023FF2268136923F490431361226853694C
:1020C80023F02A0353612268D36843F40053D36092
:1020D80000202064202384F83D3084F83E3010BD71
:1020E80080F83C30FEF744FBD8E7012070472DE923
:1020F800F04182B01E4690F83D30DBB2202B54D11F
:1021080004460D469046002953D0002A53D090F833
:102118003C30012B51D0012380F83C30002303646C
:10212800212380F83D30FEF7D3FB0746A4F824802E
:10213800A4F82680A368B3F5805F05D04FF00008A7
:10214800002384F83C3012E0236913B14FF00008F3
:10215800F6E7A8460025F3E738F8023B2268C3F300
:1021680008035360E28C92B2013A92B2E284E38CA3
:102178009BB273B100963B46002280212046FFF7B0
:1021880043FFE0B9002DE7D015F8012B23685A600A
:10219800E8E700963B46002240212046FFF734FF3F
:1021A80078B9202384F83D3000E0022002B0BDE871
:1021B800F0810120FAE70120F8E70220F6E7032082
:1021C800F4E70320F2E72DE9F04182B01E4690F8CB
:1021D8003E30DBB2202B5CD104460D4690460029E8
:1021E8005BD0002A5BD090F83C30012B59D00123FA
:1021F80080F83C3000230364222280F83E200363E9
:10220800FEF766FB0746A4F82C80A4F82E80A36886
:10221800B3F5805F05D04FF00008002384F83C3008
:1022280017E0236913B14FF00008F6E7A846002528
:10223800F3E723685B68C3F3080328F8023B03E06D
:1022480023685B682B700135E28D92B2013A92B235
:10225800E285E38D9BB2BBB100963B46002220216C
:102268002046FFF7D1FEF0B9002DE2D0A368B3F500
:10227800805FE5D013B92369002BE1D023685B6840
:1022880003F07F032B70DEE7202384F83E30002024
:1022980000E0022002B0BDE8F0810120FAE7012049
:1022A800F8E70220F6E70320F4E7000082B00023F5
:1022B8000193019B01330193019A0F4B9A4215D860
:1022C8000369002BF5DA00230193036943F0010346
:1022D8000361019B01330193019A074B9A4208D885
:1022E800036913F0010FF4D1002000E0032002B0CD
:1022F80070470320FBE700BF400D030084B010B512
:10230800044603A880E80E00089B012B1FD1A36B8D
:1023180023F48033A363E36823F4840323F04003A6
:10232800E360E36823F44013E3600F9B012B09D0BB
:102338002046FFF7BBFF069B012B1BD0BDE81040D2
:1023480004B07047E36843F48013E360F0E7E368A0
:1023580043F04003E3602046FFF7A8FF0C9B23B936
:10236800A36B43F48033A363E5E7A36B23F48033C3
:10237800A363E0E7A36843F00603A360A36843F000
:102388002003A360DAE70000022A0AD00921C26804
:1023980022F47052C260C36843EA8123C3600020FC
:1023A8007047234B0B44234A93422FD9224B0B44AB
:1023B800224A93422CD9A1F57403A3F51053204A5D
:1023C800934227D9A1F18373A3F5E7431D4A9342AA
:1023D80022D31D4B0B441D4A93421FD91C4B0B445F
:1023E8001C4A93421CD31C4B0B441C4A934219D3DE
:1023F800A1F1B773A3F55853194A934214D3194B53
:102408000B44194A934211D20721C0E70F21BEE7B6
:102418000E21BCE70D21BAE70C21B8E70B21B6E77E
:102428000A21B4E70921B2E70821B0E70621AEE79F
:10243800405327FFFF340C00401E1BFF3F420F0094
:102448007F4F120020D6130060B6E5FE5FE316004A
:1024580000D3CEFE40771B00C05BB3FEC0912100C5
:1024680020753800E05459FEE09C4100836843F031
:102478000103836000207047836823F001038360B1
:102488000020704782B000230193019B0133019320
:10249800019A0F4B9A4215D80369002BF5DA0023ED
:1024A8000193890141F020010161019B01330193EE
:1024B800019A074B9A4208D8036913F0200FF4D108
:1024C800002000E0032002B070470320FBE700BFB4
:1024D800400D030082B000230193019B0133019357
:1024E800019A0E4B9A4213D80369002BF5DA0023A0
:1024F800019310230361019B01330193019A074B58
:102508009A4208D8036913F0100FF4D1002000E0B4
:10251800032002B070470320FBE700BF400D030013
:10252800D0F800381943C0F80018002070470000A0
:1025380084B02DE9F041044607A880E80E00002386
:1025480006E003F1400204EB8202002151600133EE
:102558000E2BF6D9119F27BBD4F8043843F0020399
:10256800C4F80438A36B43F40013A363A36B23F4E8
:102578000023A363A36B23F48023A3630023C4F87D
:10258800003E04F50065D4F80038C4F800380C9B08
:10259800012B14D1099B6BB900212046FFF7C0FF1E
:1025A80011E0A36B23F40013A363A36B43F400238C
:1025B800A363E3E701212046FFF7B2FF03E003210D
:1025C8002046FFF7ADFF10212046FFF75BFF80464E
:1025D80008B14FF001082046FFF77CFF08B14FF023
:1025E800010800232B616B61EB610AE0C3B94FF06E
:1025F8000060C2F8000900220A614FF67F328A6043
:1026080001330799994210D904EB431202F510617E
:10261800D2F800090028E9DB0020C2F80009EAE73F
:102628004FF09040C2F80009E5E700230AE0C3B183
:102638004FF0904CC2F800CB002202614FF67F3277
:1026480082600133994211D904EB431202F53060DC
:10265800D2F8006B002EEADB4FF0000CC2F800CB7A
:10266800EAE74FF0006CC2F800CBE5E72B6923F4EA
:1026780080732B610023A3616FF0804363610A9B21
:102688001BB9A36943F01003A361A2690B4B134361
:10269800A3610D9B1BB1A36943F00803A361012F3C
:1026A80004D04046BDE8F04104B07047A36943F048
:1026B800804343F00403A361F3E700BF00383C8084
:1026C800D0F8083813F0060307D0022B07D0062BE2
:1026D80001D00F2070470220704700207047022069
:1026E800704710B591F800C04B78012B23D000F546
:1026F800006ED0F81C380CF00F040122A24043EA07
:102708000243C0F81C3800EB4C10D0F8003B13F41F
:10271800004F0ED1D0F8003BCA68C2F30A0209790B
:1027280042EA8142134343F0805343F40043C0F824
:10273800003B002010BDD0F81C280CF00F0E03FA47
:102748000EF39BB21343C0F81C3800EB4C10D0F8C2
:10275800003913F4004FECD1D0F80039CA68C2F33D
:102768000A02097942EA814242EA8C5C43EA0C0394
:1027780043F0805343F40043C0F80039D9E7000020
:1027880030B40B784A78012A26D000EB4313D3F8EB
:10279800002B002A52DBD0F83C480A7802F00F02DE
:1027A8004FF0010C0CFA02F224EA0242C0F83C286D
:1027B800D0F81C28097801F00F010CFA01FC22EA74
:1027C8000C42C0F81C28D3F8001B234A0A40C3F85F
:1027D800002B002030BC704700EB4313D3F80029CE
:1027E800002A1EDBD0F83C580A7802F00F020124B8
:1027F80004FA02F292B225EA0202C0F83C28D0F8A4
:102808001C28097801F00F018C40A4B222EA0404C4
:10281800C0F81C48D3F80019104A0A40C3F8002928
:10282800D7E7D3F8002942F00062C3F80029D3F8AB
:10283800002942F08042C3F80029D3E7D3F8002BDF
:1028480042F00062C3F8002BD3F8002B42F080421C
:10285800C3F8002B9FE700BF0078F3EF007833EC54
:1028680030B40B784C78012C29D000EB431000F5DC
:1028780030631C69E40CE4041C611C6924F0FF54F7
:1028880024F4C0141C618C690CB1CC688C61CC68D0
:10289800CC611C6944F400241C611C69CD69C5F332
:1028A800120C44EA0C041C61012A68D0D0F8003BE1
:1028B80043F00443C0F8003B002030BC70478C69EB
:1028C8006CBB00EB4314D4F8105925F0FF5525F4E0
:1028D800C015C4F81059D4F8105945F40025C4F8A7
:1028E8001059D4F81059ED0CED04C4F81059012A08
:1028F80036D000EB4313D3F8002942F00442C3F862
:1029080000298B69002BD7D0D0F834380A7802F028
:102918000F0101228A401343C0F83438CCE700EB9A
:10292800431404F510642569ED0CED04256125694F
:1029380025F0FF5525F4C0152561CD68D1F818C0DC
:10294800AC4500D98D61256945F4002525612569C7
:10295800D1F818C0CCF3120C45EA0C052561C6E77E
:102968004A691AB100EB4311C1F8142900EB43106E
:10297800D0F8002942F00442C0F800299CE70A690F
:10298800002A93D05A6191E710B483B0024600231D
:102998000193487801280AD00B7802EB4313D3F847
:1029A800000B00282CDB002003B010BC70470B780C
:1029B80002EB4313D3F80049002C01DB0020F3E7B6
:1029C800D3F8004944F00064C3F800490B7802EBDF
:1029D8004313D3F8004944F08044C3F80049019BED
:1029E80001330193019C42F210739C42DCD80B78AE
:1029F80002EB4313D3F80039002BF0DB0020D3E7B8
:102A0800D3F8000B40F00060C3F8000B0B7802EB22
:102A18004313D3F8000B40F08040C3F8000B019B30
:102A280001330193019842F21073984208D80B7849
:102A380002EB4313D3F8003B002BF0DB0020B3E795
:102A48000120B1E710B59DF8084084B903334FEA77
:102A5800930E4FF0000C08E000EB023303F58053AF
:102A680051F8044B1C600CF1010CF445F4D3002020
:102A780010BD0000F0B583B00B784C78012C33D032
:102A880000EB431303F5306CDCF81040E40CE4046D
:102A9800CCF81040DCF8104024F0FF5424F4C014A3
:102AA800CCF810408C69002C40F0C780DCF810404E
:102AB800CD68C5F312052C43CCF81040DCF8104063
:102AC80044F40024CCF81040012A00F0D0800A79A0
:102AD800012A00F0D380D3F8002B42F00442C3F857
:102AE800002B002003B0F0BD8C6984BB00EB4314BD
:102AF800D4F8105925F0FF5525F4C015C4F810591D
:102B0800D4F8105945F40025C4F81059D4F81059D0
:102B1800ED0CED04C4F81059012A4CD000EB431316
:102B2800D3F8004944F00444C3F800490C79012C57
:102B38006AD08B69002BD4D0D0F834380A7802F0E8
:102B48000F0101228A401343C0F83438C9E700EB6B
:102B58004314D4F81059ED0CED04C4F81059D4F806
:102B6800105925F0FF5525F4C015C4F81059D4F8AC
:102B780010698D69CF683D44013DB5FBF7F5494FB4
:102B880007EAC5453543C4F81059D4F810598E6979
:102B9800C6F312063543C4F8105904F510640D79CC
:102BA800012DB9D1256925F0C0452561256945F074
:102BB80000552561B0E74A691AB100EB4314C4F81F
:102BC80014290A79012A08D000EB4313D3F8002905
:102BD80042F00442C3F8002983E7D0F8082812F429
:102BE800807F08D100EB4311D1F8002942F0005250
:102BF800C1F80029E8E700EB4311D1F8002942F0B9
:102C08008052C1F80029DFE7D0F8084814F4807F23
:102C18000CD1D3F8004944F00054C3F8004900929D
:102C28000B8B0A780969FFF70DFF5AE7D3F80049BB
:102C380044F08054C3F80049F1E7CD682C44013CC6
:102C4800B4FBF5F4A4B204FB05F5CD61DCF8105033
:102C5800144E06EAC4442C43CCF81040DCF810406B
:102C6800CD69C5F312052C43CCF810402CE70A694E
:102C7800002A3FF42CAFCCF8142028E7D0F8082815
:102C880012F4807F06D1D3F8002B42F00052C3F82B
:102C9800002B20E7D3F8002B42F08052C3F8002B1A
:102CA80019E700BF0000F81F00B583B08446084646
:102CB8004FEA920E02F00302002305E00CF5805162
:102CC800096840F8041B01337345F7D39AB10CF532
:102CD800805CDCF8003001934FF0000C5FFA8CF355
:102CE800D900019BCB4000F8013B0CF1010C013AE3
:102CF80092B2002AF2D103B05DF804FB0B784A784F
:102D0800012A14D000EB4310D0F8002B002A06DB70
:102D18002BB1D0F8003B23F08043C0F8003BD0F83B
:102D2800003B43F40013C0F8003B0020704700EB61
:102D38004310D0F80029002A06DB2BB1D0F800395F
:102D480023F08043C0F80039D0F8003943F4001369
:102D5800C0F80039E9E70B784A78012A0ED000EB71
:102D68004310D0F8003B23F40013C0F8003B0B7964
:102D7800023BDBB2012B15D90020704700EB431052
:102D8800D0F8003923F40013C0F800390B79023B5E
:102D9800DBB2012BF0D8D0F8003943F08053C0F8EB
:102DA8000039E9E7D0F8003B43F08053C0F8003B16
:102DB800E2E7D0F8003823F4FE63C0F80038D0F812
:102DC8000038090101F4FE611943C0F80018002019
:102DD8007047D0F8003E23F00303C0F8003ED0F857
:102DE800043823F00203C0F8043800207047D0F8F4
:102DF800003E23F00303C0F8003ED0F8043843F047
:102E08000203C0F804380020704742698069104006
:102E18007047D0F8183800F50060C0691840000CF9
:102E28007047D0F8183800F50060C069184080B2C3
:102E3800704700EB4111D1F8082B00F5006040699C
:102E48001040704710B4D0F81048D0F8343801F06A
:102E58000F02D340DB01DBB2234300EB411000F546
:102E680010608068184010BC7047406900F001008D
:102E7800704738B50546C36823F0C043C3600129CD
:102E880013D019BBC36843F08043C36000240120FA
:102E9800FDF724FD01342846FFF7E7FF08B1312C80
:102EA800F5D9322C14D0002038BDC36843F0005344
:102EB800C36000240120FDF711FD01342846FFF707
:102EC800D4FF0128EDD0312CF4D9EAE70120EBE753
:102ED8000120E9E7D0F8003923F4FF6323F0070362
:102EE800C0F80039D0F8043843F48073C0F80438C7
:102EF8000020704710B4046C144B9C4203D9D0F8DE
:102F0800003B002B16DB0024C0F8104BD0F8104B08
:102F180044F40024C0F8104BD0F8104B44F01804C7
:102F2800C0F8104BD0F8104B44F0C044C0F8104B18
:102F3800012902D0002010BC7047C0F8142BD0F82B
:102F4800003B43F08023C0F8003BF3E70A30544FBE
:102F5800D0F8D432B03350F82330002018757047B9
:102F680008B5D0F8D43203F1B00250F822204AB1A3
:102F7800B03300EB83004368DB68517810789847DA
:102F8800002008BD0320FCE710B5D0F8D43203F1C7
:102F9800B00250F822407CB12269012A01D00020F9
:102FA80010BDB03300EB83004368DB68617820789C
:102FB800984700202061F3E70320F1E70A23038004
:102FC800004870477C00002070B505460D4E8121F1
:102FD800304600F070FB04460121304600F06BFBE0
:102FE8002CB102222271002262710522A27128B13D
:102FF80002220271002242710522827129232B804C
:10300800004870BD4400002070B505460D4E812172
:10301800304600F050FB04460121304600F04BFBDF
:103028002CB102222271002262710522A27128B1FC
:1030380002220271002242710522827129232B800B
:10304800004870BD4400002070B505460D4E812132
:10305800304600F030FB04460121304600F02BFBDF
:103068002CB102222271002262710522A27128B1BC
:1030780002220271002242710522827129232B80CB
:10308800004870BD4400002070B582B0D0F8D4521A
:1030980005F1B00350F823300022ADF80620002BCC
:1030A80000F092800C7814F0600432D0202C40F0AC
:1030B80085804A78023A092A27D8DFE802F01409FD
:1030C80026262626261B0F058A785A60002478E0D3
:1030D8000122191D00F0A0FE002472E04A88120A9D
:1030E8009A6000246DE0012203F1080100F094FECB
:1030F800002466E001221A61CA88022A28BF022237
:10310800194600F09EFE00245BE000F011FB03244A
:1031180057E04E780B2E4DD8DFE806F006534C4C9E
:103128004C4C164C4C4C314090F89C32DBB2032B83
:1031380003D000F0FDFA032443E002220DF106015A
:1031480000F06AFE34463CE04B881B0A222B06D06E
:10315800212B0ED000210A4600F05EFE31E0CA881D
:10316800022A28BF0222B03500EB85056B68196872
:10317800F2E7CA88092A28BF09221449ECE790F81F
:103188009C22D2B2032A03D000F0D2FA032418E01A
:10319800012203F10C0100F03FFE12E090F89C229E
:1031A800D2B2032A02D18A78DA600AE000F0C0FAC3
:1031B800032406E000F0BCFA032402E000F0B8FAA9
:1031C8000324204602B070BD0324FAE770000020F3
:1031D80038B50446812101F057F800252587658711
:1031E8000121204601F050F8A4F87851A4F87A514A
:1031F800D4F8D43203F1B00254F822209AB1B03393
:1032080004EB83035B689B689847D4F8D432B033E7
:1032180054F8230001F01AF8D4F8D432B03344F843
:103228002350C4F8BC52002038BDF8B50446182015
:1032380001F008F878B30646D4F8D432B03344F82D
:103248002300C4F8BC02237C6BBB05236387A4F866
:103258007A31022303228121204601F00AF801274E
:103268002787022303223946204601F002F8A4F8F2
:10327800787100253575D4F8D432B03304EB830364
:103288005B685B689847022332463946204601F05E
:1032980023F82846F8BDD4F8D432B033002244F8D5
:1032A80023200220F6E705236387A4F87A31D0E7C4
:1032B80008B5D0F8D432B03350F823202AB102230D
:1032C800012101F009F8002008BD0320FCE739B10D
:1032D800D0F8D432B03300EB83004160002070474F
:1032E8000320704798B108B503460020C3F8B80218
:1032F800C3F8C402C3F8D00209B1C3F8B41201215B
:1033080083F89C121A70184600F050FF08BD03207D
:10331800704710B582B00023ADF8063089B1044675
:10332800C0F8B812CB6A23B10DF106009847C4F86B
:10333800D002D4F8D8320133C4F8D832002002B011
:1033480010BD0320FBE708B500F08BFF08BD08B5EA
:10335800D0F8B83213B11B68984708BD0020FCE7C5
:1033680008B5D0F8B8325B68984700B908BD0320A3
:10337800FCE738B5044600F2AA25284600F0C4F94F
:103388000123C4F89432B4F8B032C4F8983294F8EF
:10339800AA1201F01F03012B0DD0022B10D02BB164
:1033A80001F08001204600F077FF03E0294620461F
:1033B80000F080FB38BD2946204600F0B6FBF9E74F
:1033C8002946204600F0F3FBF4E7F8B5044601234C
:1033D80080F89C320023C0F894324360C0F8A432CD
:1033E80080F8A032D0F8B832DBB15B68DBB10021DD
:1033F80098470746C8B9402300221146204600F0E6
:1034080038FF0126A4F864614025C4F860512B46B2
:1034180000228021204600F02CFFA6842562384631
:10342800F8BD0027E7E70027E5E70327E3E701748E
:103438000020704790F89C32DBB280F89D3204235C
:1034480080F89C320020704790F89C32DBB2042B45
:1034580001D00020704790F89D32DBB280F89C3292
:10346800F7E708B590F89C32DBB2032B01D00020B7
:1034780008BDD0F8B832002BF9D0DB69002BF6D0A4
:103488009847F4E708B5D0F8D432AE3350F8232083
:103498005AB190F89C32DBB2032B01D0002008BD52
:1034A800136A23B198470020F9E70320F7E70020C3
:1034B800F5E708B5D0F8D432AE3350F823205AB126
:1034C80090F89C32DBB2032B01D0002008BD536A70
:1034D80023B198470020F9E70320F7E70020F5E734
:1034E8000020704708B5012380F89C32D0F8B83224
:1034F80023B15B680179984710B908BD0020FCE743
:103508000320FAE7002070470020704738B50446CA
:103518000D46002943D11346D0F89422032A01D03E
:10352800084638BDD0F85C11D0F86021914212D815
:1035380090F8AA3203F01F03012B17D0022B1CD0DE
:10354800284694F89C32DBB2032B1BD0204600F0AF
:103558008FFC2846E5E7891AC0F85C118A4228BF23
:103568000A46194600F07CFC2846DAE790F8AE12C5
:10357800FFF7C8FF0028E9D1E3E790F8AE12FFF79C
:10358800C3FFF7E700F1AE0354F823301A69002AA5
:10359800DCD0C4F8D4021B6920469847D6E701F06E
:1035A8007F01FFF7B1FF90B994F89C32DBB2032B8F
:1035B800B7D100F1AE0354F823309A69002AB0D08D
:1035C800C4F8D4029B69294620469847A9E70020F9
:1035D800A7E738B504460D4600294BD11346D0F865
:1035E8009422022A07D094F8A00218B1002384F884
:1035F800A032284638BDC269016A8A420ED88A427A
:1036080018D094F89C32DBB2032B27D080212046B7
:1036180000F042FE204600F036FCE4E7521AC26190
:10362800194600F006FC00231A461946204600F009
:1036380053FED8E783699942E3D8D0F89822934299
:10364800DFD20022114600F0F4FB0021C4F89812E2
:103658000B460A46204600F03FFEC4E7D4F8B832CD
:10366800DA68002AD2D00022C4F8D422DB682046C7
:103678009847CBE741F08001FFF746FF90B994F8EF
:103688009C32DBB2032BB5D100F1AE0354F82330E2
:103698005A69002AAED0C4F8D4025B69294620468C
:1036A8009847A7E70020A5E703780A8813440B800A
:1036B800037818447047428803789A4218D930B57D
:1036C80083B004460D46ADF806306288BDF8063072
:1036D8009A420AD90DF10601FFF7E6FF4378052B58
:1036E800F3D18378AB42F0D100E0002003B030BDC5
:1036F800002070470346002002E00130C0B20133C9
:103708001A78002AF9D170470B7803704B78437008
:103718008B78CA7843EA022343800B794A7943EAD3
:10372800022383808B79CA7943EA0223C3807047D6
:1037380010B50446802100F0AFFD0021204600F0BE
:10374800ABFD10BD30B583B004460D460023ADF87F
:1037580006304A88130A013B062B00F2AB80DFE8EB
:1037680003F0041F33A9A98D9A00D0F8B4321B685E
:103778000DF10601007C9847EA88002A00F0A38032
:10378800BDF80630002B00F099809A4228BF1A46EF
:10379800ADF806200146204600F03EFB03B030BDE0
:1037A800037C43B9D0F8B8329B6A0DF106009847FC
:1037B80002234370E0E7D0F8B832DB6A0DF1060067
:1037C800984702234370D7E7D2B2052A52D8DFE8D8
:1037D80002F003101D2A3744D0F8B4325B6823B1D5
:1037E8000DF10601007C9847C6E72946FFF7A0FFC0
:1037F800D4E7D0F8B4329B6823B10DF10601007C00
:103808009847B9E72946FFF793FFC7E7D0F8B432DE
:10381800DB6823B10DF10601007C9847ACE7294627
:10382800FFF786FFBAE7D0F8B4321B6923B10DF170
:103838000601007C98479FE72946FFF779FFADE727
:10384800D0F8B4325B6923B10DF10601007C9847CA
:1038580092E72946FFF76CFFA0E7D0F8B4329B69DE
:1038680023B10DF10601007C984785E72946FFF74B
:103878005FFF93E72946FFF75BFF8FE7037C33B9C8
:10388800D0F8B8325B6B0DF10600984774E729460B
:10389800FFF74EFF82E7037C43B9D0F8B8321B6BC1
:1038A8000DF1060098470723437065E72946FFF79F
:1038B8003FFF73E72946FFF73BFF6FE7294620469E
:1038C800FFF736FF6AE7204600F0D2FA66E738B518
:1038D80004468B88FBB9CB88EBB94B887F2B1AD869
:1038E80003F07F0590F89C32DBB2032B0CD080F8F4
:1038F8009E52294600F0E0FC204600F0B9FA35B1A6
:10390800022384F89C3209E0FFF712FF06E0012346
:1039180084F89C3202E02046FFF70AFF38BD000019
:1039280070B504460E468D782F4B1D70012D10D8AA
:1039380090F89C32DBB2022B0FD0032B26D0FFF776
:10394800F7FE294B19782046FFF70AFD032528467C
:1039580070BDFFF7EDFE0325F9E7A5B145602946DF
:10396800FFF7F5FC054638B131462046FFF7E0FE83
:10397800022384F89C32EAE7204600F079FA032310
:1039880084F89C32E3E700F073FAE0E7CDB14168D0
:103998008D4225D0C9B2FFF7E3FC134B197861605B
:1039A8002046FFF7D4FC0546B0B131462046FFF764
:1039B800BFFE21792046FFF7D3FC022384F89C320E
:1039C800C5E7022380F89C3245602946FFF7C8FC0A
:1039D800204600F04DFABAE7204600F049FAB6E76B
:1039E80000F046FA0025B2E79809002008B5CB8810
:1039F800012B0BD190F89C32DBB2022B09D9032B97
:103A080009D10122011D00F007FA01E0FFF790FE3D
:103A180008BD5BB213B9FFF78BFEF9E70146002337
:103A280041F8083F012200F0F7F9F1E708B590F8EE
:103A38009C32013B022B12D8CB88022B0CD10123DC
:103A4800C360D0F8A4320BB10323C360022200F193
:103A58000C0100F0E1F908BDFFF76AFEFBE7FFF78C
:103A680067FEF8E708B54B88012B04D0022B07D076
:103A7800FFF75EFE08BDC0F8A43200F0F9F9F9E7D7
:103A88008B881B0A80F8A03200F0F2F9F2E708B53B
:103A980090F89C32013B022B09D84B88012B00D0AF
:103AA80008BD0023C0F8A43200F0E2F9F8E7FFF7F8
:103AB8003FFEF5E738B50C7804F06004202C06D0FA
:103AC800402C04D06CB1FFF733FE002407E0D0F897
:103AD800D432AE3350F823309B68984704462046CA
:103AE80038BD4D78092D1DD8DFE805F012191C16D0
:103AF8001C08051C0F0BFFF725FEF0E7FFF7E7FE94
:103B0800EDE7FFF70DFF0446E9E7FFF76FFFE6E78C
:103B1800FFF78CFF2C46E2E7FFF7A4FFDFE7FFF78C
:103B2800B6FFDCE7FFF704FED9E770B505460C469B
:103B38000B7803F06003202B07D0402B05D023B16E
:103B4800FFF7F6FD0026304670BD95F89C32013B24
:103B5800022B26D82179012905D921462846FFF7C5
:103B6800E7FD0026EFE72846FFF7CCFC68B900F12F
:103B7800AE0255F82220916889B1C5F8D40293683D
:103B8800214628469847064600E00326E388002B8E
:103B9800D9D1002ED7D1284600F06AF9D3E70326F9
:103BA800F4E721462846FFF7C3FD0026CBE72DE9B9
:103BB800F04106460D468B88DFB20C7804F06004AD
:103BC800202C08D0402C06D0DCB1FFF7B1FD002432
:103BD8002046BDE8F08139463046FFF795FC04469B
:103BE800002840F0F880C6F8D40200F1AE0356F879
:103BF80023309B68002BEBD0294630469847044673
:103C0800E6E791F80180B8F1010F31D0B8F1030F60
:103C180005D0B8F1000F67D0FFF78AFDD8E790F814
:103C28009C32DBB2022B04D0032B12D0FFF780FDAD
:103C3800CEE70FB1802F04D129463046FFF778FD33
:103C4800C6E7394600F028FB8021304600F024FB07
:103C5800BEE74B8823B91FB1802F01D0CB881BB199
:103C6800304600F005F9B3E7394600F015FBF7E7F1
:103C780090F89C32DBB2022B04D0032B12D0FFF752
:103C880057FDA5E70FB1802F04D129463046FFF72D
:103C98004FFD9DE7394600F0FFFA8021304600F0DD
:103CA800FBFA95E74B88002B92D117F07F0F17D1BD
:103CB800304600F0DDF839463046FFF725FC00288D
:103CC80086D1C6F8D40200F1AE0256F822209268D6
:103CD800002A00F08280294630469047044677E75C
:103CE800394600F0E1FAE3E790F89C22D2B2022AC2
:103CF80005D0032A27D0FFF71BFD444668E70FB11C
:103D0800802F13D113F0800F14D107F07F0707EB32
:103D18008707B90001F5A8713144043100230B600D
:103D28000222304600F078F8444651E7FFF700FDDC
:103D380044464DE707F07F0707EB8707B9001031C6
:103D480031440431EAE75BB2002B1FDB07F00F02B6
:103D580002EB820200EB8202B2F864211AB3002B54
:103D680025DB07F07F0303EB83039C0004F5A874AD
:103D7800344404340FB1802F22D10023236002225F
:103D88002146304600F048F8444621E707F00F0284
:103D980002EB820200EB8202928C002ADFD1FFF74D
:103DA800C7FC444614E7FFF7C3FC444610E707F096
:103DB8007F0303EB83039C00103434440434D9E7B5
:103DC8003946304600F026FA10B101232360D6E7C1
:103DD80000232360D3E70024FAE60446F8E6D0B1CE
:103DE80070B50D4616460446FFF784FC431C5B007D
:103DF8009BB233802B7003236B70022307E0EA54D5
:103E080001345A1CD2B20021A9540233DBB2227801
:103E1800002AF4D170BD704708B513460222C0F8D5
:103E280094228361C3610A46002100F04DFA002004
:103E380008BD08B513460A46002100F045FA0020DF
:103E480008BD08B513460322C0F89422C0F85831BB
:103E5800C0F85C310A46002100F03EFA002008BD97
:103E680008B513460A46002100F036FA002008BDBE
:103E780008B50422C0F8942200231A46194600F017
:103E880023FA002008BD08B50522C0F894220023B3
:103E98001A46194600F020FA002008BD08B500228D
:103EA8000F491048FFF71EFA70B90F490D48FFF780
:103EB80030FA60B90D490B48FFF709FA50B90948BB
:103EC800FFF741FA48B908BDFCF718FBEDE7FCF726
:103ED80015FBEFE7FCF712FBF1E7FCF70FFBF2E746
:103EE8009C0000209C0900200C0000208C00002071
:103EF800002070470020704708B50448FFF7D8F93C
:103F080000B908BD4FF0FF30FBE700BF9C09002057
:103F180012230B8000487047B800002004230B8050
:103F280000487047CC000020002393421ED200B501
:103F380010E00CF1370C01F813C000014FEA430CF4
:103F48000CF1010C4FF0000E01F80CE00133DBB26C
:103F5800934209D24FEA107CB0F1204FE9D20CF11C
:103F6800300C01F813C0E8E75DF804FB7047000067
:103F780038B50B4BD3F8100AD3F8144AD3F8183ACB
:103F8800C01800D138BD074D0822A91CFFF7CCFF87
:103F9800042205F112012046FFF7C6FFF2E700BF31
:103FA8000070FF1FD000002008B51A230B80FFF710
:103FB800DFFF014808BD00BFD000002008B50A4651
:103FC80028B905490548FFF70AFF034808BD024913
:103FD8000248FFF704FFF8E7780C0020885400082F
:103FE80010B50A46034C21460348FFF7F8FE204661
:103FF80010BD00BF780C0020A854000808B50A4678
:1040080028B905490548FFF7EAFE034808BD0249F3
:104018000248FFF7E4FEF8E7780C0020BC540008DB
:1040280008B50A4628B905490548FFF7D8FE0348E8
:1040380008BD02490248FFF7D2FEF8E7780C0020D5
:10404800D054000830B589B0002303930493059336
:10405800069307930368B3F1A04F01D009B030BDB0
:1040680000250195164C236B43F001032363236B52
:1040780003F001030193019B4FF4C0530393022300
:104088000493032306930A23079303A90D48FCF717
:10409800A5FC636B43F0800363630295636C43F490
:1040A80080436364636C03F480430293029B2A4653
:1040B80029464320FCF738FC4320FCF76DFCCDE78C
:1040C800003802400000024008B500F2C441D0F8B0
:1040D8000805FFF74EF908BD08B501EBC10300EB71
:1040E8008303D3F88C22D0F80805FFF70FFA08BD30
:1040F80008B501EBC10300EB8303DA6CD0F80805BF
:10410800FFF767FA08BD08B5D0F80805FFF7A9F961
:1041180008BD10B50446C3683BB1022B01D101218B
:1041280004E0FCF7EBF9012100E00021D4F80805D0
:10413800FFF77DF9D4F80805FFF747F910BD00002F
:1041480010B50446D0F80805FFF774F92268D2F8CC
:10415800003E43F00103C2F8003E236A23B1034A3C
:10416800136943F00603136110BD00BF00ED00E0C2
:1041780008B5D0F80805FFF767F908BD08B5D0F805
:104188000805FFF796F908BD08B5D0F80805FFF748
:1041980079F908BD08B5D0F80805FFF7A1F908BDF9
:1041A80008B5D0F80805FFF79DF908BD02780AB1EF
:1041B8000020704710B503461548C0F80835C3F805
:1041C800C8024FF0A0430360042343600222C26088
:1041D800002303618261C36103624362C3620363B4
:1041E800FCF756FD80B90A4C80212046FDF742FBBA
:1041F800402200212046FDF718FB8022012120469D
:10420800FDF713FB002010BDFCF778F9EBE700BFC2
:10421800780E0020D0F8C83211F0800F08D101F0D4
:104228007F0101EBC10103EB810191F87E02704728
:1042380001F07F0101EBC10103EB810191F83E0020
:104248007047000000487047841300207047032817
:1042580005D8DFE800F005040205012070470320B7
:10426800704708B5D0F8C802FCF7A9FDFFF7EFFFC3
:1042780008BD08B594461A466346D0F8C802FCF74C
:104288007DFEFFF7E4FF08BD08B5D0F8C802FCF7CB
:10429800BAFEFFF7DCFF08BD08B5D0F8C802FCF786
:1042A80049FFFFF7D4FF08BD08B5D0F8C802FCF7EE
:1042B80085FFFFF7CCFF08BD08B5D0F8C802FCF7AA
:1042C80049FEFFF7C4FF08BD08B5D0F8C802FCF7DF
:1042D80002FFFFF7BCFF08BD08B5D0F8C802FCF71D
:1042E800CBFEFFF7B4FF08BD014B1868704700BF4D
:1042F800EC00002070B50D4E0D4D761BB61006D0A3
:10430800002455F8043B01349847A642F9D1094ED8
:10431800094D761B01F09CF8B61006D0002455F81C
:10432800043B01349847A642F9D170BDF454000803
:10433800F4540008FC540008F4540008830730B50E
:1043480048D0541E002A3FD0CAB2034601E0013CBF
:104358003AD303F8012B9D07F9D1032C2DD9CDB2FF
:1043680045EA05250F2C45EA054536D9A4F1100282
:1043780022F00F0C03F1200EE6444FEA121C03F161
:10438800100242E9045542E9025510327245F8D14B
:104398000CF1010214F00C0F03EB021204F00F0CE5
:1043A80013D0ACF1040323F003030433134442F89D
:1043B800045B9342FBD10CF003042CB1CAB21C4439
:1043C80003F8012B9C42FBD130BD64461346002CF8
:1043D800F4D1F9E703461446BFE71A46A446E0E7D6
:1043E8002DE9F043694CD4F8008083B004460E46AA
:1043F80017461D46B8F1000F03D0D8F83830002B07
:1044080077D0022F05D0012F00F2AC80002DC0F22A
:10441800A980636EDA0752D52146404600F058F964
:10442800216B41B104F14003994202D0404600F0AB
:104438007BFA00232363B4F90CC000231CF0800F1F
:10444800A361636064D12CF44A6C2CF0030C022F36
:10445800A4F80CC06AD001AB6A462146404600F079
:1044680095FBA3891843A081002D2FD0002E2ED0B4
:10447800D8F83830002B38D0009B2660AB42B4F90E
:104488000C301CBF43F40063A381012F04BF43F029
:104498000103A3819AB213F00803C4E904652CD080
:1044A800D1075DD56D42A561656E002315F0010544
:1044B800A36027D00025284603B0BDE8F083A38970
:1044C8009B05A9D4A06D00F05DFBA5E7009D2846DB
:1044D80000F08CFB0646002847D0A38943F08003F0
:1044E800A381D8F83830002BC6D1404600F024F913
:1044F800C2E7404600F020F983E7A360656E15F037
:104508000105D7D1930524D5284603B0BDE8F0832B
:104518002169404600F008FAB4F90CC02CF44A6C42
:104528002CF0030C022FA4F80CC094D10025002213
:1045380004F14303A2600122C4E904322360636EDC
:104548004CF0020CD807A4F80CC0DDD41CF4007F92
:10455800DAD1A06D00F018FB284603B0BDE8F0835F
:10456800A560CBE74FF0FF35CEE7DDF80090A94511
:1045780004D0484600F03AFB064620B9B4F90CC00E
:104588004FF0FF35D3E74D46A7E700BFEC0000200A
:10459800024B13B1024800F005B870470000000054
:1045A80065480008002301461A46184600F050BE28
:1045B800B1F90C20F8B50C461107074642D46368D8
:1045C80042F40062002BA28159DDA56A002D54D067
:1045D80000233E683B6093B212F4805253D1E169E4
:1045E80001233846A847421C63D0A389A56A5B0704
:1045F80005D56368C01A236B0BB1E36BC01AE16978
:10460800024600233846A847411C3ED13B68002B90
:104618003BD01D2B01D0162B52D1A38922692260D1
:1046280023F4006300216160A381216B3E6021B304
:1046380004F14003994202D0384600F075F9002091
:104648002063F8BD2669C6B193B2256826609A072B
:104658000CBF63690023AD1BA3600CE0D4F824C031
:10466800E1692B4632463846E047B0F1000CA5EB2D
:104678000C05664416DD002DF0DC0020F8BDE36B68
:10468800002BA2DCF9E7206DB1E7B4F90C30226900
:10469800226023F40063A3810022DB046260C4D596
:1046A8002065C2E7A38943F040034FF0FF30A381A0
:1046B800F8BD3B68002B98D01D2B06D0162B04D0D4
:1046C800A38943F04003A381F8BD3E60D5E700BF4E
:1046D80038B50C46054608B1836BA3B1B4F90C0094
:1046E800B8B1636EDB0701D4810515D5284621468C
:1046F800FFF75EFF636EDA07054602D4A3899B05C0
:104708000ED5284638BD00F017F8B4F90C0000287B
:10471800E7D10546284638BDA06D00F033FAE5E735
:10472800A06D00F031FA284638BD00BF014900F0FD
:1047380001BA00BF095300082DE9F04782463948FD
:1047480000F020FADAF83840002C66D1DAF8045084
:10475800354ACAF83C200323CAE9B843DFF8CC90AD
:10476800DFF8CC80334F344E04230AF53B72CAF885
:10477800E8222146C5E90243C5E90044C5E90444E5
:104788006C660822AC6105F15C00FFF7D7FDC5E94E
:104798000759C5E90987EE6205F1580000F0EEF9FE
:1047A800DAF80850254BEB602146C5E90044C5E915
:1047B80004446C66AC60AC61082205F15C00FFF74C
:1047C800BDFDC5E90759C5E90987EE6205F158003D
:1047D80000F0D4F9DAF80C50194BEB602146C5E922
:1047E8000044C5E904446C66AC60AC61082205F17C
:1047F8005C00FFF7A3FD05F15800C5E90759C5E9B5
:104808000A76C5F8248000F0B9F90123CAF83830CF
:104818000448BDE8F04700F0B7B9BDE8F0470148E3
:1048280000F0B2B9AC13002035470008A1510008C8
:10483800C55100080552000825520008090001006A
:1048480012000200014800F09DB900BFA813002023
:10485800014800F099B900BFA813002038B5084BEB
:10486800084D5B1B9C1007D0043B1D44013C55F8C8
:1048780004399847002CF9D1BDE8384000F0EEBD66
:1048880000550008FC540008F8B5244F0C460646AD
:1048980000F064FCBA685568C4F57E630F3325F0F0
:1048A80003052B4423F47F6323F00F03A3F58054FF
:1048B800B4F5805F07DB0021304600F05BFCBB6885
:1048C8002B44984204D0304600F04EFC0020F8BD3E
:1048D8006142304600F04EFC01300DD0104ABB68F2
:1048E8002D1B45F001055D60136830461B1B1360E6
:1048F80000F03AFC0120F8BD0021304600F03AFCF7
:10490800BA68831A0F2BDEDD43F001035360054BB1
:1049180003491B68C01A0860D5E700BF1C050020C2
:10492800B013002024090020002961D0F8B50C46F6
:10493800064600F013FC54F8042C7B4FA4F108053C
:1049480022F0010105EB010CB868DCF80430604581
:1049580023F0030300F08B80D207CCF8043032D464
:1049680054F8082CAD1A1144AA6807F108008242CD
:104978006AD00CEB0304D4F804E0EC68D4601EF0B1
:10498800010FA26000F0978041F001036B60CCF842
:104998000010B1F5007F35D27A68CB0848090121AB
:1049A800013381401143796007EBC30257F8331094
:1049B800083AC5E9021247F83350CD603046BDE8E1
:1049C800F84000F0D1BB0CEB03025268D00710D4BA
:1049D800194407F10800DCF80830834273D0DCF88A
:1049E8000C20DA60936041F001036B606950D0E7F6
:1049F800704741F00103B1F5007F44F8043CCCF85E
:104A08000010C9D3B1F5206F4FEA512348D28B0962
:104A180003F1390003F13802C300F818FB580838CD
:104A2800984259D05A6822F003028A4202D99B68F8
:104A38009842F7D1D868C5E902308560DD60304614
:104A4800BDE8F84000F090BB0CEB03025268D207B7
:104A580063D40B44DCE90212CA60916043F001029E
:104A68006A603046EB50BDE8F84000F07DBB0B446F
:104A7800D10707D454F8082CAD1A1344D5E902120B
:104A8800CA60916043F001026A60284ABD601268FA
:104A98009A4293D8264B30461968FFF7F5FE8DE702
:104AA800142B0AD9542B1FD80B0B03F16F0003F1F9
:104AB8006E02C300B1E719448DE703F15C0003F10E
:104AC8005B02C300A9E741F00103C7E90455C5E942
:104AD80002006B60695071E779689210012404FA4A
:104AE80002F20A437A60A6E7B3F5AA7F06D8CB0B91
:104AF80003F1780003F17702C3008EE740F25452C5
:104B0800934206D88B0C03F17D0003F17C02C300AD
:104B180083E74FF47E737E227FE741F001036B60E9
:104B2800CCF800104AE700BF1C0500202809002027
:104B3800E01300202DE9F8430746884600F538764B
:104B48004FF00009D6E90154013D11D4A389012B86
:104B580005F1FF3508D9B4F90E300133214603D0E9
:104B68003846C04749EA00096B1C04F16804EDD1D6
:104B78003668002EE6D14846BDE8F883704700BF86
:104B8800704700BF704700BF704700BF70B50C4644
:104B9800B1F90E10002996B015461E4614DB6A4678
:104BA80000F014FC00280FDB019A02F47042A2F511
:104BB8000052B2FA82F24FF4806352094FF4006057
:104BC80032602B6016B070BDB4F90C10002311F0E0
:104BD8008000336004D0402218462A6016B070BDA9
:104BE8004FF480632B6016B070BD00BF024B0146C6
:104BF800186800F003B800BFEC0000202DE9F04F62
:104C080001F10B06162E83B0044624D8102900F2B1
:104C1800BA8000F0A3FA102618220220B54F3A44B1
:104C2800A2F1080153688B4200F0BA805A68D9682B
:104C380022F003021A449D68E9608D60516841F0D2
:104C480001012046516003F1080500F08DFA28465D
:104C580003B0BDE8F08F36F0070600F19480B1424A
:104C680000F2918000F07AFAB6F5FC7FC0F09A81E4
:104C7800730A00F08F80042B00F26F81B30903F1EF
:104C8800390003F1380CC3009A4F3B44A3F10805DF
:104C98005B689D4206D10CE0002980F22781DB6821
:104CA8009D4206D05A6822F00302911B0F29F3DDBA
:104CB80060463D69DFF840C265457CD06A6822F0ED
:104CC8000302931B0F2B00F37B81002BC7E904CC55
:104CD80080F26C81B2F5007F80F01A81D308796880
:104CE80001334FEA521E012202FA0EF20A4357F824
:104CF80033E0C5F808E007EBC3010839E9607A60DA
:104D080047F83350CEF80C50831001219940914256
:104D180057D8114206D120F003004900114200F192
:104D28000400FAD007EBC0094D468646D5F80C803A
:104D3800454508D11DE1002B80F22481D8F80C806C
:104D4800454500F01681D8F8042022F00302931B91
:104D58000F2BF0DD2046D8E9025408EB060146F097
:104D68000106C8F80460EC60A56043F00104C7E9D7
:104D78000411C1E902CC4C6048F8023000F0F4F9A3
:104D880008F1080502E00C2323600025284603B03B
:104D9800BDE8F08F4FF4007340204FF03F0C73E7ED
:104DA800D3689A4208BF02307FF440AF3D69DFF80C
:104DB80048C1654582D17A688310012199409142A2
:104DC800A7D9BD686B6823F003094E4503D8A9EB42
:104DD80006030F2B7ADCDFF824B1494BDBF80020FF
:104DE8001B680132334405EB090A00F0338103F5EF
:104DF80080530F3323F47F6828F00F08414620467C
:104E080000F0B8F9411C024600F0F380824500F238
:104E1800EE803C4B196841441960084600F04E8109
:104E2800DBF80010019301311BBFA2EB0A0A5044C2
:104E3800CBF80020186012F0070B00F01781CBF1B7
:104E480008010A44CBF5805190440831A1EB0801D0
:104E5800C1F30B0A51462046009200F08BF9421C20
:104E6800DDE9002300F04F81801A00EB0A08196879
:104E7800BA6048F001005144BD425060196000F02A
:104E88002981B9F10F0F40F227816868A9F10C0C4C
:104E98002CF0070C00F0010040EA0C0068604FF0AD
:104EA800050E05EB0C00BCF10F0FC0E901EE00F296
:104EB800328150681546144B1A688A4238BF196007
:104EC800124B1A688A4238BF196094E0AA1943F055
:104ED800010346F001066E602046BA60536000F098
:104EE80043F90835284603B0BDE8F08FD9681A445D
:104EF800A1E600BF1C05002024050020240900208D
:104F0800E0130020B0130020D8130020DC13002089
:104F1800B2F5206F4FEA522363D3142B00F2B78007
:104F280003F15C01C9005B3307EB010E7958AEF160
:104F3800080E8E4500F091804B6823F003039342DE
:104F480002D989688E45F7D1D1F80CE07A68C5E9AD
:104F5800021ECEF80850CD60D6E6142B59D9542B32
:104F680000F29D80330B03F16F0003F16E0CC30058
:104F78008AE60EF1010E1EF0030F05F108057FF415
:104F8800D5AE51E0424445465368D8F80C1043F07A
:104F98000103536055F8083F2046D9608B6000F044
:104FA800E3F8F3E6F00806F1080237E62A4420465B
:104FB800536843F001035360083500F0D5F8E5E67F
:104FC800A919204646F0010643F001046E60C7E9BE
:104FD8000411C1E902CC4C60AB5000F0C5F80835AB
:104FE800D4E6930903F13901C90038339CE7BD427F
:104FF8005FD0BD68686820F003084645A8EB060343
:1050080002D80F2B3FF762AF204600F0ADF800251D
:10501800BCE603F15C0003F15B0CC30034E659F80D
:1050280008394B4540F0968010F0030F00F1FF302F
:10503800F5D17B6823EA01037B60490099423FF67A
:10504800C0AE19B9BDE649000EF1040E1942FAD0F6
:10505800704667E603F11008D0E69A104FF0010891
:105068007B6808FA02F21A437A6070E702EB0801DB
:105078004942C1F30B0A51462046009200F07AF8E3
:10508800431CDDE900237FF4EFAEDA46EFE6542B4C
:1050980025D8130B03F16F01C9006E3344E7B3F54C
:1050A800AA7F25D8F30B03F1780003F1770CC3002E
:1050B800EAE5294B186840441860B1E6CAF30B0CBE
:1050C800BCF1000F7FF4ACAEBD68C84448F00100E5
:1050D8006860F0E61546EEE60123536094E7B3F501
:1050E800AA7F23D8D30B03F17801C90077331BE7D4
:1050F80040F25452934223D8B30C03F17D0003F1DC
:105108007C0CC300C0E5ABF1080BD844A8EB02083F
:105118004FF0000AABE605F1080120460093FFF7BF
:1051280003FCBD68009B68681968C4E640F25451E6
:105138008B420BD8930C03F17D01C9007C33F3E655
:105148004FF47E737F204FF07E0C9DE54FF47E7107
:105158007E23E9E67B6870E7B01300200148FFF77B
:1051680011BD00BFA41300200148FFF70DBD00BF0B
:10517800A413002038B5074D0022044608462A60CB
:10518800FBF7B6FA431C00D038BD2B68002BFBD0C8
:10519800236038BDE413002010B50C46B1F90E1099
:1051A80000F040F9002803DB236D0344236510BD9C
:1051B800A38923F48053A38110BD00BF2DE9F041DA
:1051C8000C46B1F90C101F46CB05054616460BD404
:1051D80021F48051A1813B46B4F90E10324628468D
:1051E800BDE8F04100F01EB8B4F90E100223002209
:1051F80000F002F9B4F90C10EAE700BF10B50C464C
:10520800B1F90E1000F0F8F8A389421C0EBF23F480
:10521800805343F480532065A38110BDB1F90E106B
:1052280000F05CB838B50C46084D84461146204657
:105238001A4600232B606446FBF7D6F9431C00D0BE
:1052480038BD2B68002BFBD0236038BDE413002049
:105258002DE9F047DFF87CA00646DAF8000098460A
:105268000F469146FFF78EFC1B4B1B68D3F848414D
:1052780024B365681F2D26DC5EB96B1C0235DAF88D
:105288000000636044F82570FFF77EFC0020BDE84D
:10529800F08704EB85010123C1F88890D4F88821B0
:1052A800AB401A43022EC4F88821C1F80881E4D122
:1052B800D4F88C211343C4F88C31DEE703F5A674C7
:1052C800C3F84841D5E7DAF80000FFF75DFC4FF076
:1052D800FF30DCE718050020E854000838B5074D12
:1052E8000022044608462A60FBF798F9431C00D0C0
:1052F80038BD2B68002BFBD0236038BDE413002099
:1053080070B500294BD006460C4610B1836B002BB4
:1053180048D0636ED80734D5B4F90C30002B3ED092
:1053280021463046FFF744F9E36A054633B1E1699F
:10533800304698470028B8BF4FF0FF35A3891A06B2
:105348003BD4216B41B104F14003994202D030466D
:10535800FFF7EAFA00232363616C21B13046FFF7B7
:10536800E3FA00236364FFF76DFA636E0022DB073C
:10537800A28127D5A06DFFF703FCFFF769FA28463D
:1053880070BDA3899905CBD4A06DFFF7FBFBB4F9D9
:105398000C30002BC4D1656E15F0010508D000252E
:1053A800284670BDFFF7C8F9636ED807B4D4E8E79C
:1053B800A06DFFF7E9FB284670BD21693046FFF76D
:1053C800B3FABEE7A06DFFF7DFFBD3E770B50C4675
:1053D800084D03460026204611461C462E60FBF762
:1053E80049F9431C00D070BD2B68002BFBD023600B
:1053F80070BD00BFE413002038B50C46084D844644
:10540800114620461A4600232B606446FBF712F922
:10541800431C00D038BD2B68002BFBD0236038BD5F
:10542800E413002038B50C46084D84461146204642
:105438001A4600232B606446FBF704F9431C00D08E
:1054480038BD2B68002BFBD0236038BDE413002047
:10545800F8B500BFF8BC08BC9E467047F8B500BF59
:08546800F8BC08BC9E46704729
:105470000000000000000000010203040607080904
:10548000000000000102030453544D3332204375E1
:1054900073746F6D2048756D616E20696E746572EE
:1054A000666163650000000053544D6963726F6567
:1054B0006C656374726F6E69637300004375737417
:1054C0006F6D2048494420436F6E66696700000095
:1054D000437573746F6D2048494420496E7465723A
:0C54E0006661636500000000F000002021
:0854EC000CADFF7F0100000080
:0854F40099450008AD01000814
:0454FC00890100081A
:105500000024F40001000000100000003332000805
:10551000D93100089130000800000000912F0008E8
:10552000592F0008692F000800000000000000004B
:10553000000000005130000811300008D12F000891
:10554000C52F000809022900010100C0320904002A
:1055500000020300000009211101000122020007DE
:105560000581030200050705010302000500000094
:105570000921110100012202000000000A060002B8
:10558000000000400100000000C000008800002072
:10559000F93E0008FD3E0008013F0008193F0008E1
:1055A000253F0008E93F0008C53F0008B13F00085B
:1055B00005400008294000081201000200000040D8
:1055C0008304505700020102030100000403090490
:1055D0001A030000000000000000000000000000AE
:1055E000000000000000000000000000F0000020AB
:1055F00000000000DC03002044040020AC04002074
:10560000000000000000000000000000000000009A
:10561000000000000000000000000000000000008A
:10562000000000000000000000000000000000007A
:10563000000000000000000000000000000000006A
:10564000000000000000000000000000000000005A
:10565000000000000000000000000000000000004A
:10566000000000000000000000000000000000003A
:10567000000000000000000000000000000000002A
:10568000000000000000000000000000000000001A
:105690000000000000000000010000000000000009
:1056A0000E33CDAB34126DE6ECDE05000B000000CE
:1056B00000000000000000000000000000000000EA
:1056C00000000000000000000000000000000000DA
:1056D00000000000000000000000000000000000CA
:1056E00000000000000000000000000000000000BA
:105A10000000000000000000A013002000000000B3
:105A2000000000001C0500201C05002024050020AB
:105A3000240500202C0500202C0500203405002022
:105A4000340500203C0500203C05002044050020D2
:105A5000440500204C0500204C0500205405002082
:105A6000540500205C0500205C0500206405002032
:105A7000640500206C0500206C05002074050020E2
:105A8000740500207C0500207C0500208405002092
:105A9000840500208C0500208C0500209405002042
:105AA000940500209C0500209C050020A4050020F2
:105AB000A4050020AC050020AC050020B4050020A2
:105AC000B4050020BC050020BC050020C405002052
:105AD000C4050020CC050020CC050020D405002002
:105AE000D4050020DC050020DC050020E4050020B2
:105AF000E4050020EC050020EC050020F405002062
:105B0000F4050020FC050020FC0500200406002010
:105B1000040600200C0600200C06002014060020BD
:105B2000140600201C0600201C060020240600206D
:105B3000240600202C0600202C060020340600201D
:105B4000340600203C0600203C06002044060020CD
:105B5000440600204C0600204C060020540600207D
:105B6000540600205C0600205C060020640600202D
:105B7000640600206C0600206C06002074060020DD
:105B8000740600207C0600207C060020840600208D
:105B9000840600208C0600208C060020940600203D
:105BA000940600209C0600209C060020A4060020ED
:105BB000A4060020AC060020AC060020B40600209D
:105BC000B4060020BC060020BC060020C40600204D
:105BD000C4060020CC060020CC060020D4060020FD
:105BE000D4060020DC060020DC060020E4060020AD
:105BF000E4060020EC060020EC060020F40600205D
:105C0000F4060020FC060020FC060020040700200B
:105C1000040700200C0700200C07002014070020B8
:105C2000140700201C0700201C0700202407002068
:105C3000240700202C0700202C0700203407002018
:105C4000340700203C0700203C07002044070020C8
:105C5000440700204C0700204C0700205407002078
:105C6000540700205C0700205C0700206407002028
:105C7000640700206C0700206C07002074070020D8
:105C8000740700207C0700207C0700208407002088
:105C9000840700208C0700208C0700209407002038
:105CA000940700209C0700209C070020A4070020E8
:105CB000A4070020AC070020AC070020B407002098
:105CC000B4070020BC070020BC070020C407002048
:105CD000C4070020CC070020CC070020D4070020F8
:105CE000D4070020DC070020DC070020E4070020A8
:105CF000E4070020EC070020EC070020F407002058
:105D0000F4070020FC070020FC0700200408002006
:105D1000040800200C0800200C08002014080020B3
:105D2000140800201C0800201C0800202408002063
:105D3000240800202C0800202C0800203408002013
:105D4000340800203C0800203C08002044080020C3
:105D5000440800204C0800204C0800205408002073
:105D6000540800205C0800205C0800206408002023
:105D7000640800206C0800206C08002074080020D3
:105D8000740800207C0800207C0800208408002083
:105D9000840800208C0800208C0800209408002033
:105DA000940800209C0800209C080020A4080020E3
:105DB000A4080020AC080020AC080020B408002093
:105DC000B4080020BC080020BC080020C408002043
:105DD000C4080020CC080020CC080020D4080020F3
:105DE000D4080020DC080020DC080020E4080020A3
