:020000040800F2
:1000000000000220AD0C00088D0B00088F0B0008CB
:10001000910B0008930B0008950B000800000000EE
:10002000000000000000000000000000E13A0008AD
:10003000970B000800000000813B0008E53B00082A
:10004000FD0C0008FD0C0008FD0C0008FD0C00086C
:10005000FD0C0008FD0C0008FD0C0008FD0C00085C
:10006000FD0C0008FD0C0008FD0C0008FD0C00084C
:10007000FD0C0008FD0C0008FD0C0008FD0C00083C
:10008000FD0C0008FD0C0008FD0C0008FD0C00082C
:10009000FD0C0008FD0C0008FD0C0008513700089D
:1000A000FD0C0008790B0008FD0C0008FD0C000891
:1000B000FD0C0008FD0C0008FD0C0008FD0C0008FC
:1000C000FD0C0008FD0C0008FD0C0008FD0C0008EC
:1000D000FD0C0008FD0C0008FD0C0008FD0C0008DC
:1000E000FD0C0008FD0C0008FD0C0008FD0C0008CC
:1000F000FD0C0008FD0C0008FD0C0008FD0C0008BC
:10010000FD0C0008FD0C0008FD0C0008FD0C0008AB
:10011000FD0C0008FD0C0008FD0C0008FD0C00089B
:10012000FD0C0008FD0C0008FD0C0008FD0C00088B
:10013000FD0C0008FD0C0008FD0C0008FD0C00087B
:10014000FD0C0008FD0C0008FD0C0008990B0008D0
:10015000FD0C0008FD0C0008FD0C0008FD0C00085B
:10016000FD0C0008FD0C0008FD0C0008FD0C00084B
:10017000FD0C0008FD0C0008FD0C0008000000004C
:08018000FD0C0008FD0C000855
:1001C00010B5054C237833B9044B13B10448AFF391
:1001D00000800123237010BD3409002000000000BE
:1001E000607F000808B5034B1BB103490348AFF318
:1001F000008008BD0000000038090020607F000872
:1002000053B94AB9002908BF00281CBF4FF0FF317D
:100210004FF0FF3000F074B9ADF1080C6DE904CE79
:1002200000F006F8DDF804E0DDE9022304B07047D1
:100230002DE9F047089D04468E46002B4DD18A4299
:10024000944669D9B2FA82F252B101FA02F3C2F1CC
:10025000200120FA01F10CFA02FC41EA030E94405D
:100260004FEA1C48210CBEFBF8F61FFA8CF708FB7E
:1002700016E341EA034306FB07F199420AD91CEB56
:10028000030306F1FF3080F01F81994240F21C8188
:10029000023E63445B1AA4B2B3FBF8F008FB1033D0
:1002A00044EA034400FB07F7A7420AD91CEB040405
:1002B00000F1FF3380F00A81A74240F207816444D5
:1002C000023840EA0640E41B00261DB1D44000235A
:1002D000C5E900433146BDE8F0878B4209D9002DBE
:1002E00000F0EF800026C5E9000130463146BDE848
:1002F000F087B3FA83F6002E4AD18B4202D38242B2
:1003000000F2F980841A61EB030301209E46002D60
:10031000E0D0C5E9004EDDE702B9FFDEB2FA82F2B5
:10032000002A40F09280A1EB0C014FEA1C471FFA13
:100330008CFE0126200CB1FBF7F307FB131140EAFA
:1003400001410EFB03F0884208D91CEB010103F1C7
:10035000FF3802D2884200F2CB804346091AA4B289
:10036000B1FBF7F007FB101144EA01440EFB00FE5D
:10037000A64508D91CEB040400F1FF3102D2A645C2
:1003800000F2BB800846A4EB0E0440EA03409CE761
:10039000C6F12007B34022FA07FC4CEA030C20FA0E
:1003A00007F401FA06F31C43F9404FEA1C4900FA2E
:1003B00006F3B1FBF9F8200C1FFA8CFE09FB1811AB
:1003C00040EA014108FB0EF0884202FA06F20BD91E
:1003D0001CEB010108F1FF3A80F08880884240F26E
:1003E0008580A8F102086144091AA4B2B1FBF9F0B2
:1003F00009FB101144EA014100FB0EFE8E4508D9AD
:100400001CEB010100F1FF346CD28E456AD9023831
:10041000614440EA0840A0FB0294A1EB0E01A14216
:10042000C846A64656D353D05DB1B3EB080261EB84
:100430000E0101FA07F722FA06F3F1401F43C5E95E
:10044000007100263146BDE8F087C2F12003D84094
:100450000CFA02FC21FA03F3914001434FEA1C47D6
:100460001FFA8CFEB3FBF7F007FB10360B0C43EAC8
:10047000064300FB0EF69E4204FA02F408D91CEB78
:10048000030300F1FF382FD29E422DD90238634476
:100490009B1B89B2B3FBF7F607FB163341EA034116
:1004A00006FB0EF38B4208D91CEB010106F1FF3865
:1004B00016D28B4214D9023E6144C91A46EA00465C
:1004C00038E72E46284605E70646E3E61846F8E6EE
:1004D0004B45A9D2B9EB020864EB0C0E0138A3E737
:1004E0004646EAE7204694E74046D1E7D0467BE718
:1004F000023B614432E7304609E76444023842E790
:10050000704700BF844641EA000313F003036DD136
:10051000403A41D351F8043B40F8043B51F8043BC6
:1005200040F8043B51F8043B40F8043B51F8043BCD
:1005300040F8043B51F8043B40F8043B51F8043BBD
:1005400040F8043B51F8043B40F8043B51F8043BAD
:1005500040F8043B51F8043B40F8043B51F8043B9D
:1005600040F8043B51F8043B40F8043B51F8043B8D
:1005700040F8043B51F8043B40F8043B51F8043B7D
:1005800040F8043B51F8043B40F8043B51F8043B6D
:1005900040F8043B403ABDD2303211D351F8043B0D
:1005A00040F8043B51F8043B40F8043B51F8043B4D
:1005B00040F8043B51F8043B40F8043B103AEDD2BC
:1005C0000C3205D351F8043B40F8043B043AF9D20D
:1005D000043208D0D2071CBF11F8013B00F8013BE0
:1005E00001D30B8803806046704700BF082A13D3ED
:1005F0008B078DD010F003038AD0C3F10403D21A05
:10060000DB071CBF11F8013B00F8013B80D331F838
:10061000023B20F8023B7BE7043AD9D3013A11F8B8
:10062000013B00F8013BF9D20B7803704B78437023
:100630008B78837060467047000000000000000067
:1006400090F800F06DE9024520F007016FF0000C12
:1006500010F0070491F820F040F049804FF00004BA
:100660006FF00700D1E9002391F840F000F1080095
:1006700082FA4CF2A4FA8CF283FA4CF3A2FA8CF3CD
:100680004BBBD1E9022382FA4CF200F10800A4FA34
:100690008CF283FA4CF3A2FA8CF3E3B9D1E9042388
:1006A00082FA4CF200F10800A4FA8CF283FA4CF3BF
:1006B000A2FA8CF37BB9D1E9062301F1200182FA79
:1006C0004CF200F10800A4FA8CF283FA4CF3A2FA7F
:1006D0008CF3002BC6D0002A04BF04301A4612BA8D
:1006E000B2FA82F2FDE8024500EBD2007047D1E990
:1006F000002304F00305C4F100004FEAC50514F01F
:10070000040F91F840F00CFA05F562EA05021CBFEF
:1007100063EA050362464FF00004A9E70000000009
:1007200001F0FF01102A2BDB10F0070F08D010F8A2
:10073000013B013A8B422DD010F0070F42B3F6D1A6
:10074000F0B441EA012141EA014122F007047FF0BF
:1007500000070023F0E80256083C85EA010586EA16
:10076000010685FA47F5A3FA87F586FA47F6A5FA52
:1007700087F68EB9EED1F0BC01F0FF0102F007025E
:1007800032B110F8013B013A83EA010313B1F8D109
:100790000020704701387047002D06BF35460338EA
:1007A000073815F0010F07D1013015F4807F02BF23
:1007B000013015F4C03F0130F0BC0138704700BF74
:1007C00082B0002100910B4B1A6B42F080021A6339
:1007D0001A6B02F080020092009A01911A6B42F0AB
:1007E00001021A631B6B03F001030193019B02B02A
:1007F000704700BF0038024008B50B4C01224FF48F
:100800000071204600F00DFC4FF4967000F0A4FA41
:1008100000224FF40071204600F003FC4FF4967064
:1008200000F09AFAE9E700BF0014024000B583B077
:100830000C4B01930223009300234FF400720A49EA
:100840000A4803F04DFE012808D0094B186803F050
:100850007DFE03F079F903B05DF804FB054805F06F
:100860006BFEF2E754090020787F0008F9070008C2
:1008700050090020847F000800B587B00023009352
:100880000E4A116B41F020011163126B02F020023D
:100890000092009A019302930393049305934FF4FB
:1008A000C0630193012302930223049301A9044826
:1008B00000F0BEFA07B05DF804FB00BF003802404C
:1008C0000014024072B6FEE700B595B03022002158
:1008D00008A805F091FD0023039304930593069364
:1008E000079301931F4A116C41F080511164126CFF
:1008F00002F080520192019A02931B4B1A6842F453
:1009000080421A601B6803F480430293029B012318
:1009100008934FF48033099302230E934FF480021F
:100920000F920422109248221192129303231393E0
:1009300008A801F0EBF980B90F2303930221049179
:10094000002305934FF480520692079303A801F009
:1009500043FC20B915B05DF804FBFFF7B3FFFFF7C8
:10096000B1FF00BF003802400070004000B583B006
:10097000134800F02FF800F0C3F9FFF7A5FFFFF7C9
:100980001FFF05F0C9FA00F03DF9FFF775FF0D4BA9
:1009900001930123009300234FF400720A490B488E
:1009A00003F09EFD012802D103F044FEFEE7084853
:1009B00005F0C2FD4FF0FF3003B05DF804FB00BF4F
:1009C000A809002050090020947F00082D08000885
:1009D000A07F000808B5054B1860054B1868002378
:1009E00002221946806805F0AFFD08BD58090020B5
:1009F000F4000020022801D80120704708B505F056
:100A0000D1FC09230360002008BD000010B50138A7
:100A100001280AD814464FF0FF3392B20748006805
:100A200001F063FF40B9204610BD05F0BBFC09236F
:100A300003604FF0FF30F7E70520F5E75809002085
:100A4000022801D80020704708B505F0ABFC092347
:100A500003604FF0FF3008BD08B505F0A3FC092383
:100A600003604FF0FF3008BD08B548B94FF0FF33C1
:100A700001220848006801F0A4FF40B9012008BD28
:100A800005F090FC092303604FF0FF30F7E70520E5
:100A9000F5E700BF5809002008B5022804D84FF434
:100AA00000534B60002008BD05F07CFC0923036067
:100AB000F8E7000082B0002100910B4B5A6C42F421
:100AC00080425A645A6C02F480420092009A01916A
:100AD0001A6C42F080521A641B6C03F0805301932D
:100AE000019B02B0704700BF0038024030B589B0AA
:100AF0000546002401941B4B5A6C42F001025A64D3
:100B00005B6C03F001030193019B02A903A801F0B0
:100B100039FC01F027FC43001348A0FB03239B0C86
:100B2000013B1248124A026040F2E732C260436061
:100B300004618460846101F0AFFD08B109B030BD8B
:100B40000A4801F03FFC0028F8D1192000F062F9B2
:100B50000F2DF3D822462946192000F023F9054B22
:100B60001D60EBE70038024083DE1B435C09002078
:100B7000000001400800002008B500F0DBF8024842
:100B800001F069FC08BD00BF5C090020FEE7FEE73C
:100B9000FEE7FEE7FEE7704708B5024800F0A9FD52
:100BA00008BD00BF783C012010B503460C4A0D4932
:100BB0000D48006840B10C4800680344521A934243
:100BC00006D8094A136010BD0748084C0460F2E7D4
:100BD00005F0E8FB0C2303604FF0FF30F3E700BFA4
:100BE0000000022000100000A4090020E8410120BC
:100BF000034AD2F8883043F47003C2F88830704753
:100C000000ED00E008B50A480A4B03604FF4E133F9
:100C1000436000238360C36003610C2242618361EF
:100C2000C36101F033FE00B908BDFFF74BFEFBE7DF
:100C3000A80900200010014000B589B000230393EB
:100C40000493059306930793026803F1804303F529
:100C500088339A4202D009B05DF804FB002101916B
:100C600003F594335A6C42F010025A645A6C02F045
:100C700010020192019A02911A6B42F001021A636A
:100C80001B6B03F001030293029B4FF4C0630393B9
:100C900002230493032306930723079303A902481F
:100CA00000F0C6F8D7E700BF00000240DFF834D0FC
:100CB0000D480E490E4A002302E0D458C4500433B4
:100CC000C4188C42F9D30B4A0B4C002301E013608B
:100CD0000432A242FBD3FFF78BFF05F069FBFFF75D
:100CE00045FE70470000022000000020340900206B
:100CF0007080000834090020E8410120FEE7000070
:100D000008B50B4B1A6842F400721A601A6842F474
:100D100080621A601A6842F480721A60032000F040
:100D20002FF80F20FFF7E2FEFFF7C4FE002008BDFA
:100D3000003C0240034A1168034B1B780B441360CC
:100D4000704700BFEC09002004000020014B186828
:100D5000704700BFEC09002038B50446FFF7F6FFE6
:100D60000546B4F1FF3F02D0044B1B781C44FFF74B
:100D7000EDFF401BA042FAD338BD00BF04000020A5
:100D8000074AD36823F4E0631B041B0C000200F441
:100D9000E060034343F0BF6343F40033D360704724
:100DA00000ED00E000B5194BDB68C3F30223C3F18B
:100DB000070CBCF1040F28BF4FF0040C03F1040E24
:100DC000BEF1060F18D9033B4FF0FF3E0EFA0CFCA4
:100DD00021EA0C0199400EFA03F322EA03031943B6
:100DE00000280BDB0901C9B200F1604000F5614049
:100DF00080F800135DF804FB0023E5E700F00F0026
:100E00000901C9B2024B1954F4E700BF00ED00E03C
:100E100014ED00E0002807DB00F01F024009012369
:100E20009340024A42F82030704700BF00E100E0E2
:100E300000230F2B00F2E48070B582B060E085687B
:100E40005E000324B44025EA0405CC68B4402C437A
:100E50008460456825EA02054C68C4F300129A4094
:100E60002A4342605AE0DC08083450F8246003F05A
:100E7000070295000F22AA4026EA020E0A69AA403C
:100E800042EA0E0240F824205CE0072200E0002243
:100E900002FA0EF22A4302345A4D45F824205A4AE7
:100EA00094686FEA0C0224EA0C054E6816F4801F61
:100EB00001D04CEA0405544CA560E46802EA04053C
:100EC0004E6816F4001F01D04CEA04054E4CE56054
:100ED000646802EA04054E6816F4003F01D04CEA4B
:100EE0000405494C6560246822404D6815F4803F34
:100EF00001D04CEA0402444C226001330F2B7DD810
:100F000001229A400C6804EA020C32EA0404F4D18B
:100F10004C6804F00304013C012C90D94A6802F0AB
:100F20000302032A09D0C4685D000322AA4024EA10
:100F300002048A68AA402243C2604A6802F003029F
:100F4000022A90D004684FEA430E032202FA0EF2FE
:100F500024EA02044A6802F0030202FA0EF2224373
:100F600002604A6812F4403FC7D000220192274A2B
:100F7000546C44F480445464526C02F480420192F4
:100F8000019A9C08A51C1F4A52F8255003F0030241
:100F90004FEA820E0F2202FA0EF225EA02051C4ADF
:100FA00090423FF474AF02F5806290421AD002F58D
:100FB0008062904218D002F58062904216D002F50D
:100FC0008062904214D002F58062904212D002F505
:100FD0008062904210D002F5806290423FF455AF9B
:100FE000082255E7012253E7022251E703224FE787
:100FF00004224DE705224BE7062249E702B070BD07
:10100000704700BF00380140003C014000380240FA
:10101000000002400369194201D0012070470020FE
:1010200070470AB18161704709048161704700000F
:1010300008B5054B5B69034200D108BD024B5861FE
:1010400002F08EFBF9E700BF003C01402DE9F043C0
:1010500083B0D0F8008001EBC10300EB8303DA6DAD
:101060005B6D9A4254D807460C469B1A01EBC102AD
:1010700000EB8202926C9A4200D31A4602F10309F5
:101080004FEA990915E006F103094FEA990904EBC3
:10109000C40507EB8505E96C3B7C0093B3B2E2B273
:1010A000404602F0CCF8EB6C3344EB64EB6D334418
:1010B000EB6508EB441303F510639B699BB24B454A
:1010C00012D304EBC40207EB8202D16D536D994237
:1010D0000AD24BB15B1A04EBC40207EB8202966C96
:1010E0009E42D0D31E46CEE704EBC40007EB800738
:1010F0007A6DFB6D9A420FD804F00F040123A340D0
:10110000D8F8344824EA0304C8F83448002000E042
:10111000012003B0BDE8F0830020FAE770B58AB083
:10112000002800F090800546046890F8BD343BB379
:10113000032385F8BD34E36B13F4807F01D10023D2
:101140002B61286801F096FD2C4654F8106BEC4694
:101150000FCCACE80F000FCCACE80F0094E8030014
:101160008CE803002B1D0ECB304601F0C5FC044675
:1011700058B1022385F8BD34012420460AB070BD61
:1011800080F8BC3404F09CFFD2E70021286802F00C
:101190006DFA234616E003EBC30205EB8202012140
:1011A00082F83D1082F83C30A2F84430002182F8E9
:1011B00040109164D16403EBC30205EB82025165D8
:1011C0000133DBB269688B42E5D316E004EBC4035C
:1011D00005EB8303002283F87D2283F87C4283F8A9
:1011E0008022C3F88822C3F88C2204EBC40305EBE9
:1011F0008303C3F894220134E4B2A142E6D82C461A
:1012000054F8106BEC460FCCACE80F000FCCACE8F8
:101210000F0094E803008CE803002B1D0ECB304632
:1012200001F084FD044620B1022385F8BD34012479
:10123000A3E7002385F83830012385F8BD342868FA
:1012400002F0D1F999E7012497E7026890F8BC34DD
:10125000012B19D010B50446012380F8BC34836AF1
:10126000012B09D0206801F0FFFC206802F0ADF9E5
:10127000002084F8BC0410BD8369012BF2D0936B6D
:1012800043F480339363EDE70220704770B5044662
:101290000D460068066C00EB411303F530639A6855
:1012A0002169012911D038498E4256D03DB905EB4C
:1012B000C50304EB8303D3F89432002B5ED0E9B26C
:1012C000204604F047FF002070BD12F0080F09D03F
:1012D0002E498E42F7D912F4004FF4D04FF4004259
:1012E0009A60F0E712F0200F02D020229A60EAE71D
:1012F00012F0280FE7D125498E4206D912F4004F8B
:1013000003D04FF400429A60DDE705EBC50204EB21
:101310008202D2F898121B69C3F31203CB1AC2F8E7
:101320009C327DB905EBC50204EB8202D2F894220F
:101330006AB105EBC50204EB8202D2F88C120B44B1
:10134000C2F88C32E9B2204604F004FFBBE704F295
:10135000C442012102F0CCF9F4E712F4004F03D0AB
:101360004FF400429A60AEE712F0200F01D0202225
:101370009A60E9B2204604F0EDFEA4E704F2C4420C
:10138000002102F0B5F99AE70A31544F0A30544F60
:1013900038B5044603681D6C03EB4113D3F8081BF2
:1013A0000E4A954207D903F5306311F4004F02D07D
:1013B0004FF400429A60204604F0C4FE074B9D4261
:1013C00002D92369012B01D0002038BD04F2C442A8
:1013D0000121206802F08CF9F6E700BF0A30544F73
:1013E00090F8BC34012B0DD010B50446012380F8D1
:1013F000BC3480F83810006802F0D7F8002084F878
:10140000BC0410BD0220704738B505468C4611F06B
:10141000800F29D101F00F0E0EEBCE04A40004F5CD
:101420001E740444211D0EEBCE0E00EB8E0E002028
:101430008EF87D020CF00F0C81F800C0CA600B71B1
:101440004A780AB1A1F808C0022B1DD095F8BC3427
:10145000012B1CD0012385F8BC34286801F03FFD26
:10146000002085F8BC0438BD01F00F0000EBC0017E
:10147000890038312944043100EBC00005EB8000BD
:10148000012480F83D40D5E700234B71DEE70220C0
:10149000E9E710B504460A4611F0800F20D101F0AB
:1014A0000F0000EBC0039B0003F51E732344191DBE
:1014B00000EBC00004EB8000002380F87D3202F0D6
:1014C0000F020A7094F8BC34012B19D0012384F860
:1014D000BC34206801F052FD002084F8BC0410BD2B
:1014E00001F00F0000EBC0039B0038332344191DAB
:1014F00000EBC00004EB8000012380F83D30DEE704
:101500000220ECE710B501F00F0404EBC4018900E0
:1015100001F51E710144043104EBC40C00EB8C0C8A
:10152000CCF88C22CCF894320023CCF89C328CF886
:101530007D328CF87C420369012B06D064B9DAB2A3
:10154000006801F08BFD002010BD04EBC40C00EB23
:101550008C0CCCF89022F1E7DAB2006801F086FE3C
:10156000F1E710B501F00F0404EBC4018900383134
:101570000144043104EBC40C00EB8C0CCCF84C207F
:10158000CCF854300023CCF85C3001238CF83D308B
:101590008CF83C400369012B06D064B9DAB20068CC
:1015A00001F05CFD002010BD04EBC40C00EB8C0CC2
:1015B000CCF85020F1E7DAB2006801F057FEF1E70D
:1015C00038B501F00F054268954239D804460B46FC
:1015D00011F0800F1FD101EBC101890001F51E71CF
:1015E0000144043103EBC30300EB8303002283F8BF
:1015F0007D2201238B700D7094F8BC34012B21D017
:10160000012384F8BC34206801F074FF8DB1002000
:1016100084F8BC0438BD05EBC501890038310144AC
:10162000043105EBC50300EB8303012283F83D2061
:10163000DFE704F2C442217C206802F059F8E6E7B3
:101640000120E7E70220E5E701F00F03426893423B
:1016500031D810B5044611F0800F1ED103EBC30141
:10166000890001F51E710144043103EBC30200EB54
:101670008202002082F87D0200228A700B7094F8AA
:10168000BC34012B19D0012384F8BC34206801F04C
:101690005EFF002084F8BC0410BD03EBC301890089
:1016A00038310144043103EBC30200EB8202012014
:1016B00082F83D00E0E7012070470220ECE708B522
:1016C00011F0800F0CD101F00F0101EBC101890075
:1016D00001F51E7101440431006801F051FD08BD9F
:1016E00001F00F0101EBC1018900383101440431DF
:1016F000F2E72DE9F04F83B004460568284601F073
:10170000B1FF10B103B0BDE8F08F0646206801F0CC
:1017100078FF0028F6D005F50067BB68C3F30D23FA
:10172000C4F8FC34206801F06CFF10F0020F04D004
:101730002268536903F002035361206801F061FFDE
:1017400010F0100F13D02268936923F010039361F7
:10175000D5F8208008F00F09C8F34343022B4BD083
:10176000062B6FD02268936943F0100393612068C1
:1017700001F047FF10F4002F76D1206801F041FFFF
:1017800010F4802F40F0E080206801F03AFF00283C
:10179000C0F26381206801F034FF10F4006F09D0BB
:1017A000BB6813F0010F40F070812268536903F4A5
:1017B00000635361206801F024FF10F4805F40F063
:1017C0006881206801F01DFF10F4005F40F0B581D2
:1017D000206801F016FF10F0080F40F0C681206865
:1017E00001F00FFF10F0800F00F0D981AB6923F0FA
:1017F0008003AB610126C2E147F6F07318EA030FDC
:10180000B0D04FEA181B4FEAC903019309EBC90A8C
:1018100004EB8A0AC8F30A12DAF88C12284601F09F
:101820003FFECBF30A0BDAF88C325B44CAF88C32F9
:10183000019B4B4404EB8303D3F89C325B44CAF80E
:101840009C328FE7082204F2C441284601F028FEAA
:10185000C8F30A1809EBC90204EB8202D2F89C32E1
:101860004344C2F89C327DE7206801F0CEFE8046FA
:10187000B14635E005EB49130122C3F8082B494670
:101880002046FFF703FD3CE005EB49130822C3F8AF
:10189000082B49462046FFF77BFD35E009EBC903DD
:1018A00004EB830393F87F32012B41D005EB4913FE
:1018B0000222C3F8082B1AF0200F04D005EB4913BD
:1018C0002022C3F8082B1AF4005F05D005EB49135A
:1018D0004FF40052C3F8082B09F101094FEA5808E8
:1018E000B8F1000F3FF449AF18F0010FF4D05FFAE0
:1018F00089FB5946206801F098FE824610F0010FDE
:10190000B8D11AF0080FBFD11AF0100F04D005EBB0
:1019100049131022C3F8082B1AF0020FCBD06B69C1
:1019200013F0800FBAD07B6843F480637B60B5E727
:1019300009EBC90304EB8303002283F87F22594695
:10194000204604F059FCB1E7206801F066FE8046AD
:10195000B14625E05946204604F008FC1AF0080F6D
:1019600004D005EB49130822C3F808291AF0100F18
:1019700004D005EB49131022C3F808291AF0400FD0
:1019800004D005EB49134022C3F808291AF0020FCE
:1019900040D11AF0800F5BD109F101094FEA5808D4
:1019A000B8F1000F3FF4F0AE18F0010FF4D05FFA79
:1019B00089FB5946206801F041FE824610F0010F74
:1019C000CCD009F00F03012101FA03F27B6B23EA6B
:1019D00002037B6305EB4913C3F8081923698B42A3
:1019E000B8D109EBC90304EB8303996CDA6C0A44A0
:1019F000DA64B9F1000FADD109EBC90304EB83033D
:101A00005B6D002BA6D104F2C4420121206801F0D5
:101A10006FFE9FE74946284601F032F909EBC903FA
:101A200004EB830393F83F30012B05D005EB4913FA
:101A30000222C3F80829ACE709EBC90304EB8303CE
:101A4000002283F83F205946204604F0DBFBEDE7F7
:101A500049462046FFF7FAFA9EE77B6823F0010328
:101A60007B6094F8F434012B08D0204604F0BEFBD0
:101A70002268536903F0004353618BE6002184F828
:101A8000F414204600F041F9F2E7204604F096FBFA
:101A90008BE67B6823F001037B601021206801F056
:101AA000EFF81AE005EB46134FF67F31C3F808193B
:101AB000D3F8002922F40012C3F80029C3F8081B48
:101AC000D3F8002B22F40012C3F8002BD3F8002B1C
:101AD00042F00062C3F8002B01366368B342E1D8DC
:101AE000FB6943F00113FB61236BDBB1D7F8843052
:101AF00043F00B03C7F884307B6C43F00B037B642B
:101B0000D5F8003823F4FE63C5F8003804F2C44267
:101B1000217C206801F0ECFD2268536903F48053B6
:101B200053614EE67B6943F4005343F02B037B6122
:101B30003B6943F00B033B61E2E7206801F0C7FD1E
:101B4000206801F0BBF9E060266800F0F5FB014673
:101B5000227B304601F016F8204604F018FB22687C
:101B6000536903F40053536132E6204604F009FB45
:101B70002268536903F00803536130E60136636855
:101B8000B3420CD906EBC60304EB830393F87F3210
:101B9000012BF3D1F1B22046FFF791FDEEE720686B
:101BA00001F02FFD10F4801F27D1206801F029FDDE
:101BB00010F4001F5BD0012328E001366368B342B4
:101BC0001DD905EB4613D3F8002906EBC60304EB39
:101BD000830393F84030012BEFD1002AEDDA06EBB6
:101BE000C60304EB8303012283F83F2066F07F01E4
:101BF000C9B22046FFF763FDDFE70126DEE7226872
:101C0000536903F480135361CFE7013362689A424A
:101C100028D905EB4312D2F8001B03EBC30204EBF7
:101C2000820292F88022012AEFD10029EDDA01F434
:101C30008031D4F8FC2402F001029142E5D103EB9B
:101C4000C30204EB8202012182F87F12AA6942F0EA
:101C50008002AA616A6912F0800FD6D17B6843F4D2
:101C600000737B602268536903F40013536120689A
:101C700001F0C7FC10F0804F10D1206801F0C1FCCA
:101C800010F0040F3FF43EAD23685D6815F0040FBB
:101C90000DD1226853682B43536033E5204604F08E
:101CA000B7FA2268536903F080435361E5E72046A1
:101CB00004F0B4FAEDE710B40468606A31B940EAA0
:101CC0000240A06200205DF8044B70478C46A36A76
:101CD00000EB1340002308E003F1400104EB810115
:101CE000496800EB11400133DBB20CF1FF318B424C
:101CF000F2D340EA02400CF13F0104EB810148605D
:101D0000E0E703685962002070477047002800F040
:101D1000E08170B582B00446036813F0010F3BD038
:101D20009F4B9B6803F00C03042B2CD09C4B9B68AF
:101D300003F00C03082B21D06368B3F5803F4FD02C
:101D4000B3F5A02F52D0964B1A6822F480321A6055
:101D50001A6822F480221A606368002B50D0FEF7C4
:101D6000F5FF05468E4B1B6813F4003F14D1FEF7B8
:101D7000EDFF401B6428F5D90320B1E1884B5B6877
:101D800013F4800FD8D0864B1B6813F4003F03D0A8
:101D90006368002B00F09F81236813F0020F54D07A
:101DA0007F4B9B6813F00C0F3ED07D4B9B6803F07C
:101DB0000C03082B33D0E368002B68D0794B012249
:101DC0001A60FEF7C3FF0546754B1B6813F0020F40
:101DD00054D1FEF7BBFF401B0228F5D903207FE159
:101DE0006F4A136843F480331360B5E76C4B1A688D
:101DF00042F480221A601A6842F480321A60ABE71B
:101E0000FEF7A4FF0546664B1B6813F4003FC3D0E2
:101E1000FEF79CFF401B6428F5D9032060E1604B6E
:101E20005B6813F4800FC6D15D4B1B6813F0020F83
:101E300003D0E368012B40F05081594A136823F026
:101E4000F803216943EAC1031360236813F0080F04
:101E500042D063696BB3534B0122C3F8802EFEF767
:101E600075FF05464E4B5B6F13F0020F34D1FEF742
:101E70006DFF401B0228F5D9032031E1484A136861
:101E800023F0F803216943EAC1031360DDE7454B02
:101E900000221A60FEF75AFF0546414B1B6813F0FB
:101EA000020FD2D0FEF752FF401B0228F5D90320C3
:101EB00016E13C4B0022C3F8802EFEF747FF054693
:101EC000374B5B6F13F0020F06D0FEF73FFF401B4E
:101ED0000228F5D9032003E1236813F0040F77D01B
:101EE0002F4B1B6C13F0805F33D1002301932C4BDD
:101EF0001A6C42F080521A641B6C03F080530193F9
:101F0000019B0125284B1B6813F4807F23D0A36815
:101F1000012B34D0052B38D0214B1A6F22F001024F
:101F20001A671A6F22F004021A67A368002B3DD0CB
:101F3000FEF70CFF06461A4B1B6F13F0020F46D13B
:101F4000FEF704FF801B41F288339842F3D9032047
:101F5000C6E00025D6E7144A136843F48073136083
:101F6000FEF7F4FE0646104B1B6813F4807FCED1BB
:101F7000FEF7ECFE801B0228F5D90320B0E0084AEA
:101F8000136F43F001031367CFE7054B1A6F42F05D
:101F900004021A671A6F42F001021A67C5E700BF10
:101FA000003802400000474200700040FEF7CEFEBD
:101FB0000646524B1B6F13F0020F08D0FEF7C6FE09
:101FC000801B41F288339842F3D9032088E0EDB9B1
:101FD000A369002B00F08380484A926802F00C024B
:101FE000082A51D0022B17D0454B00221A66FEF763
:101FF000ADFE0446414B1B6813F0007F42D0FEF754
:10200000A5FE001B0228F5D9032069E03B4A136CAA
:1020100023F080531364DBE7394B00221A66FEF786
:1020200095FE0546354B1B6813F0007F06D0FEF782
:102030008DFE401B0228F5D9032051E0E369226A96
:102040001343626A43EA8213A26A5208013A43EADE
:102050000243E26A43EA0263284A5360284B0122A2
:102060001A66FEF773FE0446244B1B6813F0007FCC
:1020700006D1FEF76BFE001B0228F5D903202FE0E6
:1020800000202DE000202BE0012B2BD01B4B5B68A8
:1020900003F48001E269914226D103F03F02216AF4
:1020A0008A4223D1616A47F6C0721A40B2EB811F9F
:1020B0001ED103F44031A26A5208013AB1EB024F3B
:1020C00018D103F07063E26AB3EB026F14D1002001
:1020D00006E001207047012002E0012000E000201E
:1020E00002B070BD0120FBE70120F9E70120F7E70E
:1020F0000120F5E70120F3E70120F1E70038024075
:102100000000474208B5314B9B6803F00C03042BD9
:1021100057D0082B57D12D4B5A6802F03F025B680D
:1021200013F4800F2AD0294B5968C1F3881C4FEA59
:102130004C11B1EB0C006EEB0E0E4FEA8E1343EA1E
:1021400090638101091A63EB0E03DB0043EA5173CC
:10215000C90011EB0C0C43F10003590200234FEAB4
:102160004C2041EADC51FEF74BF8184B5B68C3F397
:10217000014301335B00B0FBF3F025E0134B5968DA
:10218000C1F3881C4FEA4C11B1EB0C006EEB0E0E44
:102190004FEA8E1343EA90638101091A63EB0E0341
:1021A000DB0043EA5173C90011EB0C0C43F100034F
:1021B000990200234FEA8C2041EA9C51FEF720F857
:1021C000D3E7034800E0034808BD00BF00380240E1
:1021D00000127A000024F400002800F09B8070B503
:1021E0000D4604464F4B1B6803F007038B4208D291
:1021F000CBB24C4A1370136803F007038B4240F0D4
:102200008B80236813F0020F17D013F0040F04D053
:10221000454A936843F4E0539360236813F0080F32
:1022200004D0414A936843F4604393603E4A936804
:1022300023F0F003A1680B439360236813F0010FB0
:1022400032D06368012B21D09A1E012A25D9364A43
:10225000126812F0020F61D033498A6822F003023B
:1022600013438B60FEF772FD06462F4B9B6803F00D
:102270000C036268B3EB820F16D0FEF767FD801B7C
:1022800041F288339842F0D9032042E0264A12688E
:1022900012F4003FE0D101203BE0234A126812F023
:1022A000007FD9D1012034E01E4B1B6803F00703E7
:1022B000AB4207D9EAB21B4B1A701B6803F0070345
:1022C000AB422DD1236813F0040F06D0164A936851
:1022D00023F4E053E1680B439360236813F0080F85
:1022E00007D0114A936823F46043216943EAC1038C
:1022F0009360FFF707FF0C4B9B68C3F303130B4A74
:10230000D35CD8400A4B18600A4B1868FEF7EEFB06
:10231000002070BD012070470120FAE70120F8E796
:102320000120F6E7003C024000380240AC7F000884
:102330000000002008000020014B1868704700BF13
:102340000000002008B5FFF7F7FF044B9B68C3F3BC
:102350008223034AD35CD84008BD00BF0038024046
:10236000BC7F000808B5FFF7E7FF044B9B68C3F389
:102370004233034AD35CD84008BD00BF0038024056
:10238000BC7F00080F2303600B4B9A6802F0030226
:1023900042609A6802F0F00282609A6802F4E052A9
:1023A000C2609B68DB0803F4E0530361034B1B68C6
:1023B00003F007030B60704700380240003C024006
:1023C0007047000090F83D30DBB2012B37D102237B
:1023D00080F83D300268D36843F00103D36003689E
:1023E000194A934220D0B3F1804F1DD0A2F57C4210
:1023F000934219D002F58062934215D002F58062B3
:10240000934211D002F5784293420DD002F57052FA
:10241000934209D0A2F59432934205D01A6842F053
:1024200001021A60002070479A6802F00702062A2B
:1024300007D01A6842F001021A600020704701209C
:1024400070470020704700BF000001407047704790
:1024500070477047704710B5044603681A6912F058
:10246000020F11D0DA6812F0020F0DD06FF00202E5
:102470001A610123037703689B6913F0030F70D07F
:10248000FFF7E6FF0023237723681A6912F0040F91
:1024900012D0DA6812F0040F0ED06FF004021A6145
:1024A0000223237723689B6913F4407F5FD0204683
:1024B000FFF7CEFF0023237723681A6912F0080F75
:1024C00012D0DA6812F0080F0ED06FF008021A610D
:1024D000042323772368DB6913F0030F4ED02046D3
:1024E000FFF7B6FF0023237723681A6912F0100F55
:1024F00012D0DA6812F0100F0ED06FF010021A61CD
:10250000082323772368DB6913F4407F3DD02046FE
:10251000FFF79EFF0023237723681A6912F0010F4B
:1025200003D0DA6812F0010F36D123681A6912F06D
:10253000800F03D0DA6812F0800F34D123681A6953
:1025400012F0400F03D0DA6812F0400F32D1236846
:102550001A6912F0200F03D0DA6812F0200F30D180
:1025600010BDFFF774FF2046FFF773FF8AE7204690
:10257000FFF76DFF2046FFF76CFF9BE72046FFF754
:1025800066FF2046FFF765FFACE72046FFF75FFFD9
:102590002046FFF75EFFBDE76FF001021A6120469B
:1025A000FFF754FFC1E76FF080021A61204600F088
:1025B000A0F8C3E76FF040021A612046FFF74AFF18
:1025C000C5E76FF020021A61204600F091F8C7E7D6
:1025D0000368304A904212D0B0F1804F0FD0A2F57C
:1025E0007C4290420BD002F58062904207D002F507
:1025F0008062904203D002F57842904203D123F0EA
:1026000070034A681343234A90422AD0B0F1804FA6
:1026100027D0A2F57C42904223D002F580629042FE
:102620001FD002F5806290421BD002F578429042A2
:1026300017D002F57052904213D002F5806290429A
:102640000FD002F5806290420BD0A2F598329042F2
:1026500007D002F58062904203D002F5806290427A
:1026600003D123F44073CA68134323F080034A69FB
:10267000134303608B68C3620B688362054B984207
:1026800003D003F58063984201D10B6903630123F2
:10269000436170470000014040B310B5044690F814
:1026A0003D30F3B1022384F83D30214651F8040B4C
:1026B000FFF78EFF012384F8463084F83E3084F81B
:1026C0003F3084F8403084F8413084F8423084F858
:1026D000433084F8443084F8453084F83D3000209D
:1026E00010BD80F83C30FFF76BFEDBE70120704740
:1026F0007047704738B504460268136923F44053A5
:10270000C1680B4313618368026913434269134331
:10271000C2691A430168CB6823F4164323F00C0303
:102720001343CB600268536923F4407381690B4300
:1027300053610368314A934206D002F580629342A6
:1027400002D0FFF7FFFD01E0FFF70CFEE369B3F5F0
:10275000004F29D00021031849411B1841F1000105
:10276000C90041EA5371DB00181863684FEA83021D
:102770004FEA937341F10001FDF742FD204DA5FBA7
:1027800000325109642303FB11031B013233A5FB03
:1027900003235B0903F0F00202EB011203F00F03C5
:1027A000216813448B6038BD0023021843EB0301FA
:1027B000121841F10001C90041EA5271D20010180B
:1027C00041F10001626892185B41FDF719FD0C4D63
:1027D000A5FB00325109642303FB1103DB003233F4
:1027E000A5FB03235B095A0002F4F87202EB011205
:1027F00003F00703216813448B60D4E70010014005
:102800001F85EB512DE9F84305460F4616469946BC
:10281000DDF820802C68246837EA04030CBF4FF0F1
:10282000010C4FF0000CB4452DD1B8F1FF3FF1D0B1
:10283000B8F1000F05D0FEF789FAA0EB090040457A
:10284000E8D92A6802F10C0353E8003F23F4D0735F
:102850000C3242E800310029F3D12A6802F1140356
:1028600053E8003F23F00103143242E8003100290D
:10287000F3D1202385F83D3085F83E30002385F8DC
:102880003C30032000E00020BDE8F88358B310B5C9
:10289000044690F83D300BB3242384F83D30226881
:1028A000D36823F40053D3602046FFF723FF226848
:1028B000136923F4904313612268536923F02A03B8
:1028C00053612268D36843F40053D360002020642E
:1028D000202384F83D3084F83E3010BD80F83C3031
:1028E000FEF7AAF9D8E7012070472DE9F04182B040
:1028F0001E4690F83D30DBB2202B54D104460D46E5
:102900009046002953D0002A53D090F83C30012B38
:1029100051D0012380F83C3000230364212380F848
:102920003D30FEF713FA0746A4F82480A4F8268069
:10293000A368B3F5805F05D04FF00008002384F84A
:102940003C3012E0236913B14FF00008F6E7A846C7
:102950000025F3E738F8023B2268C3F3080353600D
:10296000E28C92B2013A92B2E284E38C9BB273B1F0
:1029700000963B46002280212046FFF743FFE0B946
:10298000002DE7D015F8012B23685A60E8E7009680
:102990003B46002240212046FFF734FF78B9202330
:1029A00084F83D3000E0022002B0BDE8F081012053
:1029B000FAE70120F8E70220F6E70320F4E7032016
:1029C000F2E72DE9F04182B01E4690F83E30DBB2CE
:1029D000202B5CD104460D46904600295BD0002A8E
:1029E0005BD090F83C30012B59D0012380F83C306B
:1029F00000230364222280F83E200363FEF7A6F939
:102A00000746A4F82C80A4F82E80A368B3F5805F55
:102A100005D04FF00008002384F83C3017E023690C
:102A200013B14FF00008F6E7A8460025F3E7236846
:102A30005B68C3F3080328F8023B03E023685B6884
:102A40002B700135E28D92B2013A92B2E285E38DAC
:102A50009BB2BBB100963B46002220212046FFF7E7
:102A6000D1FEF0B9002DE2D0A368B3F5805FE5D0C8
:102A700013B92369002BE1D023685B6803F07F035F
:102A80002B70DEE7202384F83E30002000E0022097
:102A900002B0BDE8F0810120FAE70120F8E702204A
:102AA000F6E70320F4E7000082B000230193019BC6
:102AB00001330193019A0F4B9A4215D80369002BF9
:102AC000F5DA00230193036943F001030361019BDD
:102AD00001330193019A074B9A4208D8036913F016
:102AE000010FF4D1002000E0032002B07047032062
:102AF000FBE700BF400D030084B010B5044603A8F7
:102B000080E80E00089B012B1FD1A36B23F48033B8
:102B1000A363E36823F4840323F04003E360E368E2
:102B200023F44013E3600F9B012B09D02046FFF7ED
:102B3000BBFF069B012B1BD0BDE8104004B07047C3
:102B4000E36843F48013E360F0E7E36843F0400395
:102B5000E3602046FFF7A8FF0C9B23B9A36B43F467
:102B60008033A363E5E7A36B23F48033A363E0E73B
:102B7000A36843F00603A360A36843F02003A360A7
:102B8000DAE70000022A0AD00921C26822F4705252
:102B9000C260C36843EA8123C36000207047234BAF
:102BA0000B44234A93422FD9224B0B44224A93428F
:102BB0002CD9A1F57403A3F51053204A934227D9C9
:102BC000A1F18373A3F5E7431D4A934222D31D4B22
:102BD0000B441D4A93421FD91C4B0B441C4A934281
:102BE0001CD31C4B0B441C4A934219D3A1F1B7735D
:102BF000A3F55853194A934214D3194B0B44194A5D
:102C0000934211D20721C0E70F21BEE70E21BCE796
:102C10000D21BAE70C21B8E70B21B6E70A21B4E78A
:102C20000921B2E70821B0E70621AEE7405327FFAC
:102C3000FF340C00401E1BFF3F420F007F4F12006D
:102C400020D6130060B6E5FE5FE3160000D3CEFE8B
:102C500040771B00C05BB3FEC09121002075380097
:102C6000E05459FEE09C4100836843F00103836017
:102C700000207047836823F00103836000207047C1
:102C800082B000230193019B01330193019A0F4B02
:102C90009A4215D80369002BF5DA002301938901C4
:102CA00041F020010161019B01330193019A074B1F
:102CB0009A4208D8036913F0200FF4D1002000E0F5
:102CC000032002B070470320FBE700BF400D030064
:102CD00082B000230193019B01330193019A0E4BB3
:102CE0009A4213D80369002BF5DA002301931023CD
:102CF0000361019B01330193019A074B9A4208D863
:102D0000036913F0100FF4D1002000E0032002B09B
:102D100070470320FBE700BF400D0300D0F80038E8
:102D20001943C0F8001800207047000084B02DE956
:102D3000F041044607A880E80E00002306E003F1F6
:102D4000400204EB82020021516001330E2BF6D9C0
:102D5000119F27BBD4F8043843F00203C4F80438A9
:102D6000A36B43F40013A363A36B23F40023A363B7
:102D7000A36B23F48023A3630023C4F8003E04F56F
:102D80000065D4F80038C4F800380C9B012B14D12E
:102D9000099B6BB900212046FFF7C0FF11E0A36B30
:102DA00023F40013A363A36B43F40023A363E3E7BB
:102DB00001212046FFF7B2FF03E003212046FFF781
:102DC000ADFF10212046FFF75BFF804608B14FF0B2
:102DD00001082046FFF77CFF08B14FF001080023EF
:102DE0002B616B61EB610AE0C3B94FF00060C2F880
:102DF000000900220A614FF67F328A600133079989
:102E0000994210D904EB431202F51061D2F800097F
:102E10000028E9DB0020C2F80009EAE74FF0904003
:102E2000C2F80009E5E700230AE0C3B14FF0904C77
:102E3000C2F800CB002202614FF67F32826001337C
:102E4000994211D904EB431202F53060D2F8006BBD
:102E5000002EEADB4FF0000CC2F800CBEAE74FF09F
:102E6000006CC2F800CBE5E72B6923F480732B617B
:102E70000023A3616FF0804363610A9B1BB9A369C0
:102E800043F01003A361A2690B4B1343A3610D9B95
:102E90001BB1A36943F00803A361012F04D040468E
:102EA000BDE8F04104B07047A36943F0804343F0AC
:102EB0000403A361F3E700BF00383C80D0F8083872
:102EC00013F0060307D0022B07D0062B01D00F20EA
:102ED000704702207047002070470220704710B5ED
:102EE00091F800C04B78012B23D000F5006ED0F88C
:102EF0001C380CF00F040122A24043EA0243C0F840
:102F00001C3800EB4C10D0F8003B13F4004F0ED1EE
:102F1000D0F8003BCA68C2F30A02097942EA81424A
:102F2000134343F0805343F40043C0F8003B0020B8
:102F300010BDD0F81C280CF00F0E03FA0EF39BB254
:102F40001343C0F81C3800EB4C10D0F8003913F4D0
:102F5000004FECD1D0F80039CA68C2F30A020979EF
:102F600042EA814242EA8C5C43EA0C0343F080531C
:102F700043F40043C0F80039D9E7000030B40B78BF
:102F80004A78012A26D000EB4313D3F8002B002AFD
:102F900052DBD0F83C480A7802F00F024FF0010CE7
:102FA0000CFA02F224EA0242C0F83C28D0F81C28AD
:102FB000097801F00F010CFA01FC22EA0C42C0F87A
:102FC0001C28D3F8001B234A0A40C3F8002B00201A
:102FD00030BC704700EB4313D3F80029002A1EDBF6
:102FE000D0F83C580A7802F00F02012404FA02F2E9
:102FF00092B225EA0202C0F83C28D0F81C280978D1
:1030000001F00F018C40A4B222EA0404C0F81C486D
:10301000D3F80019104A0A40C3F80029D7E7D3F8BB
:10302000002942F00062C3F80029D3F8002942F0D9
:103030008042C3F80029D3E7D3F8002B42F00062A6
:10304000C3F8002BD3F8002B42F08042C3F8002BCA
:103050009FE700BF0078F3EF007833EC70B40B7893
:103060004C78012C29D000EB431000F530631C692B
:10307000E40CE4041C611C6924F0FF5424F4C01423
:103080001C618C690CB1CC688C61CC68CC611C690A
:1030900044F400241C611C69CD69C5F3120C44EA98
:1030A0000C041C61012A66D0D0F8003B43F00443B5
:1030B000C0F8003B002070BC70478C696CBB00EB13
:1030C0004314D4F8105925F0FF5525F4C015C4F861
:1030D0001059D4F8105945F40025C4F81059D4F803
:1030E0001059ED0CED04C4F81059012A34D000EB4E
:1030F0004313D3F8002942F00442C3F800298B6936
:10310000002BD7D0D0F834380A7802F00F01012212
:103110008A401343C0F83438CCE700EB431404F57D
:1031200010642569ED0CED042561256925F0FF5536
:1031300025F4C0152561CD688E69AE4200D98D6138
:10314000256945F40025256125698E69C6F3120CB1
:1031500045EA0C052561C8E74A691AB100EB43113D
:10316000C1F8142900EB4310D0F8002942F00442C2
:10317000C0F800299EE70A69002A95D05A6193E7B2
:1031800010B483B0024600230193487801280BD085
:103190000B7802EB4313D3F8000B00282DDB002043
:1031A00003B05DF8044B70470B7802EB4313D3F880
:1031B0000049002C01DB0020F2E7D3F8004944F07D
:1031C0000064C3F800490B7802EB4313D3F80049BD
:1031D00044F08044C3F80049019B01330193019CF2
:1031E00042F210739C42DBD80B7802EB4313D3F806
:1031F0000039002BF0DB0020D2E7D3F8000B40F0C1
:103200000060C3F8000B0B7802EB4313D3F8000BFC
:1032100040F08040C3F8000B019B013301930198FB
:1032200042F21073984208D80B7802EB4313D3F89C
:10323000003B002BF0DB0020B2E70120B0E710B527
:103240009DF8084084B903334FEA930E4FF0000C09
:1032500008E000EB023303F5805351F8044B1C6087
:103260000CF1010CF445F4D3002010BDF0B583B08F
:103270000B784C78012C33D000EB431303F5306C02
:10328000DCF81040E40CE404CCF81040DCF810400A
:1032900024F0FF5424F4C014CCF810408C69002CA6
:1032A00040F0C780DCF81040CD68C5F312052C4310
:1032B000CCF81040DCF8104044F40024CCF8104066
:1032C000012A00F0D0800A79012A00F0D380D3F8D7
:1032D000002B42F00442C3F8002B002003B0F0BDE5
:1032E0008C6984BB00EB4314D4F8105925F0FF55CA
:1032F00025F4C015C4F81059D4F8105945F4002528
:10330000C4F81059D4F81059ED0CED04C4F8105954
:10331000012A4CD000EB4313D3F8004944F0044495
:10332000C3F800490C79012C6AD08B69002BD4D0EA
:10333000D0F834380A7802F00F0101228A40134392
:10334000C0F83438C9E700EB4314D4F81059ED0C39
:10335000ED04C4F81059D4F8105925F0FF5525F4A0
:10336000C015C4F81059D4F810698D69CF683D4470
:10337000013DB5FBF7F5494F07EAC5453543C4F8AC
:103380001059D4F810598E69C6F312063543C4F8A3
:10339000105904F510640D79012DB9D1256925F076
:1033A000C0452561256945F000552561B0E74A69AA
:1033B0001AB100EB4314C4F814290A79012A08D081
:1033C00000EB4313D3F8002942F00442C3F800296C
:1033D00083E7D0F8082812F4807F08D100EB43116E
:1033E000D1F8002942F00052C1F80029E8E700EBCB
:1033F0004311D1F8002942F08052C1F80029DFE7DB
:10340000D0F8084814F4807F0CD1D3F8004944F078
:103410000054C3F8004900920B8B0A780969FFF742
:103420000EFF5AE7D3F8004944F08054C3F800492E
:10343000F1E7CD682C44013CB4FBF5F4A4B204FBE5
:1034400005F5CD61DCF81050144E06EAC4442C4357
:10345000CCF81040DCF81040CD69C5F312052C43C0
:10346000CCF810402CE70A69002A3FF42CAFCCF8C6
:10347000142028E7D0F8082812F4807F06D1D3F86A
:10348000002B42F00052C3F8002B20E7D3F8002BAA
:1034900042F08052C3F8002B19E700BF0000F81F6C
:1034A00000B583B0844608464FEA920E02F003024C
:1034B000002305E00CF58051096840F8041B013336
:1034C0007345F7D39AB10CF5805CDCF800300193BA
:1034D0004FF0000C5FFA8CF3D900019BCB4000F851
:1034E000013B0CF1010C013A92B2002AF2D103B077
:1034F0005DF804FB0B784A78012A14D000EB4310E6
:10350000D0F8002B002A06DB2BB1D0F8003B23F0CB
:103510008043C0F8003BD0F8003B43F40013C0F8F0
:10352000003B0020704700EB4310D0F80029002A30
:1035300006DB2BB1D0F8003923F08043C0F8003906
:10354000D0F8003943F40013C0F80039E9E70B78EC
:103550004A78012A0ED000EB4310D0F8003B23F448
:103560000013C0F8003B0B79023BDBB2012B15D9ED
:103570000020704700EB4310D0F8003923F400130B
:10358000C0F800390B79023BDBB2012BF0D8D0F840
:10359000003943F08053C0F80039E9E7D0F8003B28
:1035A00043F08053C0F8003BE2E7D0F8003823F442
:1035B000FE63C0F80038D0F80038090101F4FE615C
:1035C0001943C0F8001800207047D0F8003E23F0DF
:1035D0000303C0F8003ED0F8043823F00203C0F81B
:1035E000043800207047D0F8003E23F00303C0F8F1
:1035F000003ED0F8043843F00203C0F8043800203D
:1036000070474269806910407047D0F8183800F55B
:103610000060C0691840000C7047D0F8183800F5F9
:103620000060C069184080B2704700EB4111D1F8CA
:10363000082B00F5006040691040704710B4D0F8C6
:103640001048D0F8343801F00F02D340DB01DBB270
:10365000234300EB411000F51060806818405DF8CE
:10366000044B7047406900F00100704738B50546CB
:10367000C36823F0C043C360012913D019BBC368DA
:1036800043F08043C36000240120FDF765FB013453
:103690002846FFF7E7FF08B1312CF5D9322C14D0BA
:1036A000002038BDC36843F00053C36000240120EC
:1036B000FDF752FB01342846FFF7D4FF0128EDD077
:1036C000312CF4D9EAE70120EBE70120E9E7D0F853
:1036D000003923F4FF6323F00703C0F80039D0F862
:1036E000043843F48073C0F80438002070470000A9
:1036F00010B4046C154B9C4203D9D0F8003B002B4E
:1037000016DB0024C0F8104BD0F8104B44F4002412
:10371000C0F8104BD0F8104B44F01804C0F8104B10
:10372000D0F8104B44F0C044C0F8104B012903D02E
:1037300000205DF8044B7047C0F8142BD0F8003B14
:1037400043F08023C0F8003BF2E700BF0A30544F3B
:1037500008B54020FDF76CFC8020FDF769FC08BD32
:1037600008B5402802D0802823D008BD80212248F7
:10377000FDF750FC012815D0204B1B78022BF4D10B
:1037800080211D48FDF746FC0028EED11B4B00228E
:103790001A704FF480711848FDF73CFC30B102F00C
:1037A000E1FDE2E7154B01221A70E5E702F0EAFDC0
:1037B000DBE740211048FDF72DFC012815D00F4B09
:1037C0001B78012BD1D140210B48FDF723FC0028A9
:1037D000CBD10A4B00221A704FF480710648FDF7D6
:1037E00019FC30B102F0C6FDBFE7044B02221A708B
:1037F000E5E702F0CFFDB8E700180240F00900202D
:10380000104A12F0070F1AD0D11D21F00701C1F59F
:10381000963313440A460C48026000214160134469
:10382000083B23F007030948036059601960991A9F
:1038300051601360064B1960064B196070474FF4D6
:103840009633E8E7F809002008360120F409002043
:10385000FC350120F8350120164B1A461B688342BF
:10386000FBD3516802EB010C844509D0416800EBA1
:10387000010C634509D00360904219D01060704775
:103880004068014451601046F0E710B40A4C2468C7
:10389000A3420BD05B681944416013681B68036046
:1038A000904200D010605DF8044B70470460F7E769
:1038B000704700BF08360120F409002070B50546A6
:1038C00000F0FEFE364B1B689BB13DB105F00703CF
:1038D000C3F11003DA43AA420ED31D44002D47DB87
:1038E000002D47D02F4B1B68AB4252D32E4A146891
:1038F00006E0FFF785FFE8E70025EFE722461C46D4
:103900006368AB4202D22368002BF7D1244B1B68BB
:10391000A34240D0166808362368136063685B1BB7
:10392000102B10D9601910F0070F08D04FF050037A
:1039300083F31188BFF36F8FBFF34F8FFEE74360B0
:103940006560FFF789FF626816490B689B1A0B6078
:10395000164909688B4201D214490B6042F00042BB
:10396000626000232360124A13680133136002E08F
:10397000002600E0002600F06DFF16F0070F0CD0C7
:103980004FF0500383F31188BFF36F8FBFF34F8F56
:10399000FEE70026EFE70026EDE7304670BD00BFEA
:1039A000F4090020F835012008360120FC350120FB
:1039B00000360120A8B338B50446A0F1080550F838
:1039C000043C002B08DB4FF0500383F31188BFF356
:1039D0006F8FBFF34F8FFEE750F8082C42B14FF0C6
:1039E000500383F31188BFF36F8FBFF34F8FFEE750
:1039F000002B00DB38BD23F0004340F8043C00F00E
:103A00005FFE54F8041C074A13680B4413602846F1
:103A1000FFF722FF044A13680133136000F01AFF16
:103A2000E8E77047F83501200436012082B0002312
:103A300001930D4B1B68B3F1FF3F08D04FF05003CB
:103A400083F31188BFF36F8FBFF34F8FFEE74FF003
:103A5000500383F31188BFF36F8FBFF34F8F019B28
:103A6000002BFCD002B070470C0000200848006812
:103A7000006880F308884FF0000080F3148862B675
:103A800061B6BFF34F8FBFF36F8F00DF00BF000041
:103A900008ED00E0DFF80C00016841F470010160FE
:103AA0007047000088ED00E04FF0807340F8043C60
:103AB00021F0010140F8081C054B40F80C3C40F88F
:103AC000202C6FF0020340F8243C4438704700BFBC
:103AD0002D3A000800000000000000000000000077
:103AE000074B19680868B0E8F04F80F30988BFF306
:103AF0006F8F4FF0000080F311887047AFF30080A4
:103B0000583601204FF0500383F31188BFF36F8FB5
:103B1000BFF34F8F0B4A136801331360012B00D0A2
:103B200070474FF0E023D3F8043D13F0FF0FF7D0B8
:103B30004FF0500383F31188BFF36F8FBFF34F8FA4
:103B4000FEE700BF0C000020094B1B6843B94FF093
:103B5000500383F31188BFF36F8FBFF34F8FFEE7DE
:103B6000013B034A13600BB983F31188704700BF10
:103B70000C00002000000000000000000000000019
:103B8000EFF30980BFF36F8F154B1A681EF0100F0B
:103B900008BF20ED108A20E9F04F10602DE90900E0
:103BA0004FF0500080F31188BFF34F8FBFF36F8F3A
:103BB00000F0F6FE4FF0000080F3118809BC196890
:103BC0000868B0E8F04F1EF0100F08BFB0EC108A84
:103BD00080F30988BFF36F8F704700BFAFF3008099
:103BE0005836012008B54FF0500383F31188BFF316
:103BF0006F8FBFF34F8F00F071FD28B14FF0E023BE
:103C00004FF08052C3F8042D002383F3118808BDC0
:103C10004FF0E022002313619361054B1B680549B7
:103C2000A1FB03139B09013B5361072313617047F9
:103C300000000020D34D62104FF0E023D3F8002D98
:103C40003D4B9A421CD04FF0E023D3F8002D3B4B64
:103C50009A421ED030B583B0394B1A78D2B2019255
:103C6000FF221A701B78DBB28DF803309DF8033009
:103C700003F05003334A1370334B07221A601BE0E2
:103C80004FF0500383F31188BFF36F8FBFF34F8F53
:103C9000FEE74FF0500383F31188BFF36F8FBFF33C
:103CA0004F8FFEE7284A1368013B13609DF80330ED
:103CB0005B00DBB28DF803309DF8033013F0800F0A
:103CC000F0D1214B1B68032B08D04FF0500383F336
:103CD0001188BFF36F8FBFF34F8FFEE71B021A4AA5
:103CE000136003F4E0631360019BDBB2144A1370AA
:103CF0004FF0E024D4F8203D43F47003C4F8203D95
:103D0000D4F8203D43F07043C4F8203DFFF780FF16
:103D100000250E4B1D60FFF7BDFED4F8343F43F085
:103D20004043C4F8343FFFF7A1FE00F039FEFFF72F
:103D30007DFE284603B030BD71C20F4170C20F41F5
:103D400000E400E010360120143601200C000020B1
:103D500000F1080343604FF0FF328260C3600361EB
:103D600000230360704700230361704743684B6082
:103D70009A688A6051609960086103680133036042
:103D8000704730B40D68B5F1FF3F11D000F1080362
:103D90001C465B681A68AA42FAD963684B6099604E
:103DA0008C606160086103680133036030BC704758
:103DB0000469F2E70369416882688A60416851607A
:103DC0005A68824206D0002202611A68013A1A60DB
:103DD0001868704782685A60F5E710B50446FFF727
:103DE00091FEA36B23B90124FFF7AEFE204610BD60
:103DF0000024F9E70346026C6AB110B50846D96899
:103E00001144D9609C68A14201D31968D960D9686E
:103E1000FCF778FB10BD704738B50546FFF772FE1A
:103E200095F8454064B201E0013C64B2002C0ADD23
:103E30006B6A43B105F1240000F040FE0028F3D086
:103E400000F004FFF0E7FF2385F84530FFF77CFE24
:103E5000FFF758FE95F8444064B201E0013C64B2BB
:103E6000002C0ADD2B6943B105F1100000F026FE9D
:103E70000028F3D000F0EAFEF0E7FF2385F8443095
:103E8000FFF762FE38BD38B590B10D460446C36BEE
:103E90002BB1026C0021A3FB022393B999B14FF01F
:103EA000500383F31188BFF36F8FBFF34F8FFEE78B
:103EB0004FF0500383F31188BFF36F8FBFF34F8F21
:103EC000FEE70121EAE7FFF71DFE2368E26B216CA4
:103ED00001FB0230A0600020A0636360013A02FB96
:103EE0000133E360FF2384F8443084F84530B5B9EA
:103EF00023691BB9FFF728FE012038BD04F110002B
:103F000000F0DCFD0028F5D04FF0E0234FF08052A8
:103F1000C3F8042DBFF34F8FBFF36F8FEAE704F1AF
:103F20001000FFF715FF04F12400FFF711FFE1E790
:103F300038B51D46049C0B4649B92460E0632364F0
:103F400001212046FFF79FFF84F84C5038BD2260C6
:103F5000F4E7F0B583B060B10C4617460546002380
:103F6000A0FB041272B923B904FB05F010F1510F44
:103F70000AD94FF0500383F31188BFF36F8FBFF35B
:103F80004F8FFEE70123EEE75030FFF797FC064620
:103F900038B100903B4600F1500221462846FFF719
:103FA000C7FF304603B0F0BDF0B585B0019290B1C7
:103FB0000F460446C1B100F04FFE064600BB019B10
:103FC000002B5ED04FF0500383F31188BFF36F8F47
:103FD000BFF34F8FFEE74FF0500383F31188BFF319
:103FE0006F8FBFF34F8FFEE7036C002BE3D04FF0D2
:103FF000500383F31188BFF36F8FBFF34F8FFEE73A
:1040000000263EE039462046FFF7F4FE013DA56359
:10401000236923B9FFF798FD012005B0F0BD04F135
:10402000100000F04BFD0028F4D04FF0E0234FF0DB
:104030008052C3F8042DBFF34F8FBFF36F8FE9E7B2
:10404000FFF782FD0020E8E702A800F0AFFD01269F
:1040500021E0002384F8443029E0002384F845302F
:104060002BE02046FFF7D8FE00F0F4FB09E02046E5
:10407000FFF7D2FE00F0EEFB2046FFF7AEFE002871
:104080003FD1FFF73FFDA56B002DBBD1019B002B5E
:10409000D6D0002ED8D0FFF757FD00F011FBFFF768
:1040A00031FD94F844305BB2B3F1FF3FD1D094F8C6
:1040B00045305BB2B3F1FF3FCFD0FFF745FD01A91B
:1040C00002A800F07FFD0028D1D12046FFF785FE31
:1040D0000028C6D0019904F1240000F0ADFC204670
:1040E000FFF79AFE00F0B6FB0028CAD14FF0E0239C
:1040F0004FF08052C3F8042DBFF34F8FBFF36F8F83
:10410000BFE7002089E7000030B110B40C4601463B
:104110008CB10020034612E04FF0500383F3118866
:10412000BFF36F8FBFF34F8FFEE70E4800EBC30066
:1041300008B1046041605DF8044B70470133072B00
:10414000F6D8084A02EBC30252688A42EDD0002832
:10415000F4D1044A52F83320002AEFD1014800EB91
:10416000C300EBE71836012070B504460D4616462D
:10417000FFF7C8FC94F844305BB2B3F1FF3F0DD0B9
:1041800094F845305BB2B3F1FF3F0BD0FFF7DCFC96
:10419000A36B5BB12046FFF73FFE70BD002384F8A0
:1041A0004430EDE7002384F84530EFE732462946F6
:1041B00004F1240000F058FCECE70000074B1B68FA
:1041C0001B6823B9064B4FF0FF321A607047034B50
:1041D0001B68DB681A68024B1A6070475C36012066
:1041E0000837012010B50446006BFFF7E3FB2046BB
:1041F000FFF7E0FB10BD2DE9F84380460C4616465C
:104200009946089F0A9D9200A521286B02F0F4F8B8
:104210002A6B06F18043013B02EB830323F0070680
:104220006CB10022092A07D8A15CAB1883F83410BE
:10423000A15C09B10132F5E7002385F83D30042F78
:1042400008D94FF0500383F31188BFF36F8FBFF38A
:104250004F8FFEE7EF62AF64281DFFF784FD05F185
:104260001800FFF780FD2D61C7F10507AF616D6292
:104270004A4641463046FFF717FC2860099B03B1C8
:104280001D60BDE8F883000038B5002407E004EBAA
:10429000840293000E481844FFF75AFD0134042CA1
:1042A000F5D90C4D2846FFF753FD0B4C2046FFF780
:1042B0004FFD0A48FFF74CFD0948FFF749FD094843
:1042C000FFF746FD084B1D60084B1C6038BD00BF62
:1042D00064360120DC360120F0360120143701203D
:1042E000403701202C3701205C3601206036012048
:1042F00010B50446FFF706FC294A13680133136022
:10430000284B1B685BB1284B1B686BB9254B1B689E
:10431000DA6AE36A9A4207D8224B1C6004E0214B18
:104320001C601368012B37D0204A136801331360D7
:104330002364E36A01229A401D49086802430A6027
:104340001C4A03EB830302EB83035B68A36098685A
:10435000E060211D41609960E36A03EB83018800FE
:1043600002EB81016161115801311150FFF7ECFB43
:104370000D4B1B687BB10B4B1B68DA6AE36A9A42F0
:1043800009D24FF0E0234FF08052C3F8042DBFF361
:104390004F8FBFF36F8F10BDFFF776FFC4E700BFED
:1043A000C83601205836012028370120D436012094
:1043B000D8360120643601200F4B1B68D3B110B5ED
:1043C000FFF7A0FB0D4BDB68DC68201DFFF7F2FC5C
:1043D0000B4A1368013B1360074A1368013B1360E3
:1043E000FFF7B2FB2046FFF7FDFE034B1B68002BD7
:1043F000E6D110BD704700BFCC3601204037012008
:10440000C836012008B5FFF7D7FF074B1B68012B03
:10441000F9D94FF0E0234FF08052C3F8042DBFF3D9
:104420004F8FBFF36F8FEEE76436012070B50446FF
:104430000D46244B1E68244B18680430FFF7BAFC65
:1044400050B9214B1B68DA6A012303FA02F21F49B3
:104450000B6823EA02030B60B4F1FF3F0DD0344434
:10446000194B1B685C60A6421DD9194B1868164B86
:1044700019680431FFF785FC70BD002DEFD0154A97
:104480005168114B1868816018688C68C46018689E
:10449000043060601868043088601B685A611368D3
:1044A00001331360E8E70C4B1868074B19680431B7
:1044B000FFF767FC094B1B68A342DDD9074B1C6063
:1044C000DAE700BF5437012058360120D8360120E2
:1044D000603601202C3701205C360120083701208E
:1044E0002DE9F04385B00746884614461E469000E5
:1044F000FFF7E4F910B381465820FFF7DFF90546CE
:10450000C0B15822002101F077FFC5F83090D5B135
:104510000023039302950D9B01930C9B009333465C
:10452000224641463846FFF766FE2846FFF7E0FE82
:10453000012005E04846FFF73DFAE8E74FF0FF307D
:1045400005B0BDE8F0834FF0FF30F9E738B5044619
:10455000FFF7D8FA002C37D0251D2846FFF72AFC94
:1045600068B9E26A02EB82039B002949CB5833B950
:104570000123934027490A6822EA03020A60A36ADA
:104580001BB104F11800FFF715FC234A136801332F
:104590001360224B1B68A34219D0214A1368013BC8
:1045A0001360FFF70BFEFFF7CFFA1C4B1B68A3420B
:1045B00002D02046FFF716FE1A4B1B681BB1174BA3
:1045C0001B68A3420CD038BD144B1C68C4E72946B5
:1045D0001548FFF7CBFB154A136801331360E2E778
:1045E000134B1B6843B14FF0500383F31188BFF3A3
:1045F0006F8FBFF34F8FFEE74FF0E0234FF08052F5
:10460000C3F8042DBFF34F8FBFF36F8FDBE700BFFD
:1046100064360120D8360120D436012058360120D6
:10462000C83601202837012040370120CC36012030
:10463000D036012000B583B01A4B019300230093BC
:10464000822219491948FFF74BFF012809D0012898
:104650000AD0B0F1FF3F1CD0154B1B6803B05DF8CA
:1046600004FB00F08BFCF2E74FF0500383F311885A
:10467000BFF36F8FBFF34F8F0E4B4FF0FF321A60B7
:104680000D4B01221A600D4B00221A60FFF7D4FA7D
:10469000E2E74FF0500383F31188BFF36F8FBFF34E
:1046A0004F8FFEE704370120C47F0008054400084F
:1046B000100000200837012028370120543701203E
:1046C000024A136801331360704700BFD0360120DF
:1046D000014B1868704700BF54370120F8B5524BA2
:1046E0001B68002B40F09980504B1C6801341C6003
:1046F000C4B94F4B1B681B6843B14FF0500383F3A1
:104700001188BFF36F8FBFF34F8FFEE7484A1168E0
:10471000484B186810601960474A136801331360EA
:10472000FFF74CFD454B1B68A34211D90020444BB9
:104730001B68DB6A03EB83039A00424B9B58012BF7
:1047400000D90120404B1B68002B6BD0012069E091
:10475000002037E0394B4FF0FF321A60E7E7374B64
:104760001A60E4E7D968516042E00021996211685B
:1047700001391160DA6A01219140344E37683943BA
:104780003160304902EB82024FEA820C8C44DCF843
:1047900004209A609668DE6075609560DA6A02EBC4
:1047A000820C4FEA8C054E195E614D5901354FEA76
:1047B0008C0C41F80C50DA6A214B1B68DB6A9A4278
:1047C00000D901201A4B1B681B68002BC2D0184B64
:1047D0001B68DB68DB685A689442C0D35A699D68DD
:1047E000D968A9609D684D6051681D1DA942B9D066
:1047F000002159611168013911609A6A002AB9D003
:10480000DE69196AB160DE694E60566803F118010D
:104810008E42AAD1196A5160A7E70D4A1368013385
:1048200013600020F8BD00BFD036012054370120AE
:104830005C360120603601200C370120083701204A
:10484000583601206436012058370120D83601201F
:104850001037012038B54A4B1B6843B94FF050035D
:1048600083F31188BFF36F8FBFF34F8FFEE7FFF71E
:1048700049F9434B1A68013A1A601B68002B7AD138
:10488000404B1B683BB9002476E0196A516015E083
:10489000D968516021E000233B4A1268002A47D0C2
:1048A000394BDB68DB689A6AD869196A8160D86914
:1048B0004860506803F118018842E6D000219962EF
:1048C0001168013911605A699868D96881609868DF
:1048D00048605168181D8142DAD000215961116881
:1048E00001391160DA6A01219140284C2568294379
:1048F0002160274902EB820201EB820252689A6032
:104900009468DC6060609060DA6A02EB8200840088
:1049100001EB80005861085901300851D96A1D4ADD
:104920001268D26A9142B7D31B4A01211160B3E7E2
:104930000BB1FFF743FC194B1C6884B9164B1C687C
:10494000D4B14FF0E0234FF08052C3F8042DBFF3F1
:104950004F8FBFF36F8F01240EE0013C07D0FFF7AC
:10496000BDFE0028F9D00C4B01221A60F5E70B4B75
:1049700000221A60E2E70024FFF7E6F8204638BD7F
:10498000D0360120C836012014370120D836012046
:104990006436012058360120583701201037012095
:1049A000204B1B681BB1204B01221A6070471E4B25
:1049B00000221A601D4B1B68B3FA83F3DBB2C3F10C
:1049C0001F0303EB83018A0019498A5842B94FF04B
:1049D000500383F31188BFF36F8FBFF34F8FFEE750
:1049E000134903EB830082000A445068406850601A
:1049F00003EB830C4FEA8C0208321144884209D041
:104A000003EB83039A000A4B13445B68DA68094B93
:104A10001A607047406862469100054A0A44506037
:104A2000EEE700BFD036012058370120D8360120EC
:104A3000643601205836012058B110B50C46094A99
:104A400011681831FFF79DF901212046FFF7EEFCB0
:104A500010BD4FF0500383F31188BFF36F8FBFF386
:104A60004F8FFEE75836012038B5D8B18C46114635
:104A700005464268104B1868C26118689468046261
:104A80001868183060601868183090601B689D6264
:104A90002B6801332B6009B14FF0FF3C6046FFF7F4
:104AA000C5FC38BD4FF0500383F31188BFF36F8FFF
:104AB000BFF34F8FFEE700BF58360120C368DB68A5
:104AC000002B4AD030B49A6AD869196A8160D869D3
:104AD0004860516803F11800814247D00021996273
:104AE0001168013911602B4A1268002A44D15A69B1
:104AF0009868D9688160986848605168181D81423B
:104B000037D000215961116801391160DA6A012139
:104B10009140214C256829432160204902EB820203
:104B200001EB820252689A609468DC606060906079
:104B3000DA6A02EB8200840001EB800058610859B8
:104B400001300851DA6A164B1B68DB6A9A421FD99A
:104B50000120144B186030BC70474FF0500383F3B2
:104B60001188BFF36F8FBFF34F8FFEE7196A516053
:104B7000B4E7D9685160C4E70B4A5168D9618C68C1
:104B80001C62606088609A62116801311160D9E727
:104B90000020E0E7D0360120D8360120643601201D
:104BA000583601205837012014370120034B1B6869
:104BB0000360034B1B684360704700BF0C37012044
:104BC00054370120F8B5B8B10C460546E9B1FEF7F7
:104BD00099FF1C4B19686B68C81A2268B2F1FF3F35
:104BE0002AD0194E36682F68B74217D08B4215D895
:104BF00000232360012420E04FF0500383F3118849
:104C0000BFF36F8FBFF34F8FFEE74FF0500383F377
:104C10001188BFF36F8FBFF34F8FFEE7824203D837
:104C200000232360012408E05B1A13442360284614
:104C3000FFF7BCFF002400E00024FEF785FF2046BC
:104C4000F8BD00BF543701200C370120014B012271
:104C50001A60704758370120054B1B6833B1054B6C
:104C60001B680BB10020704702207047012070477D
:104C700028370120D0360120064B1A6813682BB95B
:104C80000123036023B9D368186870470023F8E74D
:104C9000002070475C37012008B5416000619142F7
:104CA0000CD8D21A83699A4201D3012008BD011D94
:104CB000094B1868FFF765F80020F7E79A4201D220
:104CC000994206D2011D054B1868FFF75AF80020DB
:104CD000ECE70120EAE700BF603701205C370120E4
:104CE00070B504460D46164604E0A3691D44236AC8
:104CF00020469847A1692B46324629442046FFF7B3
:104D0000CBFF0028F1D170BD70B505460E460D4BA6
:104D10001B68DB68DC68201DFFF74CF894F828302E
:104D200013F0040F07D123F0010384F82830236A1D
:104D30002046984770BD324629462046FFF7D0FFEF
:104D4000F5E700BF5C37012008B505E0DB684FF0F0
:104D5000FF311868FFF7D8FF054B1B681A68002A57
:104D6000F4D1044A106802490860136008BD00BF0E
:104D70005C3701206037012038B50546FFF7A8FCF5
:104D80000446074B1B68834205D800232B60044B65
:104D90001C60204638BDFFF7D7FF01232B60F6E7E4
:104DA0008C37012070B582B006460C46FFF788FCB0
:104DB00001A8FFF7E1FF019B33BB05460CB9B042E8
:104DC00019D224B1124A12681268DAB901242246B3
:104DD000711B104B1868FFF7C7F9FFF73BFDA8B927
:104DE0004FF0E0234FF08052C3F8042DBFF34F8FF4
:104DF000BFF36F8F0AE0FFF72DFD29463046FFF71E
:104E000083FF03E01C46E2E7FFF724FD02B070BD1C
:104E1000603701209037012030B585B0002201A90C
:104E2000384B1868FFF7C0F8002869D0019B002BA9
:104E3000F4DB039C636913B1201DFEF7BBFF6846DA
:104E4000FFF79AFF0546019B013B082BE6D8DFE8F8
:104E500003F00505293049050529300094F828306C
:104E600043F0010384F82830029BA16902461944EB
:104E70002046FFF711FF0028D0D094F8283013F017
:104E8000040F07D123F0010384F82830236A204659
:104E90009847C3E7A3692A46029919442046FFF7B9
:104EA0001FFFF3E794F8283023F0010384F828303B
:104EB000B4E794F8283043F0010384F828300299CD
:104EC000A16131B10346024601442046FFF7E4FEEA
:104ED000A4E74FF0500383F31188BFF36F8FBFF344
:104EE0004F8FFEE794F8283013F0020F04D023F020
:104EF000010384F8283091E72046FEF75BFD8DE73B
:104F000005B030BD9037012000B583B001A8FFF790
:104F1000B3FE0199FFF746FFFFF77EFFF6E70000BB
:104F200038B5FEF7EFFD0F4B1B6813B1FEF70CFE13
:104F300038BD0D4D2846FEF70BFF0C4C2046FEF702
:104F400007FF0B4B1D600B4B1C6000220C210A203D
:104F5000FEF7FFFF034B18600028E7D00649FFF774
:104F6000D3F8E3E790370120643701207837012038
:104F70005C37012060370120CC7F000800B583B08A
:104F8000FFF7CEFF0D4B1B685BB10D4B0193022366
:104F9000009300234FF482720A490B48FFF7A0FAEE
:104FA00040B94FF0500383F31188BFF36F8FBFF305
:104FB0004F8FFEE703B05DF804FB00BF9037012080
:104FC00094370120D47F0008094F0008D0F8D4326C
:104FD000B03350F8233000201875704708B5D0F86A
:104FE000D43203F1B00250F822204AB1B03300EBC2
:104FF00083004368DB68517810789847002008BD2B
:105000000320FCE710B5D0F8D43203F1B00250F819
:1050100022407CB12269012A01D0002010BDB033AA
:1050200000EB83004368DB686178207898470020B4
:105030002061F3E70320F1E70A230380004870476B
:105040008400002070B505460D4E8121304600F0E9
:1050500070FB04460121304600F06BFB2CB10222AC
:105060002271002262710522A27128B1022202710E
:10507000002242710522827129232B80004870BDD5
:105080004C00002070B505460D4E8121304600F0E1
:1050900050FB04460121304600F04BFB2CB10222AC
:1050A0002271002262710522A27128B102220271CE
:1050B000002242710522827129232B80004870BD95
:1050C0004C00002070B505460D4E8121304600F0A1
:1050D00030FB04460121304600F02BFB2CB10222AC
:1050E0002271002262710522A27128B1022202718E
:1050F000002242710522827129232B80004870BD55
:105100004C00002070B582B0D0F8D45205F1B00345
:1051100050F823300022ADF80620002B00F09280DA
:105120000C7814F0600432D0202C40F085804A784E
:10513000023A092A27D8DFE802F014092626262693
:10514000261B0F058A785A60002478E00122191D79
:1051500000F0A0FE002472E04A88120A9A6000243F
:105160006DE0012203F1080100F094FE002466E0E6
:1051700001221A61CA88022A28BF0222194600F0B9
:105180009EFE00245BE000F011FB032457E04E7804
:105190000B2E4DD8DFE806F006534C4C4C4C164C09
:1051A0004C4C314090F89C32DBB2032B03D000F022
:1051B000FDFA032443E002220DF1060100F06AFE2D
:1051C00034463CE04B881B0A222B06D0212B0ED004
:1051D00000210A4600F05EFE31E0CA88022A28BF9C
:1051E0000222B03500EB85056B681968F2E7CA88C2
:1051F000092A28BF09221449ECE790F89C22D2B270
:10520000032A03D000F0D2FA032418E0012203F1AC
:105210000C0100F03FFE12E090F89C22D2B2032A6B
:1052200002D18A78DA600AE000F0C0FA032406E0CE
:1052300000F0BCFA032402E000F0B8FA0324204690
:1052400002B070BD0324FAE77800002038B50446A8
:10525000812101F057F80025258765870121204627
:1052600001F050F8A4F87851A4F87A51D4F8D43267
:1052700003F1B00254F822209AB1B03304EB830357
:105280005B689B689847D4F8D432B03354F8230055
:1052900001F01AF8D4F8D432B03344F82350C4F8EB
:1052A000BC52002038BDF8B50446182001F008F8BB
:1052B00078B30646D4F8D432B03344F82300C4F8A7
:1052C000BC02237C6BBB05236387A4F87A310223DD
:1052D00003228121204601F00AF8012727870223B3
:1052E00003223946204601F002F8A4F8787100251F
:1052F0003575D4F8D432B03304EB83035B685B6854
:105300009847022332463946204601F023F82846C2
:10531000F8BDD4F8D432B033002244F82320022060
:10532000F6E705236387A4F87A31D0E708B5D0F80B
:10533000D432B03350F823202AB10223012101F0E6
:1053400009F8002008BD0320FCE739B1D0F8D432B9
:10535000B03300EB830041600020704703207047AA
:1053600098B108B503460020C3F8B802C3F8C402D8
:10537000C3F8D00209B1C3F8B412012183F89C121A
:105380001A70184600F050FF08BD0320704710B592
:1053900082B00023ADF8063089B10446C0F8B812D7
:1053A000CB6A23B10DF106009847C4F8D002D4F8B7
:1053B000D8320133C4F8D832002002B010BD032027
:1053C000FBE708B500F08BFF08BD08B5D0F8B83290
:1053D00013B11B68984708BD0020FCE708B5D0F85A
:1053E000B8325B68984700B908BD0320FCE738B5C0
:1053F000044600F2AA25284600F0C4F90123C4F8A7
:105400009432B4F8B032C4F8983294F8AA1201F089
:105410001F03012B0DD0022B10D02BB101F0800106
:10542000204600F077FF03E02946204600F080FB8D
:1054300038BD2946204600F0B6FBF9E7294620464C
:1054400000F0F3FBF4E7F8B50446012380F89C3242
:105450000023C0F894324360C0F8A43280F8A03230
:10546000D0F8B832DBB15B68DBB100219847074662
:10547000C8B9402300221146204600F038FF01261B
:10548000A4F864614025C4F860512B4600228021B5
:10549000204600F02CFFA68425623846F8BD002780
:1054A000E7E70027E5E70327E3E7017400207047FB
:1054B00090F89C32DBB280F89D32042380F89C3255
:1054C0000020704790F89C32DBB2042B01D0002002
:1054D000704790F89D32DBB280F89C32F7E708B550
:1054E00090F89C32DBB2032B01D0002008BDD0F82D
:1054F000B832002BF9D0DB69002BF6D09847F4E7DF
:1055000008B5D0F8D432AE3350F823205AB190F811
:105510009C32DBB2032B01D0002008BD136A23B1FB
:1055200098470020F9E70320F7E70020F5E708B5E2
:10553000D0F8D432AE3350F823205AB190F89C32D0
:10554000DBB2032B01D0002008BD536A23B198477A
:105550000020F9E70320F7E70020F5E70020704777
:1055600008B5012380F89C32D0F8B83223B15B68CB
:105570000179984710B908BD0020FCE70320FAE73D
:10558000002070470020704738B504460D460029BA
:1055900043D11346D0F89422032A01D0084638BDDF
:1055A000D0F85C11D0F86021914212D890F8AA325C
:1055B00003F01F03012B17D0022B1CD0284694F8B0
:1055C0009C32DBB2032B1BD0204600F08FFC284618
:1055D000E5E7891AC0F85C118A4228BF0A461946D5
:1055E00000F07CFC2846DAE790F8AE12FFF7C8FF1F
:1055F0000028E9D1E3E790F8AE12FFF7C3FFF7E721
:1056000000F1AE0354F823301A69002ADCD0C4F844
:10561000D4021B6920469847D6E701F07F01FFF7C7
:10562000B1FF90B994F89C32DBB2032BB7D100F1F3
:10563000AE0354F823309A69002AB0D0C4F8D402DB
:105640009B69294620469847A9E70020A7E738B577
:1056500004460D4600294BD11346D0F89422022A65
:1056600007D094F8A00218B1002384F8A03228468D
:1056700038BDC269016A8A420ED88A4218D094F8AD
:105680009C32DBB2032B27D08021204600F042FE63
:10569000204600F036FCE4E7521AC261194600F0D9
:1056A00006FC00231A461946204600F053FED8E7B0
:1056B00083699942E3D8D0F898229342DFD200223E
:1056C000114600F0F4FB0021C4F898120B460A467C
:1056D000204600F03FFEC4E7D4F8B832DA68002A6A
:1056E000D2D00022C4F8D422DB6820469847CBE70A
:1056F00041F08001FFF746FF90B994F89C32DBB28D
:10570000032BB5D100F1AE0354F823305A69002AB7
:10571000AED0C4F8D4025B69294620469847A7E773
:105720000020A5E703780A8813440B800378184407
:105730007047428803789A4218D930B583B004463E
:105740000D46ADF806306288BDF806309A420AD997
:105750000DF10601FFF7E6FF4378052BF3D18378BF
:10576000AB42F0D100E0002003B030BD0020704714
:105770000346002002E00130C0B201331A78002A4B
:10578000F9D170470B7803704B7843708B78CA78E7
:1057900043EA022343800B794A7943EA0223838058
:1057A0008B79CA7943EA0223C380704710B5044657
:1057B000802100F0AFFD0021204600F0ABFD10BDC0
:1057C00030B583B004460D460023ADF806304A8854
:1057D000130A013B062B00F2AB80DFE803F0041F45
:1057E00033A9A98D9A00D0F8B4321B680DF10601D7
:1057F000007C9847EA88002A00F0A380BDF80630B4
:10580000002B00F099809A4228BF1A46ADF8062076
:105810000146204600F03EFB03B030BD037C43B997
:10582000D0F8B8329B6A0DF1060098470223437006
:10583000E0E7D0F8B832DB6A0DF1060098470223A2
:105840004370D7E7D2B2052A52D8DFE802F003103E
:105850001D2A3744D0F8B4325B6823B10DF106013C
:10586000007C9847C6E72946FFF7A0FFD4E7D0F8A9
:10587000B4329B6823B10DF10601007C9847B9E76B
:105880002946FFF793FFC7E7D0F8B432DB6823B1AE
:105890000DF10601007C9847ACE72946FFF786FF2B
:1058A000BAE7D0F8B4321B6923B10DF10601007CD0
:1058B00098479FE72946FFF779FFADE7D0F8B43264
:1058C0005B6923B10DF10601007C984792E72946F8
:1058D000FFF76CFFA0E7D0F8B4329B6923B10DF15C
:1058E0000601007C984785E72946FFF75FFF93E7AD
:1058F0002946FFF75BFF8FE7037C33B9D0F8B83256
:105900005B6B0DF10600984774E72946FFF74EFFE1
:1059100082E7037C43B9D0F8B8321B6B0DF1060067
:1059200098470723437065E72946FFF73FFF73E772
:105930002946FFF73BFF6FE729462046FFF736FF72
:105940006AE7204600F0D2FA66E738B504468B884D
:10595000FBB9CB88EBB94B887F2B1AD803F07F05B6
:1059600090F89C32DBB2032B0CD080F89E52294673
:1059700000F0E0FC204600F0B9FA35B1022384F8CB
:105980009C3209E0FFF712FF06E0012384F89C3205
:1059900002E02046FFF70AFF38BD000070B504465C
:1059A0000E468D782F4B1D70012D10D890F89C322B
:1059B000DBB2022B0FD0032B26D0FFF7F7FE294BCB
:1059C00019782046FFF70AFD0325284670BDFFF72A
:1059D000EDFE0325F9E7A5B145602946FFF7F5FC83
:1059E000054638B131462046FFF7E0FE022384F831
:1059F0009C32EAE7204600F079FA032384F89C32CF
:105A0000E3E700F073FAE0E7CDB141688D4225D0BD
:105A1000C9B2FFF7E3FC134B197861602046FFF72A
:105A2000D4FC0546B0B131462046FFF7BFFE2179D0
:105A30002046FFF7D3FC022384F89C32C5E70223FB
:105A400080F89C3245602946FFF7C8FC204600F0EC
:105A50004DFABAE7204600F049FAB6E700F046FAF8
:105A60000025B2E79837012008B5CB88012B0BD170
:105A700090F89C32DBB2022B09D9032B09D1012209
:105A8000011D00F007FA01E0FFF790FE08BD5BB2D0
:105A900013B9FFF78BFEF9E70146002341F8083FF1
:105AA000012200F0F7F9F1E708B590F89C32013BCC
:105AB000022B12D8CB88022B0CD10123C360D0F863
:105AC000A4320BB10323C360022200F10C0100F0E9
:105AD000E1F908BDFFF76AFEFBE7FFF767FEF8E7AD
:105AE00008B54B88012B04D0022B07D0FFF75EFED0
:105AF00008BDC0F8A43200F0F9F9F9E78B881B0A59
:105B000080F8A03200F0F2F9F2E708B590F89C3284
