:020000040800F2
:100000000000022085140008491300084B13000863
:100010004D1300084F1300085113000800000000A2
:100020000000000000000000000000005313000862
:10003000551300080000000057130008591300086A
:10004000D5140008D5140008D5140008D5140008EC
:10005000D5140008D5140008D5140008D5140008DC
:10006000D5140008D5140008D5140008D5140008CC
:10007000D5140008D5140008D5140008D5140008BC
:10008000D5140008D5140008D5140008D5140008AC
:10009000D5140008D5140008D51400088D400008B8
:1000A000D5140008D5140008D5140008D51400088C
:1000B000D5140008D5140008D5140008D51400087C
:1000C000D5140008D5140008D5140008D51400086C
:1000D000D5140008D5140008D5140008D51400085C
:1000E000D5140008D5140008D5140008D51400084C
:1000F000D5140008D5140008D5140008D51400083C
:10010000D5140008D5140008D5140008D51400082B
:10011000D5140008D5140008D5140008D51400081B
:10012000D5140008D5140008D5140008D51400080B
:10013000D5140008D5140008D5140008D5140008FB
:10014000D5140008D5140008D51400086113000860
:10015000D5140008D5140008D5140008D5140008DB
:10016000D5140008D5140008D5140008D5140008CB
:10017000D5140008D5140008D514000800000000AC
:08018000D5140008D514000895
:1001C00010B5054C237833B9044B13B10448AFF391
:1001D00000800123237010BDA00A00200000000051
:1001E00008BB000808B5034B1BB103490348AFF334
:1001F000008008BD00000000A40A002008BB000821
:1002000053B94AB9002908BF00281CBF4FF0FF317D
:100210004FF0FF3000F074B9ADF1080C6DE904CE79
:1002200000F006F8DDF804E0DDE9022304B07047D1
:100230002DE9F047089E0D4604468846002B4DD117
:100240008A42944668D9B2FA82F252B101FA02F3B4
:10025000C2F1200120FA01F10CFA02FC41EA030884
:1002600094404FEA1C45210CB8FBF5FE1FFA8CF7B1
:1002700005FB1E8341EA03430EFB07F199420BD9AC
:100280001CEB03030EF1FF3080F01E81994240F217
:100290001B81AEF1020E63445B1AA4B2B3FBF5F00E
:1002A00005FB103344EA034400FB07F7A7420AD9D1
:1002B0001CEB040400F1FF3380F00881A74240F2F8
:1002C000058164440238E41B40EA0E4000211EB15F
:1002D000D4400023C6E90043BDE8F0878B4208D92B
:1002E000002E00F0EE800021C6E900050846BDE8BA
:1002F000F087B3FA83F100294AD1AB4202D382429C
:1003000000F2F980841A65EB030301209846002E61
:10031000E2D0C6E90048DFE702B9FFDEB2FA82F2B6
:10032000002A40F09180A1EB0C054FEA1C471FFA10
:100330008CFE0121B5FBF7F307FB1350250C45EAB2
:1003400000450EFB03F0A84208D91CEB050503F19C
:10035000FF3802D2A84200F2CB8043462D1AA4B245
:10036000B5FBF7F007FB105544EA05440EFB00FE11
:10037000A64508D91CEB040400F1FF3502D2A645BE
:1003800000F2BB802846A4EB0E0440EA03409EE73F
:10039000C1F120078B4022FA07FC4CEA030C20FA3B
:1003A00007F405FA01F31C43FD404FEA1C4900FA2B
:1003B00001F3B5FBF9F8200C1FFA8CFE09FB185568
:1003C00040EA054508FB0EF0A84202FA01F20BD9FB
:1003D0001CEB050508F1FF3A80F08880A84240F246
:1003E0008580A8F1020865442D1AA4B2B5FBF9F086
:1003F00009FB105544EA054500FB0EFEAE4508D941
:100400001CEB050500F1FF346CD2AE456AD9023809
:10041000654440EA0840A0FB0294A5EB0E05A54206
:10042000C846A64656D353D05EB1B3EB080265EB7F
:100430000E0505FA07F722FA01F3CD401F43C6E97E
:1004400000750021BDE8F087C2F1200320FA03F116
:100450000CFA02FC25FA03F395400D434FEA1C47C2
:100460001FFA8CFEB3FBF7F107FB11302B0C43EAAC
:10047000004301FB0EF0984204FA02F408D91CEB89
:10048000030301F1FF382FD298422DD9023963447A
:100490001B1AADB2B3FBF7F007FB103345EA034577
:1004A00000FB0EF3AB4208D91CEB050500F1FF3849
:1004B00016D2AB4214D902386544ED1A40EA014124
:1004C00038E73146304607E78646E5E61846FAE65D
:1004D0004B45A9D2B9EB020864EB0C0E0138A3E737
:1004E0004046EAE7204694E74146D1E7D0467BE71D
:1004F000023B654432E7084609E76444023842E7B4
:10050000704700BF00000000000000000000000075
:1005100000000000000000000000000000000000DB
:1005200000000000000000000000000000000000CB
:1005300000000000000000000000000000000000BB
:1005400090F800F06DE9024520F007016FF0000C13
:1005500010F0070491F820F040F049804FF00004BB
:100560006FF00700D1E9002391F840F000F1080096
:1005700082FA4CF2A4FA8CF283FA4CF3A2FA8CF3CE
:100580004BBBD1E9022382FA4CF200F10800A4FA35
:100590008CF283FA4CF3A2FA8CF3E3B9D1E9042389
:1005A00082FA4CF200F10800A4FA8CF283FA4CF3C0
:1005B000A2FA8CF37BB9D1E9062301F1200182FA7A
:1005C0004CF200F10800A4FA8CF283FA4CF3A2FA80
:1005D0008CF3002BC6D0002A04BF04301A4612BA8E
:1005E000B2FA82F2FDE8024500EBD2007047D1E991
:1005F000002304F00305C4F100004FEAC50514F020
:10060000040F91F840F00CFA05F562EA05021CBFF0
:1006100063EA050362464FF00004A9E7000000000A
:1006200001F0FF01102A2BDB10F0070F08D010F8A3
:10063000013B013A8B422DD010F0070F42B3F6D1A7
:10064000F0B441EA012141EA014122F007047FF0C0
:1006500000070023F0E80256083C85EA010586EA17
:10066000010685FA47F5A3FA87F586FA47F6A5FA53
:1006700087F68EB9EED1F0BC01F0FF0102F007025F
:1006800032B110F8013B013A83EA010313B1F8D10A
:100690000020704701387047002D06BF35460338EB
:1006A000073815F0010F07D1013015F4807F02BF24
:1006B000013015F4C03F0130F0BC0138704700BF75
:1006C000844641EA000313F003036DD1403A41D35D
:1006D00051F8043B40F8043B51F8043B40F8043B1C
:1006E00051F8043B40F8043B51F8043B40F8043B0C
:1006F00051F8043B40F8043B51F8043B40F8043BFC
:1007000051F8043B40F8043B51F8043B40F8043BEB
:1007100051F8043B40F8043B51F8043B40F8043BDB
:1007200051F8043B40F8043B51F8043B40F8043BCB
:1007300051F8043B40F8043B51F8043B40F8043BBB
:1007400051F8043B40F8043B51F8043B40F8043BAB
:10075000403ABDD2303211D351F8043B40F8043B4B
:1007600051F8043B40F8043B51F8043B40F8043B8B
:1007700051F8043B40F8043B103AEDD20C3205D35B
:1007800051F8043B40F8043B043AF9D2043208D053
:10079000D2071CBF11F8013B00F8013B01D30B88C5
:1007A00003806046704700BF082A13D38B078DD0A3
:1007B00010F003038AD0C3F10403D21ADB071CBF75
:1007C00011F8013B00F8013B80D331F8023B20F8DF
:1007D000023B7BE7043AD9D3013A11F8013B00F818
:1007E000013BF9D20B7803704B7843708B788370A0
:1007F0006046704781F0004102E000BF83F0004393
:1008000030B54FEA41044FEA430594EA050F08BFAB
:1008100090EA020F1FBF54EA000C55EA020C7FEA6F
:10082000645C7FEA655C00F0E2804FEA5454D4EBEC
:100830005555B8BF6D420CDD2C4480EA020281EAB6
:10084000030382EA000083EA010180EA020281EAEE
:100850000303362D88BF30BD11F0004F4FEA013140
:100860004FF4801C4CEA113102D0404261EB41014F
:1008700013F0004F4FEA03334CEA133302D05242D5
:1008800063EB430394EA050F00F0A780A4F1010491
:10089000D5F1200E0DDB02FA0EFC22FA05F28018CB
:1008A00041F1000103FA0EF2801843FA05F35941B1
:1008B0000EE0A5F120050EF1200E012A03FA0EFC30
:1008C00028BF4CF0020C43FA05F3C01851EBE3715A
:1008D00001F0004507D54FF0000EDCF1000C7EEB77
:1008E00000006EEB0101B1F5801F1BD3B1F5001FB5
:1008F0000CD349085FEA30004FEA3C0C04F10104D4
:100900004FEA445212F5800F80F09A80BCF1004FFC
:1009100008BF5FEA500C50F1000041EB045141EA7E
:10092000050130BD5FEA4C0C404141EB0101013C47
:1009300028BFB1F5801FE9D291F0000F04BF014636
:100940000020B1FA81F308BF2033A3F10B03B3F108
:1009500020020CDA0C3208DD02F1140CC2F10C0298
:1009600001FA0CF021FA02F10CE002F11402D8BFF6
:10097000C2F1200C01FA02F120FA0CFCDCBF41EAC2
:100980000C019040E41AA2BF01EB0451294330BD91
:100990006FEA04041F3C1CDA0C340EDC04F114046E
:1009A000C4F1200220FA04F001FA02F340EA030045
:1009B00021FA04F345EA030130BDC4F10C04C4F18B
:1009C000200220FA02F001FA04F340EA030029466B
:1009D00030BD21FA04F0294630BD94F0000F83F4B5
:1009E000801306BF81F480110134013D4EE77FEA98
:1009F000645C18BF7FEA655C29D094EA050F08BFE4
:100A000090EA020F05D054EA000C04BF19461046C4
:100A100030BD91EA030F1EBF0021002030BD5FEA08
:100A2000545C05D14000494128BF41F0004130BD30
:100A300014F580043CBF01F5801130BD01F0004584
:100A400045F0FE4141F470014FF0000030BD7FEAF7
:100A5000645C1ABF194610467FEA655C1CBF0B46F2
:100A6000024650EA013406BF52EA033591EA030F09
:100A700041F4002130BD00BF90F0000F04BF002101
:100A8000704730B54FF4806404F132044FF0000534
:100A90004FF0000150E700BF90F0000F04BF0021AD
:100AA000704730B54FF4806404F1320410F0004513
:100AB00048BF40424FF000013EE700BF42004FEA0E
:100AC000E2014FEA31014FEA02701FBF12F07F438B
:100AD00093F07F4F81F06051704732F07F4208BF42
:100AE000704793F07F4F04BF41F40021704730B549
:100AF0004FF4607401F0004521F000411CE700BF95
:100B000050EA010208BF704730B54FF000050AE017
:100B100050EA010208BF704730B511F0004502D518
:100B2000404261EB41014FF4806404F132045FEA1A
:100B3000915C3FF4D8AE4FF003025FEADC0C18BFC3
:100B400003325FEADC0C18BF033202EBDC02C2F1B5
:100B5000200300FA03FC20FA02F001FA03FE40EA47
:100B60000E0021FA02F11444BDE600BF70B54FF04B
:100B7000FF0C4CF4E06C1CEA11541DBF1CEA135529
:100B800094EA0C0F95EA0C0F00F0DEF82C4481EA91
:100B9000030621EA4C5123EA4C5350EA013518BFB1
:100BA00052EA033541F4801143F4801338D0A0FB9E
:100BB00002CE4FF00005E1FB02E506F00042E0FB4B
:100BC00003E54FF00006E1FB03569CF0000F18BF51
:100BD0004EF0010EA4F1FF04B6F5007F64F54074F9
:100BE00004D25FEA4E0E6D4146EB060642EAC6218C
:100BF00041EA55514FEAC52040EA5E504FEACE2EF9
:100C0000B4F1FD0C88BFBCF5E06F1ED8BEF1004FFB
:100C100008BF5FEA500E50F1000041EB045170BD77
:100C200006F0004646EA010140EA020081EA0301BB
:100C3000B4EB5C04C2BFD4EB0C0541EA045170BDB7
:100C400041F480114FF0000E013C00F3AB8014F131
:100C5000360FDEBF002001F0004170BDC4F100047A
:100C6000203C35DA0C341BDC04F11404C4F12005FB
:100C700000FA05F320FA04F001FA05F240EA020056
:100C800001F0004221F0004110EBD37021FA04F68C
:100C900042EB06015EEA430E08BF20EAD37070BD46
:100CA000C4F10C04C4F1200500FA04F320FA05F0A5
:100CB00001FA04F240EA020001F0004110EBD370A7
:100CC00041F100015EEA430E08BF20EAD37070BD17
:100CD000C4F1200500FA05F24EEA020E20FA04F3F0
:100CE00001FA05F243EA020321FA04F001F000419F
:100CF00021FA04F220EA020000EBD3705EEA430E10
:100D000008BF20EAD37070BD94F0000F0FD101F03E
:100D10000046400041EB010111F4801F08BF013C77
:100D2000F7D041EA060195F0000F18BF704703F0B5
:100D30000046520043EB030313F4801F08BF013D3C
:100D4000F7D043EA0603704794EA0C0F0CEA1355F8
:100D500018BF95EA0C0F0CD050EA410618BF52EAB2
:100D60004306D1D181EA030101F000414FF00000B8
:100D700070BD50EA410606BF1046194652EA4306C6
:100D800019D094EA0C0F02D150EA013613D195EA3A
:100D90000C0F05D152EA03361CBF104619460AD182
:100DA00081EA030101F0004141F0FE4141F470018C
:100DB0004FF0000070BD41F0FE4141F4780170BD7C
:100DC00070B54FF0FF0C4CF4E06C1CEA11541DBFE1
:100DD0001CEA135594EA0C0F95EA0C0F00F0A7F8E3
:100DE000A4EB050481EA030E52EA03354FEA013110
:100DF00000F088804FEA03334FF0805545EA131323
:100E000043EA12634FEA022245EA111545EA1065EA
:100E10004FEA00260EF000419D4208BF964244F181
:100E2000FD0404F5407402D25B084FEA3202B61AA0
:100E300065EB03055B084FEA32024FF480104FF474
:100E4000002CB6EB020E75EB030E22BFB61A7546E8
:100E500040EA0C005B084FEA3202B6EB020E75EB7B
:100E6000030E22BFB61A754640EA5C005B084FEAE3
:100E70003202B6EB020E75EB030E22BFB61A7546B0
:100E800040EA9C005B084FEA3202B6EB020E75EBBB
:100E9000030E22BFB61A754640EADC0055EA060E7C
:100EA00018D04FEA051545EA16754FEA06164FEABF
:100EB000C30343EA52734FEAC2025FEA1C1CC0D16B
:100EC00011F4801F0BD141EA00014FF000004FF0F8
:100ED000004CB6E711F4801F04BF01430020B4F1B9
:100EE000FD0C88BFBCF5E06F3FF6AFAEB5EB030C71
:100EF00004BFB6EB020C5FEA500C50F1000041EB6E
:100F0000045170BD0EF0004E4EEA113114EB5C043A
:100F1000C2BFD4EB0C0541EA045170BD41F480110D
:100F20004FF0000E013C90E645EA060E8DE60CEA15
:100F3000135594EA0C0F08BF95EA0C0F3FF43BAF32
:100F400094EA0C0F0AD150EA01347FF434AF95EAE9
:100F50000C0F7FF425AF104619462CE795EA0C0FCD
:100F600006D152EA03353FF4FDAE1046194622E79A
:100F700050EA410618BF52EA43067FF4C5AE50EA74
:100F800041047FF40DAF52EA43057FF4EBAE12E764
:100F90004FF0FF3C06E000BF4FF0010C02E000BF45
:100FA0004FF0010C4DF804CD4FEA410C7FEA6C5C28
:100FB0004FEA430C18BF7FEA6C5C1BD001B050EACB
:100FC000410C0CBF52EA430C91EA030F02BF90EAB6
:100FD000020F0020704710F1000F91EA030F58BF75
:100FE000994208BF90422CBFD8176FEAE37040F0D7
:100FF000010070474FEA410C7FEA6C5C02D150EA75
:10100000013C07D14FEA430C7FEA6C5CD6D152EA2F
:10101000033CD3D05DF8040B704700BF84461046F4
:1010200062468C461946634600E000BF01B5FFF7F3
:10103000B7FF002848BF10F1000F01BD4DF808EDC3
:10104000FFF7F4FF0CBF012000205DF808FB00BF94
:101050004DF808EDFFF7EAFF34BF012000205DF8EE
:1010600008FB00BF4DF808EDFFF7E0FF94BF01203B
:1010700000205DF808FB00BF4DF808EDFFF7CEFF3C
:1010800094BF012000205DF808FB00BF4DF808ED7B
:10109000FFF7C4FF34BF012000205DF808FB00BF4C
:1010A0004FEA410C7FEA6C5C02D150EA013C0AD164
:1010B0004FEA430C7FEA6C5C02D152EA033C02D156
:1010C0004FF0000070474FF0010070474FEA4102B7
:1010D00012F5001215D211D56FF47873B3EB62528A
:1010E00012D94FEAC12343F0004343EA505311F0B1
:1010F000004F23FA02F018BF404270474FF0000043
:10110000704750EA013005D111F0004008BF6FF080
:10111000004070474FF00000704700BF82B00021D0
:1011200000910B4B1A6B42F080021A631A6B02F0AB
:1011300080020092009A01911A6B42F001021A6338
:101140001B6B03F001030193019B02B0704700BFCA
:101150000038024072B6FEE700B595B0302200219B
:1011600008A804F021FC002303930493059306933D
:10117000079301931F4A116C41F080511164126C66
:1011800002F080520192019A02931B4B1A6842F4BA
:1011900080421A601B6803F480430293029B012380
:1011A00008934FF48033099302230E934FF4800287
:1011B0000F92042210924822119212930323139348
:1011C00008A801F0C9F980B90F2303930221049103
:1011D000002305934FF480520692079303A801F071
:1011E00021FC20B915B05DF804FBFFF7B3FFFFF752
:1011F000B1FF00BF003802400070004008B50B4846
:1012000000F016F800F08EF9FFF7A6FFFFF786FF53
:1012100004F00EF900F0E2F804F07CFB04F02EFB81
:1012200004F080FB04F030FBFAE700BFC40A0020A2
:1012300008B5054B1860054B1868002302221946B3
:10124000806804F06DFC08BDBC0A0020F00000209E
:10125000022801D80120704708B504F07BFB092360
:101260000360002008BD000010B5013801280AD82D
:1012700014464FF0FF3392B20748006801F01FFF99
:1012800040B9204610BD04F065FB092303604FF010
:10129000FF30F7E70520F5E7BC0A0020022801D857
:1012A0000020704708B504F055FB092303604FF098
:1012B000FF3008BD08B504F04DFB092303604FF073
:1012C000FF3008BD08B548B94FF0FF330122084888
:1012D000006801F060FF40B9012008BD04F03AFB4E
:1012E000092303604FF0FF30F7E70520F5E700BF63
:1012F000BC0A002008B5022804D84FF400534B6004
:10130000002008BD04F026FB09230360F8E7000075
:1013100082B0002100910B4B5A6C42F480425A6417
:101320005A6C02F480420092009A01911A6C42F0C9
:1013300080521A641B6C03F080530193019B02B02E
:10134000704700BF00380240FEE7FEE7FEE7FEE719
:10135000FEE770477047704708B500F0FDF808BD1C
:1013600008B5024800F0EBFD08BD00BF38100020B2
:101370000120704708B504F0EDFA162303604FF022
:10138000FF3008BD08B54FF0FF31FFF7F3FFFEE770
:1013900010B503460C4A0D490D48006840B10C4891
:1013A00000680344521A934206D8094A136010BDDC
:1013B0000748084C0460F2E704F0CCFA0C23036001
:1013C0004FF0FF30F3E700BF0000022000100000E4
:1013D000C00A0020A81500207047000008B50A4880
:1013E0000A4B03604FF4E133436000238360C36022
:1013F00003610C2242618361C36101F031FE00B9D7
:1014000008BDFFF7A7FEFBE7C40A0020001001405B
:1014100000B589B0002303930493059306930793C3
:10142000026803F1804303F588339A4202D009B081
:101430005DF804FB0021019103F594335A6C42F0EE
:1014400010025A645A6C02F010020192019A029141
:101450001A6B42F001021A631B6B03F00103029343
:10146000029B4FF4C0630393022304930323069368
:101470000723079303A9024800F000F9D7E700BF4C
:1014800000000240DFF834D00D480E490E4A002318
:1014900002E0D458C4500433C4188C42F9D30B4A28
:1014A0000B4C002301E013600432A242FBD3FFF790
:1014B00093FF04F055FAFFF7A1FE704700000220E9
:1014C00000000020A00A00201CC00008A00A002084
:1014D000A8150020FEE7000010B504460E4B187852
:1014E0004FF47A73B3FBF0F30C4A1068B0FBF3F0DF
:1014F00000F0B0F868B90F2C01D901200AE00022F1
:1015000021464FF0FF3000F05FF8054B1C600020D3
:1015100000E0012010BD00BF0400002000000020FA
:101520000800002008B50B4B1A6842F400721A60DC
:101530001A6842F480621A601A6842F480721A6073
:10154000032000F02FF80F20FFF7C6FFFFF7E0FEA3
:10155000002008BD003C0240034A1168034B1B7881
:101560000B441360704700BF080B002004000020EC
:10157000014B1868704700BF080B002038B50446BF
:10158000FFF7F6FF0546B4F1FF3F02D0044B1B788E
:101590001C44FFF7EDFF401BA042FAD338BD00BF4B
:1015A00004000020074AD36823F4E0631B041B0CEB
:1015B000000200F4E060034343F0BF6343F40033F0
:1015C000D360704700ED00E000B5194BDB68C3F352
:1015D0000223C3F1070CBCF1040F28BF4FF0040C29
:1015E00003F1040EBEF1060F18D9033B4FF0FF3E86
:1015F0000EFA0CFC21EA0C0199400EFA03F322EAE0
:101600000303194300280BDB0901C9B200F1604054
:1016100000F5614080F800135DF804FB0023E5E766
:1016200000F00F000901C9B2024B1954F4E700BFE2
:1016300000ED00E014ED00E0002807DB00F01F02E1
:10164000400901239340024A42F82030704700BF0E
:1016500000E100E00138B0F1807F0BD24FF0E023D1
:101660005861054AF02182F8231000209861072272
:101670001A6170470120704700ED00E000230F2B36
:1016800000F2E48070B582B060E085685E000324FB
:10169000B44025EA0405CC68B4402C438460456816
:1016A00025EA02054C68C4F300129A402A434260BE
:1016B0005AE0DC08083450F8246003F00702950073
:1016C0000F22AA4026EA020E0A69AA4042EA0E0246
:1016D00040F824205CE0072200E0002202FA0EF22B
:1016E0002A4302345A4D45F824205A4A94686FEA36
:1016F0000C0224EA0C054E6816F4801F01D04CEA57
:101700000405544CA560E46802EA04054E6816F42A
:10171000001F01D04CEA04054E4CE560646802EA03
:1017200004054E6816F4003F01D04CEA0405494C0C
:101730006560246822404D6815F4803F01D04CEA72
:101740000402444C226001330F2B7DD801229A40C1
:101750000C6804EA020C32EA0404F4D14C6804F088
:101760000304013C012C90D94A6802F00302032AC9
:1017700009D0C4685D000322AA4024EA02048A68F2
:10178000AA402243C2604A6802F00302022A90D0B3
:1017900004684FEA430E032202FA0EF224EA02041E
:1017A0004A6802F0030202FA0EF2224302604A681B
:1017B00012F4403FC7D000220192274A546C44F4EF
:1017C00080445464526C02F480420192019A9C0855
:1017D000A51C1F4A52F8255003F003024FEA820E5F
:1017E0000F2202FA0EF225EA02051C4A90423FF44B
:1017F00074AF02F5806290421AD002F58062904286
:1018000018D002F58062904216D002F580629042B4
:1018100014D002F58062904212D002F580629042AC
:1018200010D002F5806290423FF455AF082255E790
:10183000012253E7022251E703224FE704224DE73A
:1018400005224BE7062249E702B070BD704700BF92
:1018500000380140003C01400038024000000240D6
:101860000369194201D001207047002070470AB176
:1018700081617047090481617047000008B5054B1C
:101880005B69034200D108BD024B586102F006FCBF
:10189000F9E700BF003C01402DE9F04383B0D0F8E8
:1018A000008001EBC10300EB8303DA6D5B6D9A42AC
:1018B00054D807460C469B1A01EBC10200EB82028A
:1018C000926C9A4200D31A4602F103094FEA990931
:1018D00015E006F103094FEA990904EBC40507EB8B
:1018E0008505E96C3B7C0093B3B2E2B2404602F05E
:1018F00091F8EB6C3344EB64EB6D3344EB6508EB30
:10190000441303F510639B699BB24B4512D304EB60
:10191000C40207EB8202D16D536D99420AD24BB1DA
:101920005B1A04EBC40207EB8202966C9E42D0D392
:101930001E46CEE704EBC40007EB80077A6DFB6D13
:101940009A420FD804F00F040123A340D8F834487A
:1019500024EA0304C8F83448002000E0012003B062
:10196000BDE8F0830020FAE770B58AB0002800F0E7
:1019700090800546046890F8BD343BB3032385F896
:10198000BD34E36B13F4807F01D100232B61286801
:1019900001F05AFD2C4654F8106BEC460FCCACE825
:1019A0000F000FCCACE80F0094E803008CE80300B4
:1019B0002B1D0ECB304601F089FC044658B10223A2
:1019C00085F8BD34012420460AB070BD80F8BC34CF
:1019D00003F002FED2E70021286802F032FA234623
:1019E00016E003EBC30205EB8202012182F83D10F1
:1019F00082F83C30A2F84430002182F84010916413
:101A0000D16403EBC30205EB820251650133DBB203
:101A100069688B42E5D316E004EBC40305EB83034E
:101A2000002283F87D2283F87C4283F88022C3F869
:101A30008822C3F88C2204EBC40305EB8303C3F8AC
:101A400094220134E4B2A142E6D82C4654F8106B3B
:101A5000EC460FCCACE80F000FCCACE80F0094E8DC
:101A600003008CE803002B1D0ECB304601F048FD2F
:101A7000044620B1022385F8BD340124A3E70023E6
:101A800085F83830012385F8BD34286802F097F9CD
:101A900099E7012497E7026890F8BC34012B19D02C
:101AA00010B50446012380F8BC34836A012B09D0A9
:101AB000206801F0C3FC206802F073F9002084F86C
:101AC000BC0410BD8369012BF2D0936B43F48033C7
:101AD0009363EDE70220704770B504460D46006839
:101AE000066C00EB411303F530639A682169012904
:101AF00011D038498E4256D03DB905EBC50304EBF1
:101B00008303D3F89432002B5ED0E9B2204603F071
:101B1000ADFD002070BD12F0080F09D02E498E4295
:101B2000F7D912F4004FF4D04FF400429A60F0E776
:101B300012F0200F02D020229A60EAE712F0280F5C
:101B4000E7D125498E4206D912F4004F03D04FF455
:101B500000429A60DDE705EBC50204EB8202D2F891
:101B600098121B69C3F31203CB1AC2F89C327DB9D9
:101B700005EBC50204EB8202D2F894226AB105EBB0
:101B8000C50204EB8202D2F88C120B44C2F88C32EC
:101B9000E9B2204603F06AFDBBE704F2C44201212A
:101BA00002F090F9F4E712F4004F03D04FF4004232
:101BB0009A60AEE712F0200F01D020229A60E9B2BD
:101BC000204603F053FDA4E704F2C442002102F0D2
:101BD00079F99AE70A31544F0A30544F38B5044620
:101BE00003681D6C03EB4113D3F8081B0E4A9542A2
:101BF00007D903F5306311F4004F02D04FF40042CF
:101C00009A60204603F02AFD074B9D4202D92369C2
:101C1000012B01D0002038BD04F2C442012120680C
:101C200002F050F9F6E700BF0A30544F90F8BC3488
:101C3000012B0DD010B50446012380F8BC3480F888
:101C40003810006802F09DF8002084F8BC0410BD34
:101C50000220704738B505468C4611F0800F29D117
:101C600001F00F0E0EEBCE04A40004F51E74044424
:101C7000211D0EEBCE0E00EB8E0E00208EF87D02A5
:101C80000CF00F0C81F800C0CA600B714A780AB1E1
:101C9000A1F808C0022B1DD095F8BC34012B1CD034
:101CA000012385F8BC34286801F003FD002085F885
:101CB000BC0438BD01F00F0000EBC00189003831D1
:101CC0002944043100EBC00005EB8000012480F8BA
:101CD0003D40D5E700234B71DEE70220E9E710B570
:101CE00004460A4611F0800F20D101F00F0000EBEE
:101CF000C0039B0003F51E732344191D00EBC000B5
:101D000004EB8000002380F87D3202F00F020A709D
:101D100094F8BC34012B19D0012384F8BC3420681A
:101D200001F016FD002084F8BC0410BD01F00F0086
:101D300000EBC0039B0038332344191D00EBC000A7
:101D400004EB8000012380F83D30DEE70220ECE761
:101D500010B501F00F0404EBC401890001F51E71F8
:101D60000144043104EBC40C00EB8C0CCCF88C2245
:101D7000CCF894320023CCF89C328CF87D328CF86D
:101D80007C420369012B06D064B9DAB2006801F025
:101D90004FFD002010BD04EBC40C00EB8C0CCCF804
:101DA0009022F1E7DAB2006801F04CFEF1E710B5DD
:101DB00001F00F0404EBC4018900383101440431FF
:101DC00004EBC40C00EB8C0CCCF84C20CCF8543059
:101DD0000023CCF85C3001238CF83D308CF83C407B
:101DE0000369012B06D064B9DAB2006801F020FD66
:101DF000002010BD04EBC40C00EB8C0CCCF8502080
:101E0000F1E7DAB2006801F01DFEF1E738B501F044
:101E10000F054268954239D804460B4611F0800FF1
:101E20001FD101EBC101890001F51E71014404318C
:101E300003EBC30300EB8303002283F87D2201231D
:101E40008B700D7094F8BC34012B21D0012384F8E1
:101E5000BC34206801F03AFF8DB1002084F8BC0446
:101E600038BD05EBC501890038310144043105EB6B
:101E7000C50300EB8303012283F83D20DFE704F272
:101E8000C442217C206802F01DF8E6E70120E7E764
:101E90000220E5E701F00F034268934231D810B504
:101EA000044611F0800F1ED103EBC301890001F538
:101EB0001E710144043103EBC30200EB82020020D7
:101EC00082F87D0200228A700B7094F8BC34012BDA
:101ED00019D0012384F8BC34206801F024FF0020CD
:101EE00084F8BC0410BD03EBC30189003831014400
:101EF000043103EBC30200EB8202012082F83D00B3
:101F0000E0E7012070470220ECE708B511F0800FF0
:101F10000CD101F00F0101EBC101890001F51E7127
:101F200001440431006801F017FD08BD01F00F0104
:101F300001EBC1018900383101440431F2E72DE998
:101F4000F04F83B004460568284601F076FF10B1D3
:101F500003B0BDE8F08F0646206801F03EFF002880
:101F6000F6D005F50067BB68C3F30D23C4F8FC3455
:101F7000206801F032FF10F0020F04D0226853698C
:101F800003F002035361206801F027FF10F0100FE7
:101F900013D02268936923F010039361D5F8208051
:101FA00008F00F09C8F34343022B4BD0062B6FD028
:101FB0002268936943F010039361206801F00DFFDC
:101FC00010F4002F76D1206801F007FF10F4802F65
:101FD00040F0E080206801F000FF0028C0F263813B
:101FE000206801F0FAFE10F4006F09D0BB6813F00E
:101FF000010F40F070812268536903F4006353615C
:10200000206801F0EAFE10F4805F40F068812068EB
:1020100001F0E3FE10F4005F40F0B581206801F0AC
:10202000DCFE10F0080F40F0C681206801F0D5FEFC
:1020300010F0800F00F0D981AB6923F08003AB6111
:102040000126C2E147F6F07318EA030FB0D04FEA59
:10205000181B4FEAC903019309EBC90A04EB8A0A6A
:10206000C8F30A12DAF88C12284601F005FECBF309
:102070000A0BDAF88C325B44CAF88C32019B4B4471
:1020800004EB8303D3F89C325B44CAF89C328FE79D
:10209000082204F2C441284601F0EEFDC8F30A18F4
:1020A00009EBC90204EB8202D2F89C324344C2F825
:1020B0009C327DE7206801F094FE8046B14635E011
:1020C00005EB49130122C3F8082B49462046FFF7C8
:1020D00003FD3CE005EB49130822C3F8082B4946F1
:1020E0002046FFF77BFD35E009EBC90304EB8303D2
:1020F00093F87F32012B41D005EB49130222C3F83C
:10210000082B1AF0200F04D005EB49132022C3F846
:10211000082B1AF4005F05D005EB49134FF4005269
:10212000C3F8082B09F101094FEA5808B8F1000F6C
:102130003FF449AF18F0010FF4D05FFA89FB59461C
:10214000206801F05EFE824610F0010FB8D11AF04F
:10215000080FBFD11AF0100F04D005EB491310225D
:10216000C3F8082B1AF0020FCBD06B6913F0800F65
:10217000BAD07B6843F480637B60B5E709EBC903A1
:1021800004EB8303002283F87F225946204603F0A4
:10219000BFFAB1E7206801F02CFE8046B14625E089
:1021A0005946204603F06EFA1AF0080F04D005EBEA
:1021B00049130822C3F808291AF0100F04D005EBC0
:1021C00049131022C3F808291AF0400F04D005EB78
:1021D00049134022C3F808291AF0020F40D11AF01F
:1021E000800F5BD109F101094FEA5808B8F1000FDF
:1021F0003FF4F0AE18F0010FF4D05FFA89FB5946B6
:10220000206801F007FE824610F0010FCCD009F0E3
:102210000F03012101FA03F27B6B23EA02037B63C4
:1022200005EB4913C3F8081923698B42B8D109EBB0
:10223000C90304EB8303996CDA6C0A44DA64B9F1DC
:10224000000FADD109EBC90304EB83035B6D002BD9
:10225000A6D104F2C4420121206801F033FE9FE7B9
:102260004946284601F0F6F809EBC90304EB83035D
:1022700093F83F30012B05D005EB49130222C3F838
:102280000829ACE709EBC90304EB8303002283F8B8
:102290003F205946204603F041FAEDE749462046E3
:1022A000FFF7FAFA9EE77B6823F001037B6094F85E
:1022B000F434012B08D0204603F024FA2268536935
:1022C00003F0004353618BE6002184F8F4142046A8
:1022D00000F040F9F2E7204603F0FCF98BE67B685A
:1022E00023F001037B601021206801F0B3F81AE0AD
:1022F00005EB46134FF67F31C3F80819D3F80029D0
:1023000022F40012C3F80029C3F8081BD3F8002BED
:1023100022F40012C3F8002BD3F8002B42F0006225
:10232000C3F8002B01366368B342E1D8FB6943F080
:102330000113FB61236BDBB1D7F8843043F00B034F
:10234000C7F884307B6C43F00B037B64D5F800380E
:1023500023F4FE63C5F8003804F2C442217C2068EF
:1023600001F0B0FD2268536903F4805353614EE6D7
:102370007B6943F4005343F02B037B613B6943F0DB
:102380000B033B61E2E7206801F08CFD206801F05F
:102390007FF9E060266800F0F5FB0146227B3046BD
:1023A00000F0DAFF204603F07EF92268536903F457
:1023B0000053536132E6204603F06FF922685369F7
:1023C00003F00803536130E601366368B3420CD969
:1023D00006EBC60304EB830393F87F32012BF3D1A2
:1023E000F1B22046FFF791FDEEE7206801F0F5FC21
:1023F00010F4801F27D1206801F0EFFC10F4001FBB
:102400005BD0012328E001366368B3421DD905EB98
:102410004613D3F8002906EBC60304EB830393F8B5
:102420004030012BEFD1002AEDDA06EBC60304EBB6
:102430008303012283F83F2066F07F01C9B2204662
:10244000FFF763FDDFE70126DEE72268536903F447
:1024500080135361CFE7013362689A4228D905EBB4
:102460004312D2F8001B03EBC30204EB820292F882
:102470008022012AEFD10029EDDA01F48031D4F86D
:10248000FC2402F001029142E5D103EBC30204EB0C
:102490008202012182F87F12AA6942F08002AA61B9
:1024A0006A6912F0800FD6D17B6843F400737B60B9
:1024B0002268536903F400135361206801F08DFC16
:1024C00010F0804F10D1206801F087FC10F0040F4D
:1024D0003FF43EAD23685D6815F0040F0DD122680E
:1024E00053682B43536033E5204603F01DF92268FF
:1024F000536903F080435361E5E7204603F01AF97E
:10250000EDE710B40468606A29B940EA0240A062AD
:10251000002010BC70478C46A36A00EB13400023D8
:1025200008E003F1400104EB8101496800EB114030
:102530000133DBB20CF1FF318B42F2D340EA0240AF
:102540000CF13F0104EB81014860E1E70368596247
:102550000020704770470000002800F0E08170B54F
:1025600082B00446036813F0010F3BD09F4B9B6879
:1025700003F00C03042B2CD09C4B9B6803F00C0342
:10258000082B21D06368B3F5803F4FD0B3F5A02F5F
:1025900052D0964B1A6822F480321A601A6822F4DC
:1025A00080221A606368002B50D0FEF7E1FF0546D9
:1025B0008E4B1B6813F4003F14D1FEF7D9FF401B6C
:1025C0006428F5D90320B1E1884B5B6813F4800FD0
:1025D000D8D0864B1B6813F4003F03D06368002BF0
:1025E00000F09F81236813F0020F54D07F4B9B684B
:1025F00013F00C0F3ED07D4B9B6803F00C03082BAF
:1026000033D0E368002B68D0794B01221A60FEF7C3
:10261000AFFF0546754B1B6813F0020F54D1FEF750
:10262000A7FF401B0228F5D903207FE16F4A1368FA
:1026300043F480331360B5E76C4B1A6842F4802290
:102640001A601A6842F480321A60ABE7FEF790FF16
:102650000546664B1B6813F4003FC3D0FEF788FFA6
:10266000401B6428F5D9032060E1604B5B6813F4DC
:10267000800FC6D15D4B1B6813F0020F03D0E368D7
:10268000012B40F05081594A136823F0F803216967
:1026900043EAC1031360236813F0080F42D0636953
:1026A0006BB3534B0122C3F8802EFEF761FF054642
:1026B0004E4B5B6F13F0020F34D1FEF759FF401BF6
:1026C0000228F5D9032031E1484A136823F0F803C2
:1026D000216943EAC1031360DDE7454B00221A601C
:1026E000FEF746FF0546414B1B6813F0020FD2D0A0
:1026F000FEF73EFF401B0228F5D9032016E13C4BB4
:102700000022C3F8802EFEF733FF0546374B5B6F80
:1027100013F0020F06D0FEF72BFF401B0228F5D95D
:10272000032003E1236813F0040F77D02F4B1B6CB9
:1027300013F0805F33D1002301932C4B1A6C42F0CD
:1027400080521A641B6C03F080530193019B012596
:10275000284B1B6813F4807F23D0A368012B34D04F
:10276000052B38D0214B1A6F22F001021A671A6F1D
:1027700022F004021A67A368002B3DD0FEF7F8FE92
:1027800006461A4B1B6F13F0020F46D1FEF7F0FE00
:10279000801B41F288339842F3D90320C6E000251C
:1027A000D6E7144A136843F480731360FEF7E0FE23
:1027B0000646104B1B6813F4807FCED1FEF7D8FE7F
:1027C000801B0228F5D90320B0E0084A136F43F0BC
:1027D00001031367CFE7054B1A6F42F004021A6733
:1027E0001A6F42F001021A67C5E700BF00380240C5
:1027F0000000474200700040FEF7BAFE0646524B0A
:102800001B6F13F0020F08D0FEF7B2FE801B41F2DF
:1028100088339842F3D9032088E0EDB9A369002BEF
:1028200000F08380484A926802F00C02082A51D0D6
:10283000022B17D0454B00221A66FEF799FE04467C
:10284000414B1B6813F0007F42D0FEF791FE001B46
:102850000228F5D9032069E03B4A136C23F080532A
:102860001364DBE7394B00221A66FEF781FE05464A
:10287000354B1B6813F0007F06D0FEF779FE401B36
:102880000228F5D9032051E0E369226A1343626A02
:1028900043EA8213A26A5208013A43EA0243E26A17
:1028A00043EA0263284A5360284B01221A66FEF766
:1028B0005FFE0446244B1B6813F0007F06D1FEF731
:1028C00057FE001B0228F5D903202FE000202DE041
:1028D00000202BE0012B2BD01B4B5B6803F4800105
:1028E000E269914226D103F03F02216A8A4223D154
:1028F000616A47F6C0721A40B2EB811F1ED103F421
:102900004031A26A5208013AB1EB024F18D103F0EC
:102910007063E26AB3EB026F14D1002006E001207D
:102920007047012002E0012000E0002002B070BDED
:102930000120FBE70120F9E70120F7E70120F5E797
:102940000120F3E70120F1E7003802400000474290
:1029500008B5314B9B6803F00C03042B57D0082BB0
:1029600057D12D4B5A6802F03F025B6813F4800F79
:102970002AD0294B5968C1F3881C4FEA4C11B1EB9E
:102980000C006EEB0E0E4FEA8E1343EA906381014A
:10299000091A63EB0E03DB0043EA5173C90011EB24
:1029A0000C0C43F10003590200234FEA4C2041EA8A
:1029B000DC51FDF725FC184B5B68C3F30143013381
:1029C0005B00B0FBF3F025E0134B5968C1F3881CA2
:1029D0004FEA4C11B1EB0C006EEB0E0E4FEA8E136A
:1029E00043EA90638101091A63EB0E03DB0043EABB
:1029F0005173C90011EB0C0C43F100039902002341
:102A00004FEA8C2041EA9C51FDF7FAFBD3E70348DB
:102A100000E0034808BD00BF0038024000127A0001
:102A20000024F400002800F09B8070B50D46044699
:102A30004F4B1B6803F007038B4208D2CBB24C4AC2
:102A40001370136803F007038B4240F08B802368F8
:102A500013F0020F17D013F0040F04D0454A936807
:102A600043F4E0539360236813F0080F04D0414A05
:102A7000936843F4604393603E4A936823F0F00305
:102A8000A1680B439360236813F0010F32D0636891
:102A9000012B21D09A1E012A25D9364A126812F03C
:102AA000020F61D033498A6822F0030213438B601E
:102AB000FEF75EFD06462F4B9B6803F00C03626831
:102AC000B3EB820F16D0FEF753FD801B41F2883323
:102AD0009842F0D9032042E0264A126812F4003FDF
:102AE000E0D101203BE0234A126812F0007FD9D1E7
:102AF000012034E01E4B1B6803F00703AB4207D9EB
:102B0000EAB21B4B1A701B6803F00703AB422DD1CE
:102B1000236813F0040F06D0164A936823F4E05399
:102B2000E1680B439360236813F0080F07D0114A44
:102B3000936823F46043216943EAC1039360FFF77C
:102B400007FF0C4B9B68C3F303130B4AD35CD840BD
:102B50000A4B18600A4B1868FEF7BEFC002070BDD7
:102B6000012070470120FAE70120F8E70120F6E78D
:102B7000003C02400038024020BB0008000000205A
:102B800008000020014B1868704700BF00000020BB
:102B900008B5FFF7F7FF044B9B68C3F38223034A92
:102BA000D35CD84008BD00BF0038024030BB0008ED
:102BB00008B5FFF7E7FF044B9B68C3F34233034AB2
:102BC000D35CD84008BD00BF0038024030BB0008CD
:102BD0000368304A904212D0B0F1804F0FD0A2F576
:102BE0007C4290420BD002F58062904207D002F501
:102BF0008062904203D002F57842904203D123F0E4
:102C000070034A681343234A90422AD0B0F1804FA0
:102C100027D0A2F57C42904223D002F580629042F8
:102C20001FD002F5806290421BD002F5784290429C
:102C300017D002F57052904213D002F58062904294
:102C40000FD002F5806290420BD0A2F598329042EC
:102C500007D002F58062904203D002F58062904274
:102C600003D123F44073CA68134323F080034A69F5
:102C7000134303608B68C3620B688362054B984201
:102C800003D003F58063984201D10B6903630123EC
:102C90004361704700000140002857D070B50D46D1
:102CA000044690F83D30002B4BD0022384F83D3091
:102CB0002268936823F4804323F00703936021463E
:102CC00051F8040BFFF784FF21688A688B690E6A4C
:102CD0002868104323F4407C2CF0030CAA68AB69ED
:102CE00042EA032343EA0C0323F47C4323F0FC036E
:102CF000EA69D5F80CC04CEA022C4CEA030C2A6AAB
:102D000013032A6943EA021343EA0C0326F0AA06D6
:102D10006A686D6942EA05123243886021688B61F6
:102D200023681A62012384F8463084F83E3084F820
:102D30003F3084F8423084F8433084F83D3000203E
:102D400070BD80F83C3001F097FBAEE70120704782
:102D500001F01F01012303FA01FC036A23EA0C03BB
:102D60000362036A02FA01F10B430362704738B54C
:102D7000044690F83E00C0B294F83F3094F84220E8
:102D8000D2B294F843C00D46B1B9012849D1012A05
:102D900048D1022384F83E3084F842307DB3042DBC
:102DA00039D0012200212068FFF7D2FF012204213F
:102DB0002068FFF7CDFF27E0DBB25FFA8CFC042927
:102DC00012D0012833D1012B2CD1012A31D1BCF1F1
:102DD000010F30D1022384F83E3084F83F3084F86C
:102DE000423084F84330D9E7012B1CD1BCF1010FEC
:102DF0001BD1022384F83F3084F84330CEE7012210
:102E000000212068FFF7A4FF2268136843F0010344
:102E10001360002006E0012204212068FFF798FFDC
:102E2000F2E7012038BD0120FCE71846FAE701204F
:102E3000F8E71846F6E71046F4E7000090F83C3053
:102E4000012B3CD010B4012380F83C30022380F8E1
:102E50003D3003685A689C6822F0700C0A6842EAA8
:102E60000C025A600368174A93421AD0B3F1804F9C
:102E700017D0A2F57C42934213D002F580629342B0
:102E80000FD002F5806293420BD002F57842934254
:102E900007D002F57052934203D0A2F594329342C8
:102EA00004D124F080044A6814439C60012380F814
:102EB0003D30002380F83C30184610BC704702209B
:102EC000704700BF0000014038B50446026813692E
:102ED00023F44053C1680B431361836802691343B1
:102EE00042691343C2691A430168CB6823F416434D
:102EF00023F00C031343CB600268536923F440733F
:102F000081690B4353610368314A934206D002F54D
:102F10008062934202D0FFF73BFE01E0FFF748FEDC
:102F2000E369B3F5004F29D00021031849411B186C
:102F300041F10001C90041EA5371DB0018186368D0
:102F40004FEA83024FEA937341F10001FDF758F90C
:102F5000204DA5FB00325109642303FB11031B0123
:102F60003233A5FB03235B0903F0F00202EB0112ED
:102F700003F00F03216813448B6038BD002302184F
:102F800043EB0301121841F10001C90041EA5271FB
:102F9000D200101841F10001626892185B41FDF700
:102FA0002FF90C4DA5FB00325109642303FB1103DB
:102FB000DB003233A5FB03235B095A0002F4F872ED
:102FC00002EB011203F00703216813448B60D4E77E
:102FD000001001401F85EB512DE9F84305460F46CF
:102FE00016469946DDF820802C68246837EA0403E9
:102FF0000CBF4FF0010C4FF0000CB4452DD1B8F1CF
:10300000FF3FF1D0B8F1000F05D0FEF7B1FAA0EB09
:1030100009004045E8D92A6802F10C0353E8003F53
:1030200023F4D0730C3242E800310029F3D12A682E
:1030300002F1140353E8003F23F00103143242E885
:1030400000310029F3D1202385F83D3085F83E304A
:10305000002385F83C30032000E00020BDE8F88321
:1030600058B310B5044690F83D300BB3242384F8D0
:103070003D302268D36823F40053D3602046FFF725
:1030800023FF2268136923F4904313612268536974
:1030900023F02A0353612268D36843F40053D360BA
:1030A00000202064202384F83D3084F83E3010BD99
:1030B00080F83C30FEF7ACF9D8E7012070472DE9E5
:1030C000F04182B01E4690F83D30DBB2202B54D147
:1030D00004460D469046002953D0002A53D090F85C
:1030E0003C30012B51D0012380F83C300023036495
:1030F000212380F83D30FEF73BFA0746A4F82480F0
:10310000A4F82680A368B3F5805F05D04FF00008CF
:10311000002384F83C3012E0236913B14FF000081B
:10312000F6E7A8460025F3E738F8023B2268C3F328
:1031300008035360E28C92B2013A92B2E284E38CCB
:103140009BB273B100963B46002280212046FFF7D8
:1031500043FFE0B9002DE7D015F8012B23685A6032
:10316000E8E700963B46002240212046FFF734FF67
:1031700078B9202384F83D3000E0022002B0BDE899
:10318000F0810120FAE70120F8E70220F6E70320AA
:10319000F4E70320F2E72DE9F04182B01E4690F8F3
:1031A0003E30DBB2202B5CD104460D469046002910
:1031B0005BD0002A5BD090F83C30012B59D0012322
:1031C00080F83C3000230364222280F83E20036311
:1031D000FEF7CEF90746A4F82C80A4F82E80A36849
:1031E000B3F5805F05D04FF00008002384F83C3031
:1031F00017E0236913B14FF00008F6E7A846002551
:10320000F3E723685B68C3F3080328F8023B03E095
:1032100023685B682B700135E28D92B2013A92B25D
:10322000E285E38D9BB2BBB100963B460022202194
:103230002046FFF7D1FEF0B9002DE2D0A368B3F528
:10324000805FE5D013B92369002BE1D023685B6868
:1032500003F07F032B70DEE7202384F83E3000204C
:1032600000E0022002B0BDE8F0810120FAE7012071
:10327000F8E70220F6E70320F4E7000082B000231D
:103280000193019B01330193019A0F4B9A4215D888
:103290000369002BF5DA00230193036943F001036E
:1032A0000361019B01330193019A074B9A4208D8AD
:1032B000036913F0010FF4D1002000E0032002B0F5
:1032C00070470320FBE700BF400D030084B010B53A
:1032D000044603A880E80E00089B012B1FD1A36BB6
:1032E00023F48033A363E36823F4840323F04003CF
:1032F000E360E36823F44013E3600F9B012B09D0E4
:103300002046FFF7BBFF069B012B1BD0BDE81040FA
:1033100004B07047E36843F48013E360F0E7E368C8
:1033200043F04003E3602046FFF7A8FF0C9B23B95E
:10333000A36B43F48033A363E5E7A36B23F48033EB
:10334000A363E0E7A36843F00603A360A36843F028
:103350002003A360DAE70000022A0AD00921C2682C
:1033600022F47052C260C36843EA8123C360002024
:103370007047234B0B44234A93422FD9224B0B44D3
:10338000224A93422CD9A1F57403A3F51053204A85
:10339000934227D9A1F18373A3F5E7431D4A9342D2
:1033A00022D31D4B0B441D4A93421FD91C4B0B4487
:1033B0001C4A93421CD31C4B0B441C4A934219D306
:1033C000A1F1B773A3F55853194A934214D3194B7B
:1033D0000B44194A934211D20721C0E70F21BEE7DF
:1033E0000E21BCE70D21BAE70C21B8E70B21B6E7A7
:1033F0000A21B4E70921B2E70821B0E70621AEE7C8
:10340000405327FFFF340C00401E1BFF3F420F00BC
:103410007F4F120020D6130060B6E5FE5FE3160072
:1034200000D3CEFE40771B00C05BB3FEC0912100ED
:1034300020753800E05459FEE09C4100836843F059
:103440000103836000207047836823F001038360D9
:103450000020704782B000230193019B0133019348
:10346000019A0F4B9A4215D80369002BF5DA002315
:103470000193890141F020010161019B0133019316
:10348000019A074B9A4208D8036913F0200FF4D130
:10349000002000E0032002B070470320FBE700BFDC
:1034A000400D030082B000230193019B013301937F
:1034B000019A0E4B9A4213D80369002BF5DA0023C8
:1034C000019310230361019B01330193019A074B80
:1034D0009A4208D8036913F0100FF4D1002000E0DD
:1034E000032002B070470320FBE700BF400D03003C
:1034F000D0F800381943C0F80018002070470000C9
:1035000084B02DE9F041044607A880E80E000023AE
:1035100006E003F1400204EB820200215160013316
:103520000E2BF6D9119F27BBD4F8043843F00203C1
:10353000C4F80438A36B43F40013A363A36B23F410
:103540000023A363A36B23F48023A3630023C4F8A5
:10355000003E04F50065D4F80038C4F800380C9B30
:10356000012B14D1099B6BB900212046FFF7C0FF46
:1035700011E0A36B23F40013A363A36B43F40023B4
:10358000A363E3E701212046FFF7B2FF03E0032135
:103590002046FFF7ADFF10212046FFF75BFF804676
:1035A00008B14FF001082046FFF77CFF08B14FF04B
:1035B000010800232B616B61EB610AE0C3B94FF096
:1035C0000060C2F8000900220A614FF67F328A606B
:1035D00001330799994210D904EB431202F51061A7
:1035E000D2F800090028E9DB0020C2F80009EAE768
:1035F0004FF09040C2F80009E5E700230AE0C3B1AC
:103600004FF0904CC2F800CB002202614FF67F329F
:1036100082600133994211D904EB431202F5306004
:10362000D2F8006B002EEADB4FF0000CC2F800CBA2
:10363000EAE74FF0006CC2F800CBE5E72B6923F412
:1036400080732B610023A3616FF0804363610A9B49
:103650001BB9A36943F01003A361A2690B4B134389
:10366000A3610D9B1BB1A36943F00803A361012F64
:1036700004D04046BDE8F04104B07047A36943F070
:10368000804343F00403A361F3E700BF00383C80AC
:10369000D0F8083813F0060307D0022B07D0062B0A
:1036A00001D00F2070470220704700207047022091
:1036B000704710B591F800C04B78012B23D000F56E
:1036C000006ED0F81C380CF00F040122A24043EA2F
:1036D0000243C0F81C3800EB4C10D0F8003B13F448
:1036E000004F0ED1D0F8003BCA68C2F30A02097934
:1036F00042EA8142134343F0805343F40043C0F84D
:10370000003B002010BDD0F81C280CF00F0E03FA6F
:103710000EF39BB21343C0F81C3800EB4C10D0F8EA
:10372000003913F4004FECD1D0F80039CA68C2F365
:103730000A02097942EA814242EA8C5C43EA0C03BC
:1037400043F0805343F40043C0F80039D9E7000048
:1037500030B40B784A78012A26D000EB4313D3F813
:10376000002B002A52DBD0F83C480A7802F00F0206
:103770004FF0010C0CFA02F224EA0242C0F83C2895
:10378000D0F81C28097801F00F010CFA01FC22EA9C
:103790000C42C0F81C28D3F8001B234A0A40C3F887
:1037A000002B002030BC704700EB4313D3F80029F6
:1037B000002A1EDBD0F83C580A7802F00F020124E0
:1037C00004FA02F292B225EA0202C0F83C28D0F8CC
:1037D0001C28097801F00F018C40A4B222EA0404ED
:1037E000C0F81C48D3F80019104A0A40C3F8002951
:1037F000D7E7D3F8002942F00062C3F80029D3F8D4
:10380000002942F08042C3F80029D3E7D3F8002B07
:1038100042F00062C3F8002BD3F8002B42F0804244
:10382000C3F8002B9FE700BF0078F3EF007833EC7C
:1038300030B40B784C78012C29D000EB431000F504
:1038400030631C69E40CE4041C611C6924F0FF541F
:1038500024F4C0141C618C690CB1CC688C61CC68F8
:10386000CC611C6944F400241C611C69CD69C5F35A
:10387000120C44EA0C041C61012A68D0D0F8003B09
:1038800043F00443C0F8003B002030BC70478C6913
:103890006CBB00EB4314D4F8105925F0FF5525F408
:1038A000C015C4F81059D4F8105945F40025C4F8CF
:1038B0001059D4F81059ED0CED04C4F81059012A30
:1038C00036D000EB4313D3F8002942F00442C3F88A
:1038D00000298B69002BD7D0D0F834380A7802F051
:1038E0000F0101228A401343C0F83438CCE700EBC3
:1038F000431404F510642569ED0CED042561256978
:1039000025F0FF5525F4C0152561CD68D1F818C004
:10391000AC4500D98D61256945F4002525612569EF
:10392000D1F818C0CCF3120C45EA0C052561C6E7A6
:103930004A691AB100EB4311C1F8142900EB431096
:10394000D0F8002942F00442C0F800299CE70A6937
:10395000002A93D05A6191E710B483B00246002345
:103960000193487801280AD00B7802EB4313D3F86F
:10397000000B00282CDB002003B010BC70470B7834
:1039800002EB4313D3F80049002C01DB0020F3E7DE
:10399000D3F8004944F00064C3F800490B7802EB07
:1039A0004313D3F8004944F08044C3F80049019B15
:1039B00001330193019C42F210739C42DCD80B78D6
:1039C00002EB4313D3F80039002BF0DB0020D3E7E0
:1039D000D3F8000B40F00060C3F8000B0B7802EB4B
:1039E0004313D3F8000B40F08040C3F8000B019B59
:1039F00001330193019842F21073984208D80B7872
:103A000002EB4313D3F8003B002BF0DB0020B3E7BD
:103A10000120B1E710B59DF8084084B903334FEA9F
:103A2000930E4FF0000C08E000EB023303F58053D7
:103A300051F8044B1C600CF1010CF445F4D3002048
:103A400010BD0000F0B583B00B784C78012C33D05A
:103A500000EB431303F5306CDCF81040E40CE40495
:103A6000CCF81040DCF8104024F0FF5424F4C014CB
:103A7000CCF810408C69002C40F0C780DCF8104076
:103A8000CD68C5F312052C43CCF81040DCF810408B
:103A900044F40024CCF81040012A00F0D0800A79C8
:103AA000012A00F0D380D3F8002B42F00442C3F87F
:103AB000002B002003B0F0BD8C6984BB00EB4314E5
:103AC000D4F8105925F0FF5525F4C015C4F8105945
:103AD000D4F8105945F40025C4F81059D4F81059F9
:103AE000ED0CED04C4F81059012A4CD000EB43133F
:103AF000D3F8004944F00444C3F800490C79012C80
:103B00006AD08B69002BD4D0D0F834380A7802F010
:103B10000F0101228A401343C0F83438C9E700EB93
:103B20004314D4F81059ED0CED04C4F81059D4F82E
:103B3000105925F0FF5525F4C015C4F81059D4F8D4
:103B400010698D69CF683D44013DB5FBF7F5494FDC
:103B500007EAC5453543C4F81059D4F810598E69A1
:103B6000C6F312063543C4F8105904F510640D79F4
:103B7000012DB9D1256925F0C0452561256945F09C
:103B800000552561B0E74A691AB100EB4314C4F847
:103B900014290A79012A08D000EB4313D3F800292D
:103BA00042F00442C3F8002983E7D0F8082812F451
:103BB000807F08D100EB4311D1F8002942F0005278
:103BC000C1F80029E8E700EB4311D1F8002942F0E1
:103BD0008052C1F80029DFE7D0F8084814F4807F4C
:103BE0000CD1D3F8004944F00054C3F800490092C6
:103BF0000B8B0A780969FFF70DFF5AE7D3F80049E4
:103C000044F08054C3F80049F1E7CD682C44013CEE
:103C1000B4FBF5F4A4B204FB05F5CD61DCF810505B
:103C2000144E06EAC4442C43CCF81040DCF8104093
:103C3000CD69C5F312052C43CCF810402CE70A6976
:103C4000002A3FF42CAFCCF8142028E7D0F808283D
:103C500012F4807F06D1D3F8002B42F00052C3F853
:103C6000002B20E7D3F8002B42F08052C3F8002B42
:103C700019E700BF0000F81F00B583B0844608466E
:103C80004FEA920E02F00302002305E00CF580518A
:103C9000096840F8041B01337345F7D39AB10CF55A
:103CA000805CDCF8003001934FF0000C5FFA8CF37D
:103CB000D900019BCB4000F8013B0CF1010C013A0B
:103CC00092B2002AF2D103B05DF804FB0B784A7877
:103CD000012A14D000EB4310D0F8002B002A06DB99
:103CE0002BB1D0F8003B23F08043C0F8003BD0F864
:103CF000003B43F40013C0F8003B0020704700EB8A
:103D00004310D0F80029002A06DB2BB1D0F8003987
:103D100023F08043C0F80039D0F8003943F4001391
:103D2000C0F80039E9E70B784A78012A0ED000EB99
:103D30004310D0F8003B23F40013C0F8003B0B798C
:103D4000023BDBB2012B15D90020704700EB43107A
:103D5000D0F8003923F40013C0F800390B79023B86
:103D6000DBB2012BF0D8D0F8003943F08053C0F813
:103D70000039E9E7D0F8003B43F08053C0F8003B3E
:103D8000E2E7D0F8003823F4FE63C0F80038D0F83A
:103D90000038090101F4FE611943C0F80018002041
:103DA0007047D0F8003E23F00303C0F8003ED0F87F
:103DB000043823F00203C0F8043800207047D0F81C
:103DC000003E23F00303C0F8003ED0F8043843F06F
:103DD0000203C0F80438002070474269806910402F
:103DE0007047D0F8183800F50060C0691840000C22
:103DF0007047D0F8183800F50060C069184080B2EC
:103E0000704700EB4111D1F8082B00F500604069C4
:103E10001040704710B4D0F81048D0F8343801F092
:103E20000F02D340DB01DBB2234300EB411000F56E
:103E300010608068184010BC7047406900F00100B5
:103E4000704738B50546C36823F0C043C3600129F5
:103E500013D019BBC36843F08043C3600024012022
:103E6000FDF78CFB01342846FFF7E7FF08B1312C42
:103E7000F5D9322C14D0002038BDC36843F000536C
:103E8000C36000240120FDF779FB01342846FFF7C9
:103E9000D4FF0128EDD0312CF4D9EAE70120EBE77B
:103EA0000120E9E7D0F8003923F4FF6323F007038A
:103EB000C0F80039D0F8043843F48073C0F80438EF
:103EC0000020704710B4046C144B9C4203D9D0F806
:103ED000003B002B16DB0024C0F8104BD0F8104B31
:103EE00044F40024C0F8104BD0F8104B44F01804F0
:103EF000C0F8104BD0F8104B44F0C044C0F8104B41
:103F0000012902D0002010BC7047C0F8142BD0F853
:103F1000003B43F08023C0F8003BF3E70A30544FE6
:103F200008B54FF400611048FDF79AFC18B90F4B23
:103F30001B78012B07D04FF400610B48FDF790FC74
:103F4000012806D008BD094B00221A7001F0A2FC1E
:103F5000F8E7064B1B78002BF4D1044B01221A70B2
:103F600001F0A0FCEEE700BF000C02400C000020B6
:103F700008B500F073FA10F0030F08D183B233B123
:103F8000042B05D07C2B12D0002000F06FFA08BD66
:103F90004FF400610D48FDF763FC10B1AFF30080F2
:103FA000F2E7AFF30080002000F060FAEFE74FF493
:103FB00000610648FDF754FC10B1AFF30080E3E761
:103FC000AFF30080002000F051FAE0E7000C02405F
:103FD00000B587B000F002FA002100910C4B1A6B7B
:103FE00042F008021A631B6B03F008030093009B66
:103FF0004FF400630193029101230393022304937E
:1040000001A90448FDF73AFB07B05DF804FB00BFC7
:1040100000380240000C024008B5FFF781FFFFF7AF
:10402000A7FF08BD70B586B000210091154B1A6B33
:1040300042F040021A631B6B03F040030093009BA5
:104040004FF4807301930291012403940225049597
:104050000D4E01A93046FDF711FBC02301934FF42B
:1040600004130293039401A93046FDF707FB22468F
:1040700029461720FDF7A8FA1720FDF7DDFA06B04C
:1040800070BD00BF003802400018024008B5402053
:10409000FDF7F4FB8020FDF7F1FB08BD08B54028D3
:1040A00002D0802826D008BD80212448FDF7D8FB07
:1040B000012815D0224B1B78022BF4D180211F48F8
:1040C000FDF7CEFB0028EED11D4B00221A704FF4F5
:1040D00080711A48FDF7C4FB48B101F0FBFBE2E731
:1040E000184801F0B3FC164B01221A70E2E701F008
:1040F00001FCD8E740211148FDF7B2FB012815D09B
:104100000F4B1B78012BCED140210C48FDF7A8FBAB
:104110000028C8D10A4B00221A704FF4807107485A
:10412000FDF79EFB30B101F0DDFBBCE7044B022242
:104130001A70E5E701F0E6FBB5E700BF00180240A2
:104140000C0B002038BB000808B54FF480711048F4
:10415000FDF786FB18B90F4B1B78012B07D04FF4E6
:1041600080710B48FDF77CFB012806D008BD094B88
:1041700000221A7001F09EFBF8E7064B1B78002B1B
:10418000F4D1044B01221A7001F09CFBEEE700BF52
:10419000001802400D00002038B5044630B1012C53
:1041A0001AD0022C2ED0032C42D038BD2B4D002229
:1041B00001212846FDF75BFB012202212846FDF77D
:1041C00056FB012204212846FDF751FB012208215C
:1041D0002846FDF74CFBE2E7204D01221146284618
:1041E000FDF745FB002202212846FDF740FB012296
:1041F00004212846FDF73BFB012208212846FDF754
:1042000036FBCEE7154D012211462846FDF72FFB60
:10421000012202212846FDF72AFB0022042128461C
:10422000FDF725FB012208212846FDF720FBBAE710
:104230000A4C012211462046FDF719FB01220221FA
:104240002046FDF714FB012204212046FDF70FFB59
:10425000002208212046FDF70AFBA6E700140240D1
:1042600008B530B101280AD002280ED0032812D098
:1042700008BD4FF480410B48FDF7F2FAF8E74FF420
:1042800080710848FDF7ECFAF2E74FF40071054839
:10429000FDF7E6FAECE74FF480610248FDF7E0FA3B
:1042A000E6E700BF000C024070B506460D4600244C
:1042B0002846FFF7D5FF58B90134E4B20A20FDF7CC
:1042C0005DF9322CF4D929463046AFF30080EFE790
:1042D00070BD0000F0B589B00024039404940594E7
:1042E000069407940194154D2B6B43F020032B6328
:1042F0002B6B03F020030193019B0F2303930127F2
:1043000004970226069603A90D48FDF7B7F9029413
:104310002B6B43F008032B632B6B03F00803029312
:10432000029B4FF48E43039304940597069603A9CA
:104330000448FDF7A3F909B0F0BD00BF0038024002
:1043400000140240000C024038B500253CE0204635
:10435000FFF786FF012821D021462846FFF7A4FF5A
:104360000134E4B2032C2DD82046FFF779FF002852
:10437000EDD1194B1B8804EB850243FA02F111F0D1
:10438000010FE4D0012101FA02F223EA0203124AEA
:1043900013802146284601F0C9FADDE70E4B1B8841
:1043A00004EB850243FA02F111F0010FD4D101218F
:1043B00001FA02F21343084A13802146284601F00D
:1043C000C1FAC9E70135EDB2032D04D82846FFF73D
:1043D000E3FE0024C6E738BD0E00002000B58DB016
:1043E0002422002103A801F0DFFA002301930293A5
:1043F0001748184A0260436083607F22C2600361ED
:1044000083610323039302210491012205920C236B
:104410000793089109920B930DEB0301FEF73CFC07
:1044200070B900230193029301A90948FEF706FD24
:1044300050B93C210648FEF79AFC0DB05DF804FB2C
:10444000054801F003FBECE7034801F0FFFAF0E751
:10445000100B00200008004048BB0008024B1B68FE
:10446000586A80B2704700BF100B0020014B1B68D8
:1044700058627047100B002000B589B000230393E9
:1044800004930593069307930268144B9A4202D053
:1044900009B05DF804FB0021019103F50C331A6C9F
:1044A00042F004021A641A6C02F004020192019AAA
:1044B00002911A6B42F008021A631B6B03F00803A7
:1044C0000293029B4FF440530393022304930793F8
:1044D00003A90348FDF7D2F8DAE700BF000800405F
:1044E000000C0240D0F8D432B03350F82330002012
:1044F0001875704708B5D0F8D43203F1B00250F8FF
:1045000022204AB1B03300EB83004368DB68517866
:1045100010789847002008BD0320FCE710B5D0F8BC
:10452000D43203F1B00250F822407CB12269012A52
:1045300001D0002010BDB03300EB83004368DB687E
:1045400061782078984700202061F3E70320F1E7A5
:104550000A230380004870478000002070B505469C
:104560000D4E8121304600F070FB0446012130469B
:1045700000F06BFB2CB10222227100226271052235
:10458000A27128B1022202710022427105228271B9
:1045900029232B80004870BD4800002070B50546D7
:1045A0000D4E8121304600F050FB0446012130467B
:1045B00000F04BFB2CB10222227100226271052215
:1045C000A27128B102220271002242710522827179
:1045D00029232B80004870BD4800002070B5054697
:1045E0000D4E8121304600F030FB0446012130465B
:1045F00000F02BFB2CB102222271002262710522F5
:10460000A27128B102220271002242710522827138
:1046100029232B80004870BD4800002070B582B06F
:10462000D0F8D45205F1B00350F823300022ADF891
:104630000620002B00F092800C7814F0600432D039
:10464000202C40F085804A78023A092A27D8DFE8F2
:1046500002F0140926262626261B0F058A785A60A2
:10466000002478E00122191D00F0A0FE002472E071
:104670004A88120A9A6000246DE0012203F10801C1
:1046800000F094FE002466E001221A61CA88022A22
:1046900028BF0222194600F09EFE00245BE000F0D5
:1046A00011FB032457E04E780B2E4DD8DFE806F0BF
:1046B00006534C4C4C4C164C4C4C314090F89C32B0
:1046C000DBB2032B03D000F0FDFA032443E0022207
:1046D0000DF1060100F06AFE34463CE04B881B0AEF
:1046E000222B06D0212B0ED000210A4600F05EFEC0
:1046F00031E0CA88022A28BF0222B03500EB8505C6
:104700006B681968F2E7CA88092A28BF0922144988
:10471000ECE790F89C22D2B2032A03D000F0D2FA40
:10472000032418E0012203F10C0100F03FFE12E027
:1047300090F89C22D2B2032A02D18A78DA600AE089
:1047400000F0C0FA032406E000F0BCFA032402E003
:1047500000F0B8FA0324204602B070BD0324FAE743
:104760007400002038B50446812101F057F8002577
:10477000258765870121204601F050F8A4F878517B
:10478000A4F87A51D4F8D43203F1B00254F82220BC
:104790009AB1B03304EB83035B689B689847D4F805
:1047A000D432B03354F8230001F01AF8D4F8D432DC
:1047B000B03344F82350C4F8BC52002038BDF8B5DB
:1047C0000446182001F008F878B30646D4F8D4322D
:1047D000B03344F82300C4F8BC02237C6BBB052330
:1047E0006387A4F87A31022303228121204601F055
:1047F0000AF801272787022303223946204601F0C1
:1048000002F8A4F8787100253575D4F8D432B033A5
:1048100004EB83035B685B689847022332463946A2
:10482000204601F023F82846F8BDD4F8D432B0333E
:10483000002244F823200220F6E705236387A4F82A
:104840007A31D0E708B5D0F8D432B03350F823200D
:104850002AB10223012101F009F8002008BD03203C
:10486000FCE739B1D0F8D432B03300EB83004160BB
:10487000002070470320704798B108B50346002018
:10488000C3F8B802C3F8C402C3F8D00209B1C3F830
:10489000B412012183F89C121A70184600F050FFE0
:1048A00008BD0320704710B582B00023ADF8063074
:1048B00089B10446C0F8B812CB6A23B10DF10600E5
:1048C0009847C4F8D002D4F8D8320133C4F8D832AB
:1048D000002002B010BD0320FBE708B500F08BFFFD
:1048E00008BD08B5D0F8B83213B11B68984708BDA9
:1048F0000020FCE708B5D0F8B8325B68984700B9EB
:1049000008BD0320FCE738B5044600F2AA25284676
:1049100000F0C4F90123C4F89432B4F8B032C4F8FA
:10492000983294F8AA1201F01F03012B0DD0022B2C
:1049300010D02BB101F08001204600F077FF03E09A
:104940002946204600F080FB38BD2946204600F06D
:10495000B6FBF9E72946204600F0F3FBF4E7F8B58B
:104960000446012380F89C320023C0F8943243604F
:10497000C0F8A43280F8A032D0F8B832DBB15B685E
:10498000DBB1002198470746C8B9402300221146F1
:10499000204600F038FF0126A4F864614025C4F8E1
:1049A00060512B4600228021204600F02CFFA68477
:1049B00025623846F8BD0027E7E70027E5E703272B
:1049C000E3E701740020704790F89C32DBB280F876
:1049D0009D32042380F89C320020704790F89C326E
:1049E000DBB2042B01D00020704790F89D32DBB27F
:1049F00080F89C32F7E708B590F89C32DBB2032BC5
:104A000001D0002008BDD0F8B832002BF9D0DB6906
:104A1000002BF6D09847F4E708B5D0F8D432AE337F
:104A200050F823205AB190F89C32DBB2032B01D00E
:104A3000002008BD136A23B198470020F9E703203E
:104A4000F7E70020F5E708B5D0F8D432AE3350F8D8
:104A500023205AB190F89C32DBB2032B01D0002006
:104A600008BD536A23B198470020F9E70320F7E710
:104A70000020F5E70020704708B5012380F89C323C
:104A8000D0F8B83223B15B680179984710B908BDF6
:104A90000020FCE70320FAE7002070470020704761
:104AA00038B504460D46002943D11346D0F8942268
:104AB000032A01D0084638BDD0F85C11D0F8602137
:104AC000914212D890F8AA3203F01F03012B17D09D
:104AD000022B1CD0284694F89C32DBB2032B1BD04F
:104AE000204600F08FFC2846E5E7891AC0F85C11E3
:104AF0008A4228BF0A46194600F07CFC2846DAE7BD
:104B000090F8AE12FFF7C8FF0028E9D1E3E790F86C
:104B1000AE12FFF7C3FFF7E700F1AE0354F82330FE
:104B20001A69002ADCD0C4F8D4021B6920469847D1
:104B3000D6E701F07F01FFF7B1FF90B994F89C32FE
:104B4000DBB2032BB7D100F1AE0354F823309A69DE
:104B5000002AB0D0C4F8D4029B6929462046984761
:104B6000A9E70020A7E738B504460D4600294BD138
:104B70001346D0F89422022A07D094F8A00218B164
:104B8000002384F8A032284638BDC269016A8A42EF
:104B90000ED88A4218D094F89C32DBB2032B27D06F
:104BA0008021204600F042FE204600F036FCE4E77B
:104BB000521AC261194600F006FC00231A46194633
:104BC000204600F053FED8E783699942E3D8D0F835
:104BD00098229342DFD20022114600F0F4FB00211C
:104BE000C4F898120B460A46204600F03FFEC4E780
:104BF000D4F8B832DA68002AD2D00022C4F8D4221D
:104C0000DB6820469847CBE741F08001FFF746FF7D
:104C100090B994F89C32DBB2032BB5D100F1AE030E
:104C200054F823305A69002AAED0C4F8D4025B6924
:104C3000294620469847A7E70020A5E703780A8879
:104C400013440B80037818447047428803789A42D3
:104C500018D930B583B004460D46ADF806306288E9
:104C6000BDF806309A420AD90DF10601FFF7E6FFBA
:104C70004378052BF3D18378AB42F0D100E00020DC
:104C800003B030BD002070470346002002E0013031
:104C9000C0B201331A78002AF9D170470B7803703B
:104CA0004B7843708B78CA7843EA022343800B79B0
:104CB0004A7943EA022383808B79CA7943EA022343
:104CC000C380704710B50446802100F0AFFD00217D
:104CD000204600F0ABFD10BD30B583B004460D4654
:104CE0000023ADF806304A88130A013B062B00F278
:104CF000AB80DFE803F0041F33A9A98D9A00D0F838
:104D0000B4321B680DF10601007C9847EA88002A3E
:104D100000F0A380BDF80630002B00F099809A4285
:104D200028BF1A46ADF806200146204600F03EFB9B
:104D300003B030BD037C43B9D0F8B8329B6A0DF1A3
:104D40000600984702234370E0E7D0F8B832DB6AE8
:104D50000DF10600984702234370D7E7D2B2052A27
:104D600052D8DFE802F003101D2A3744D0F8B432DD
:104D70005B6823B10DF10601007C9847C6E7294620
:104D8000FFF7A0FFD4E7D0F8B4329B6823B10DF150
:104D90000601007C9847B9E72946FFF793FFC7E76C
:104DA000D0F8B432DB6823B10DF10601007C9847DE
:104DB000ACE72946FFF786FFBAE7D0F8B4321B69A3
:104DC00023B10DF10601007C98479FE72946FFF7C4
:104DD00079FFADE7D0F8B4325B6923B10DF106017C
:104DE000007C984792E72946FFF76CFFA0E7D0F8D0
:104DF000B4329B6923B10DF10601007C984785E729
:104E00002946FFF75FFF93E72946FFF75BFF8FE730
:104E1000037C33B9D0F8B8325B6B0DF106009847CC
:104E200074E72946FFF74EFF82E7037C43B9D0F8C9
:104E3000B8321B6B0DF1060098470723437065E7F6
:104E40002946FFF73FFF73E72946FFF73BFF6FE770
:104E500029462046FFF736FF6AE7204600F0D2FADF
:104E600066E738B504468B88FBB9CB88EBB94B882D
:104E70007F2B1AD803F07F0590F89C32DBB2032B0E
:104E80000CD080F89E52294600F0E0FC204600F04D
:104E9000B9FA35B1022384F89C3209E0FFF712FF1A
:104EA00006E0012384F89C3202E02046FFF70AFF67
:104EB00038BD000070B504460E468D782F4B1D702E
:104EC000012D10D890F89C32DBB2022B0FD0032BAF
:104ED00026D0FFF7F7FE294B19782046FFF70AFD89
:104EE0000325284670BDFFF7EDFE0325F9E7A5B1C0
:104EF00045602946FFF7F5FC054638B131462046A6
:104F0000FFF7E0FE022384F89C32EAE7204600F037
:104F100079FA032384F89C32E3E700F073FAE0E7C0
:104F2000CDB141688D4225D0C9B2FFF7E3FC134BE8
:104F3000197861602046FFF7D4FC0546B0B13146D0
:104F40002046FFF7BFFE21792046FFF7D3FC02235E
:104F500084F89C32C5E7022380F89C3245602946DC
:104F6000FFF7C8FC204600F04DFABAE7204600F0F3
:104F700049FAB6E700F046FA0025B2E7580B0020E0
:104F800008B5CB88012B0BD190F89C32DBB2022BF9
:104F900009D9032B09D10122011D00F007FA01E014
:104FA000FFF790FE08BD5BB213B9FFF78BFEF9E780
:104FB0000146002341F8083F012200F0F7F9F1E72C
:104FC00008B590F89C32013B022B12D8CB88022BFB
:104FD0000CD10123C360D0F8A4320BB10323C3600A
:104FE000022200F10C0100F0E1F908BDFFF76AFEB2
:104FF000FBE7FFF767FEF8E708B54B88012B04D005
:10500000022B07D0FFF75EFE08BDC0F8A43200F007
:10501000F9F9F9E78B881B0A80F8A03200F0F2F961
:10502000F2E708B590F89C32013B022B09D84B8877
:10503000012B00D008BD0023C0F8A43200F0E2F933
:10504000F8E7FFF73FFEF5E738B50C7804F06004A9
:10505000202C06D0402C04D06CB1FFF733FE002486
:1050600007E0D0F8D432AE3350F823309B6898472D
:105070000446204638BD4D78092D1DD8DFE805F0DF
:1050800012191C161C08051C0F0BFFF725FEF0E774
:10509000FFF7E7FEEDE7FFF70DFF0446E9E7FFF74F
:1050A0006FFFE6E7FFF78CFF2C46E2E7FFF7A4FF70
:1050B000DFE7FFF7B6FFDCE7FFF704FED9E770B5DF
:1050C00005460C460B7803F06003202B07D0402BDD
:1050D00005D023B1FFF7F6FD0026304670BD95F8E8
:1050E0009C32013B022B26D82179012905D9214682
:1050F0002846FFF7E7FD0026EFE72846FFF7CCFC40
:1051000068B900F1AE0255F82220916889B1C5F85E
:10511000D4029368214628469847064600E00326B5
:10512000E388002BD9D1002ED7D1284600F06AF9A8
:10513000D3E70326F4E721462846FFF7C3FD002600
:10514000CBE72DE9F04106460D468B88DFB20C789F
:1051500004F06004202C08D0402C06D0DCB1FFF70E
:10516000B1FD00242046BDE8F08139463046FFF706
:1051700095FC0446002840F0F880C6F8D40200F1FF
:10518000AE0356F823309B68002BEBD029463046FF
:1051900098470446E6E791F80180B8F1010F31D055
:1051A000B8F1030F05D0B8F1000F67D0FFF78AFD03
:1051B000D8E790F89C32DBB2022B04D0032B12D03C
:1051C000FFF780FDCEE70FB1802F04D1294630468E
:1051D000FFF778FDC6E7394600F028FB802130460E
:1051E00000F024FBBEE74B8823B91FB1802F01D00C
:1051F000CB881BB1304600F005F9B3E7394600F023
:1052000015FBF7E790F89C32DBB2022B04D0032B9E
:1052100012D0FFF757FDA5E70FB1802F04D1294623
:105220003046FFF74FFD9DE7394600F0FFFA802139
:10523000304600F0FBFA95E74B88002B92D117F02F
:105240007F0F17D1304600F0DDF839463046FFF7C2
:1052500025FC002886D1C6F8D40200F1AE0256F82B
:1052600022209268002A00F082802946304690472A
:10527000044677E7394600F0E1FAE3E790F89C222C
:10528000D2B2022A05D0032A27D0FFF71BFD4446DD
:1052900068E70FB1802F13D113F0800F14D107F0FE
:1052A0007F0707EB8707B90001F5A8713144043186
:1052B00000230B600222304600F078F8444651E7A4
:1052C000FFF700FD44464DE707F07F0707EB870730
:1052D000B900103131440431EAE75BB2002B1FDB27
:1052E00007F00F0202EB820200EB8202B2F86421A7
:1052F0001AB3002B25DB07F07F0303EB83039C002D
:1053000004F5A874344404340FB1802F22D1002353
:10531000236002222146304600F048F8444621E747
:1053200007F00F0202EB820200EB8202928C002A4D
:10533000DFD1FFF7C7FC444614E7FFF7C3FC444640
:1053400010E707F07F0303EB83039C001034344421
:105350000434D9E73946304600F026FA10B101236B
:105360002360D6E700232360D3E70024FAE604464F
:10537000F8E6D0B170B50D4616460446FFF784FC3A
:10538000431C5B009BB233802B7003236B700223A2
:1053900007E0EA5401345A1CD2B20021A954023366
:1053A000DBB22278002AF4D170BD704708B51346ED
:1053B0000222C0F894228361C3610A46002100F0F2
:1053C0004DFA002008BD08B513460A46002100F03A
:1053D00045FA002008BD08B513460322C0F8942200
:1053E000C0F85831C0F85C310A46002100F03EFA9E
:1053F000002008BD08B513460A46002100F036FA21
:10540000002008BD08B50422C0F8942200231A46E3
:10541000194600F023FA002008BD08B50522C0F89F
:10542000942200231A46194600F020FA002008BDF5
:1054300008B500220F491048FFF71EFA70B90F494E
:105440000D48FFF730FA60B90D490B48FFF709FA2C
:1054500050B90948FFF741FA48B908BDFBF77AFE91
:10546000EDE7FBF777FEEFE7FBF774FEF1E7FBF7FD
:1054700071FEF2E7A00000205C0B0020100000206D
:1054800090000020002070470020704708B50448B5
:10549000FFF7D8F900B908BD4FF0FF30FBE700BFB8
:1054A0005C0B002012230B8000487047BC000020DA
:1054B00004230B8000487047D00000200023934253
:1054C0001ED200B510E00CF1370C01F813C000013A
:1054D0004FEA430C0CF1010C4FF0000E01F80CE008
:1054E0000133DBB2934209D24FEA107CB0F1204F76
:1054F000E9D20CF1300C01F813C0E8E75DF804FBC9
:105500007047000038B50B4BD3F8100AD3F8144A93
:10551000D3F8183AC01800D138BD074D0822A91C8D
:10552000FFF7CCFF042205F112012046FFF7C6FF6A
:10553000F2E700BF0070FF1FD400002008B51A2357
:105540000B80FFF7DFFF014808BD00BFD40000203B
:1055500008B50A4628B905490548FFF70AFF034878
:1055600008BD02490248FFF704FFF8E7380E0020A3
:1055700060BB000810B50A46034C21460348FFF7FC
:10558000F8FE204610BD00BF380E002080BB00088A
:1055900008B50A4628B905490548FFF7EAFE034859
:1055A00008BD02490248FFF7E4FEF8E7380E002084
:1055B00094BB000808B50A4628B905490548FFF715
:1055C000D8FE034808BD02490248FFF7D2FEF8E7BB
:1055D000380E0020A8BB000830B589B00023039323
:1055E00004930593069307930368B3F1A04F01D08A
:1055F00009B030BD00250195164C236B43F0010323
:105600002363236B03F001030193019B4FF4C05309
:10561000039302230493032306930A23079303A906
:105620000D48FCF72BF8636B43F08003636302952E
:10563000636C43F480436364636C03F480430293BC
:10564000029B2A4629464320FBF7BEFF4320FBF777
:10565000F3FFCDE7003802400000024008B500F239
:10566000C441D0F80805FFF74EF908BD08B501EBB5
:10567000C10300EB8303D3F88C22D0F80805FFF7B1
:105680000FFA08BD08B501EBC10300EB8303DA6C28
:10569000D0F80805FFF767FA08BD08B5D0F8080587
:1056A000FFF7A9F908BD10B50446C3683BB1022B4A
:1056B00001D1012104E0FBF74DFD012100E00021B3
:1056C000D4F80805FFF77DF9D4F80805FFF747F986
:1056D00010BD000010B50446D0F80805FFF774F9B6
:1056E0002268D2F8003E43F00103C2F8003E236A6C
:1056F00023B1034A136943F00603136110BD00BFD1
:1057000000ED00E008B5D0F80805FFF767F908BD1F
:1057100008B5D0F80805FFF796F908BD08B5D0F828
:105720000805FFF779F908BD08B5D0F80805FFF7B7
:10573000A1F908BD08B5D0F80805FFF79DF908BD27
:1057400002780AB10020704710B503461548C0F82A
:105750000835C3F8C8024FF0A04303600423436038
:105760000222C260002303618261C361036243625B
:10577000C3620363FCF7F8F880B90A4C8021204625
:10578000FCF7E4FE402200212046FCF7BAFE80220E
:1057900001212046FCF7B5FE002010BDFBF7DAFC26
:1057A000EBE700BF38100020D0F8C83211F0800FAE
:1057B00008D101F07F0101EBC10103EB810191F8F8
:1057C0007E02704701F07F0101EBC10103EB810113
:1057D00091F83E00704700000048704744150020D3
:1057E0007047032805D8DFE800F005040205012012
:1057F00070470320704708B5D0F8C802FCF74BF992
:10580000FFF7EFFF08BD08B594461A466346D0F887
:10581000C802FCF71FFAFFF7E4FF08BD08B5D0F88F
:10582000C802FCF75CFAFFF7DCFF08BD08B5D0F84A
:10583000C802FCF7EBFAFFF7D4FF08BD08B5D0F8B3
:10584000C802FCF727FBFFF7CCFF08BD08B5D0F86E
:10585000C802FCF7EBF9FFF7C4FF08BD08B5D0F8A4
:10586000C802FCF7A4FAFFF7BCFF08BD08B5D0F8E2
:10587000C802FCF76DFAFFF7B4FF08BD08B5FEF7E4
:10588000A7FBFEF7CFFB08BD08B5FEF7C5FBFEF78B
:105890005BFC08BD08B5024800F03AF908BD00BF3E
:1058A000C0BB000808B5024800F032F908BD00BFCF
:1058B000C8BB000808B5024800F02AF908BD00BFBF
:1058C000C0BB000808B5024800F022F908BD00BFBF
:1058D000C8BB000808B5024800F01AF908BD00BFAF
:1058E000D4BB000808B5024800F012F908BD00BF9B
:1058F000E0BB000808B5024800F00AF908BD00BF87
:10590000D0BB000808B5024800F002F908BD00BF8E
:10591000DCBB000808B5FEF7DDFC4FF4FA60FBF7CE
:105920002DFE08BD08B5FEF70FFD08BD08B58900BE
:10593000C9B20144C9B2024800F088F808BD00BFEE
:10594000E8BB000808B5024800F080F808BD00BFB9
:10595000FCBB0008014B1868704700BFF000002036
:1059600070B50D4E0D4D761BB61006D0002455F8BF
:10597000043B01349847A642F9D1094E094D761BE4
:1059800006F0C2F8B61006D0002455F8043B0134E6
:105990009847A642F9D170BD10C0000810C0000899
:1059A00018C0000810C00008830730B548D0541E46
:1059B000002A3FD0CAB2034601E0013C3AD303F8C3
:1059C000012B9D07F9D1032C2DD9CDB245EA052530
:1059D0000F2C45EA054536D9A4F1100222F00F0C30
:1059E00003F1200EE6444FEA121C03F1100242E9D3
:1059F000045542E9025510327245F8D10CF101020A
:105A000014F00C0F03EB021204F00F0C13D0ACF1E6
:105A1000040323F003030433134442F8045B93426A
:105A2000FBD10CF003042CB1CAB21C4403F8012BC7
:105A30009C42FBD130BD64461346002CF4D1F9E7FB
:105A400003461446BFE71A46A446E0E70FB400B584
:105A5000074983B004AB086853F8042B81680193AD
:105A600000F036F903B05DF804EB04B0704700BFF6
:105A7000F000002070B5054688B008460C46FAF7DD
:105A80005FFD224EAA6B059001214318CDE9066106
:105A900004A8022104940393AC680190029122B3FC
:105AA000636E13F0010FB4F90C309AB201D198056E
:105AB00025D5910406D4626E43F4005322F40052BB
:105AC000A3816266284601AA214603F0DDF9636ED0
:105AD000002814BF4FF0FF350A25DA0702D4A38946
:105AE0009B0506D5284608B070BD284602F0CEFFBB
:105AF000D6E7A06D03F06AFB284608B070BDA06D24
:105B000003F062FBB4F90C309AB2D2E70CBC000887
